{
  "_format": "hh-sol-artifact-1",
  "contractName": "Portfolio",
  "sourceName": "contracts/Portfolio.sol",
  "abi": [
    {
      "inputs": [],
      "stateMutability": "nonpayable",
      "type": "constructor"
    },
    {
      "inputs": [
        {
          "internalType": "string",
          "name": "collegeName",
          "type": "string"
        },
        {
          "internalType": "uint256",
          "name": "startingYear",
          "type": "uint256"
        },
        {
          "internalType": "uint256",
          "name": "endYear",
          "type": "uint256"
        },
        {
          "internalType": "string",
          "name": "degree",
          "type": "string"
        },
        {
          "internalType": "string[]",
          "name": "skillsAcquired",
          "type": "string[]"
        },
        {
          "internalType": "string",
          "name": "description",
          "type": "string"
        }
      ],
      "name": "addEduction",
      "outputs": [],
      "stateMutability": "nonpayable",
      "type": "function"
    },
    {
      "inputs": [
        {
          "internalType": "string",
          "name": "companyName",
          "type": "string"
        },
        {
          "internalType": "string",
          "name": "position",
          "type": "string"
        },
        {
          "internalType": "string",
          "name": "startingTime",
          "type": "string"
        },
        {
          "internalType": "string",
          "name": "endTime",
          "type": "string"
        },
        {
          "internalType": "string[]",
          "name": "knowledgeAcquired",
          "type": "string[]"
        },
        {
          "internalType": "string",
          "name": "description",
          "type": "string"
        }
      ],
      "name": "addExperience",
      "outputs": [],
      "stateMutability": "nonpayable",
      "type": "function"
    },
    {
      "inputs": [
        {
          "internalType": "string",
          "name": "title",
          "type": "string"
        },
        {
          "internalType": "string",
          "name": "githubLink",
          "type": "string"
        },
        {
          "internalType": "string",
          "name": "description",
          "type": "string"
        },
        {
          "internalType": "string",
          "name": "skillsAcquired",
          "type": "string"
        },
        {
          "internalType": "string",
          "name": "linkLink",
          "type": "string"
        },
        {
          "internalType": "string[]",
          "name": "images",
          "type": "string[]"
        }
      ],
      "name": "addProject",
      "outputs": [],
      "stateMutability": "nonpayable",
      "type": "function"
    },
    {
      "inputs": [],
      "name": "allEductationDetails",
      "outputs": [
        {
          "components": [
            {
              "internalType": "uint256",
              "name": "index",
              "type": "uint256"
            },
            {
              "internalType": "string",
              "name": "collegeName",
              "type": "string"
            },
            {
              "internalType": "uint256",
              "name": "startingYear",
              "type": "uint256"
            },
            {
              "internalType": "uint256",
              "name": "endYear",
              "type": "uint256"
            },
            {
              "internalType": "string",
              "name": "degree",
              "type": "string"
            },
            {
              "internalType": "string[]",
              "name": "skillsAcquired",
              "type": "string[]"
            },
            {
              "internalType": "string",
              "name": "description",
              "type": "string"
            }
          ],
          "internalType": "struct Portfolio.Education[]",
          "name": "",
          "type": "tuple[]"
        }
      ],
      "stateMutability": "view",
      "type": "function"
    },
    {
      "inputs": [],
      "name": "allExperienceDetails",
      "outputs": [
        {
          "components": [
            {
              "internalType": "uint256",
              "name": "index",
              "type": "uint256"
            },
            {
              "internalType": "string",
              "name": "companyName",
              "type": "string"
            },
            {
              "internalType": "string",
              "name": "position",
              "type": "string"
            },
            {
              "internalType": "string",
              "name": "startingTime",
              "type": "string"
            },
            {
              "internalType": "string",
              "name": "endTime",
              "type": "string"
            },
            {
              "internalType": "string[]",
              "name": "knowledgeAcquired",
              "type": "string[]"
            },
            {
              "internalType": "string",
              "name": "description",
              "type": "string"
            }
          ],
          "internalType": "struct Portfolio.Experience[]",
          "name": "",
          "type": "tuple[]"
        }
      ],
      "stateMutability": "view",
      "type": "function"
    },
    {
      "inputs": [],
      "name": "allProjects",
      "outputs": [
        {
          "components": [
            {
              "internalType": "uint256",
              "name": "index",
              "type": "uint256"
            },
            {
              "internalType": "string",
              "name": "title",
              "type": "string"
            },
            {
              "internalType": "string",
              "name": "githubLink",
              "type": "string"
            },
            {
              "internalType": "string",
              "name": "description",
              "type": "string"
            },
            {
              "internalType": "string",
              "name": "skillsAcquired",
              "type": "string"
            },
            {
              "internalType": "string",
              "name": "liveLink",
              "type": "string"
            },
            {
              "internalType": "string[]",
              "name": "images",
              "type": "string[]"
            }
          ],
          "internalType": "struct Portfolio.Project[]",
          "name": "",
          "type": "tuple[]"
        }
      ],
      "stateMutability": "view",
      "type": "function"
    },
    {
      "inputs": [
        {
          "internalType": "string",
          "name": "_cid",
          "type": "string"
        }
      ],
      "name": "changeLink",
      "outputs": [],
      "stateMutability": "nonpayable",
      "type": "function"
    },
    {
      "inputs": [
        {
          "internalType": "string",
          "name": "_newProfile",
          "type": "string"
        }
      ],
      "name": "changeProfile",
      "outputs": [],
      "stateMutability": "nonpayable",
      "type": "function"
    },
    {
      "inputs": [
        {
          "internalType": "string",
          "name": "_cid",
          "type": "string"
        }
      ],
      "name": "changeResume",
      "outputs": [],
      "stateMutability": "nonpayable",
      "type": "function"
    },
    {
      "inputs": [
        {
          "internalType": "uint256",
          "name": "amount",
          "type": "uint256"
        }
      ],
      "name": "collectFunds",
      "outputs": [],
      "stateMutability": "nonpayable",
      "type": "function"
    },
    {
      "inputs": [],
      "name": "donate",
      "outputs": [],
      "stateMutability": "payable",
      "type": "function"
    },
    {
      "inputs": [
        {
          "internalType": "uint256",
          "name": "_i",
          "type": "uint256"
        },
        {
          "internalType": "string",
          "name": "collegeName",
          "type": "string"
        },
        {
          "internalType": "uint256",
          "name": "startingYear",
          "type": "uint256"
        },
        {
          "internalType": "uint256",
          "name": "endYear",
          "type": "uint256"
        },
        {
          "internalType": "string",
          "name": "degree",
          "type": "string"
        },
        {
          "internalType": "string[]",
          "name": "skillsAcquired",
          "type": "string[]"
        },
        {
          "internalType": "string",
          "name": "description",
          "type": "string"
        }
      ],
      "name": "editEducation",
      "outputs": [],
      "stateMutability": "nonpayable",
      "type": "function"
    },
    {
      "inputs": [
        {
          "internalType": "uint256",
          "name": "_i",
          "type": "uint256"
        },
        {
          "internalType": "string",
          "name": "companyName",
          "type": "string"
        },
        {
          "internalType": "string",
          "name": "position",
          "type": "string"
        },
        {
          "internalType": "string",
          "name": "startingTime",
          "type": "string"
        },
        {
          "internalType": "string",
          "name": "endTime",
          "type": "string"
        },
        {
          "internalType": "string[]",
          "name": "knowledgeAcquired",
          "type": "string[]"
        },
        {
          "internalType": "string",
          "name": "description",
          "type": "string"
        }
      ],
      "name": "editExperience",
      "outputs": [],
      "stateMutability": "nonpayable",
      "type": "function"
    },
    {
      "inputs": [
        {
          "internalType": "uint256",
          "name": "_i",
          "type": "uint256"
        },
        {
          "internalType": "string",
          "name": "title",
          "type": "string"
        },
        {
          "internalType": "string",
          "name": "githubLink",
          "type": "string"
        },
        {
          "internalType": "string",
          "name": "description",
          "type": "string"
        },
        {
          "internalType": "string",
          "name": "skillsAcquired",
          "type": "string"
        },
        {
          "internalType": "string",
          "name": "liveLink",
          "type": "string"
        },
        {
          "internalType": "string[]",
          "name": "images",
          "type": "string[]"
        }
      ],
      "name": "editProject",
      "outputs": [],
      "stateMutability": "nonpayable",
      "type": "function"
    },
    {
      "inputs": [
        {
          "internalType": "uint256",
          "name": "",
          "type": "uint256"
        }
      ],
      "name": "educations",
      "outputs": [
        {
          "internalType": "uint256",
          "name": "index",
          "type": "uint256"
        },
        {
          "internalType": "string",
          "name": "collegeName",
          "type": "string"
        },
        {
          "internalType": "uint256",
          "name": "startingYear",
          "type": "uint256"
        },
        {
          "internalType": "uint256",
          "name": "endYear",
          "type": "uint256"
        },
        {
          "internalType": "string",
          "name": "degree",
          "type": "string"
        },
        {
          "internalType": "string",
          "name": "description",
          "type": "string"
        }
      ],
      "stateMutability": "view",
      "type": "function"
    },
    {
      "inputs": [
        {
          "internalType": "uint256",
          "name": "",
          "type": "uint256"
        }
      ],
      "name": "experiences",
      "outputs": [
        {
          "internalType": "uint256",
          "name": "index",
          "type": "uint256"
        },
        {
          "internalType": "string",
          "name": "companyName",
          "type": "string"
        },
        {
          "internalType": "string",
          "name": "position",
          "type": "string"
        },
        {
          "internalType": "string",
          "name": "startingTime",
          "type": "string"
        },
        {
          "internalType": "string",
          "name": "endTime",
          "type": "string"
        },
        {
          "internalType": "string",
          "name": "description",
          "type": "string"
        }
      ],
      "stateMutability": "view",
      "type": "function"
    },
    {
      "inputs": [
        {
          "internalType": "uint256",
          "name": "_i",
          "type": "uint256"
        }
      ],
      "name": "getEducation",
      "outputs": [
        {
          "components": [
            {
              "internalType": "uint256",
              "name": "index",
              "type": "uint256"
            },
            {
              "internalType": "string",
              "name": "collegeName",
              "type": "string"
            },
            {
              "internalType": "uint256",
              "name": "startingYear",
              "type": "uint256"
            },
            {
              "internalType": "uint256",
              "name": "endYear",
              "type": "uint256"
            },
            {
              "internalType": "string",
              "name": "degree",
              "type": "string"
            },
            {
              "internalType": "string[]",
              "name": "skillsAcquired",
              "type": "string[]"
            },
            {
              "internalType": "string",
              "name": "description",
              "type": "string"
            }
          ],
          "internalType": "struct Portfolio.Education",
          "name": "",
          "type": "tuple"
        }
      ],
      "stateMutability": "view",
      "type": "function"
    },
    {
      "inputs": [
        {
          "internalType": "uint256",
          "name": "_i",
          "type": "uint256"
        }
      ],
      "name": "getExperience",
      "outputs": [
        {
          "components": [
            {
              "internalType": "uint256",
              "name": "index",
              "type": "uint256"
            },
            {
              "internalType": "string",
              "name": "companyName",
              "type": "string"
            },
            {
              "internalType": "string",
              "name": "position",
              "type": "string"
            },
            {
              "internalType": "string",
              "name": "startingTime",
              "type": "string"
            },
            {
              "internalType": "string",
              "name": "endTime",
              "type": "string"
            },
            {
              "internalType": "string[]",
              "name": "knowledgeAcquired",
              "type": "string[]"
            },
            {
              "internalType": "string",
              "name": "description",
              "type": "string"
            }
          ],
          "internalType": "struct Portfolio.Experience",
          "name": "",
          "type": "tuple"
        }
      ],
      "stateMutability": "view",
      "type": "function"
    },
    {
      "inputs": [
        {
          "internalType": "uint256",
          "name": "_i",
          "type": "uint256"
        }
      ],
      "name": "getProject",
      "outputs": [
        {
          "components": [
            {
              "internalType": "uint256",
              "name": "index",
              "type": "uint256"
            },
            {
              "internalType": "string",
              "name": "title",
              "type": "string"
            },
            {
              "internalType": "string",
              "name": "githubLink",
              "type": "string"
            },
            {
              "internalType": "string",
              "name": "description",
              "type": "string"
            },
            {
              "internalType": "string",
              "name": "skillsAcquired",
              "type": "string"
            },
            {
              "internalType": "string",
              "name": "liveLink",
              "type": "string"
            },
            {
              "internalType": "string[]",
              "name": "images",
              "type": "string[]"
            }
          ],
          "internalType": "struct Portfolio.Project",
          "name": "",
          "type": "tuple"
        }
      ],
      "stateMutability": "view",
      "type": "function"
    },
    {
      "inputs": [],
      "name": "imageLink",
      "outputs": [
        {
          "internalType": "string",
          "name": "",
          "type": "string"
        }
      ],
      "stateMutability": "view",
      "type": "function"
    },
    {
      "inputs": [],
      "name": "manager",
      "outputs": [
        {
          "internalType": "address",
          "name": "",
          "type": "address"
        }
      ],
      "stateMutability": "view",
      "type": "function"
    },
    {
      "inputs": [],
      "name": "noOfEducation",
      "outputs": [
        {
          "internalType": "uint256",
          "name": "",
          "type": "uint256"
        }
      ],
      "stateMutability": "view",
      "type": "function"
    },
    {
      "inputs": [],
      "name": "noOfExperience",
      "outputs": [
        {
          "internalType": "uint256",
          "name": "",
          "type": "uint256"
        }
      ],
      "stateMutability": "view",
      "type": "function"
    },
    {
      "inputs": [],
      "name": "noOfProjects",
      "outputs": [
        {
          "internalType": "uint256",
          "name": "",
          "type": "uint256"
        }
      ],
      "stateMutability": "view",
      "type": "function"
    },
    {
      "inputs": [],
      "name": "profile",
      "outputs": [
        {
          "internalType": "string",
          "name": "",
          "type": "string"
        }
      ],
      "stateMutability": "view",
      "type": "function"
    },
    {
      "inputs": [
        {
          "internalType": "uint256",
          "name": "",
          "type": "uint256"
        }
      ],
      "name": "projects",
      "outputs": [
        {
          "internalType": "uint256",
          "name": "index",
          "type": "uint256"
        },
        {
          "internalType": "string",
          "name": "title",
          "type": "string"
        },
        {
          "internalType": "string",
          "name": "githubLink",
          "type": "string"
        },
        {
          "internalType": "string",
          "name": "description",
          "type": "string"
        },
        {
          "internalType": "string",
          "name": "skillsAcquired",
          "type": "string"
        },
        {
          "internalType": "string",
          "name": "liveLink",
          "type": "string"
        }
      ],
      "stateMutability": "view",
      "type": "function"
    },
    {
      "inputs": [],
      "name": "resumeLink",
      "outputs": [
        {
          "internalType": "string",
          "name": "",
          "type": "string"
        }
      ],
      "stateMutability": "view",
      "type": "function"
    }
  ],
  "bytecode": "0x60806040526040518060600160405280602e815260200162004ed5602e91396006908051906020019062000035929190620000ef565b506040518060c00160405280608e815260200162004f03608e91396007908051906020019062000067929190620000ef565b506040518060600160405280602e815260200162004ea7602e91396008908051906020019062000099929190620000ef565b50348015620000a757600080fd5b5033600960006101000a81548173ffffffffffffffffffffffffffffffffffffffff021916908373ffffffffffffffffffffffffffffffffffffffff16021790555062000204565b828054620000fd906200019f565b90600052602060002090601f0160209004810192826200012157600085556200016d565b82601f106200013c57805160ff19168380011785556200016d565b828001600101855582156200016d579182015b828111156200016c5782518255916020019190600101906200014f565b5b5090506200017c919062000180565b5090565b5b808211156200019b57600081600090555060010162000181565b5090565b60006002820490506001821680620001b857607f821691505b60208210811415620001cf57620001ce620001d5565b5b50919050565b7f4e487b7100000000000000000000000000000000000000000000000000000000600052602260045260246000fd5b614c9380620002146000396000f3fe60806040526004361061019c5760003560e01c80638c347c48116100ec578063caf7b7591161008a578063ed88c68e11610064578063ed88c68e146105c3578063ef2aeba2146105cd578063f0f3f2c8146105f6578063f96e32f8146106335761019c565b8063caf7b75914610514578063cf3e7c7c1461053f578063eaeac631146105815761019c565b8063a9c485da116100c6578063a9c485da1461045a578063ab60636c14610483578063b1ca2106146104ae578063c95234ab146104eb5761019c565b80638c347c48146103db57806390c5e2b3146104065780639191b9421461042f5761019c565b806344cde3071161015957806351acf15e1161013357806351acf15e14610333578063597e47341461035c5780635cea6a7c146103855780638af4f98d146103b05761019c565b806344cde307146102b6578063481c6a75146102df578063482b390f1461030a5761019c565b8063107046bd146101a15780631f7155aa146101e357806327b090021461020c5780632adf13b214610235578063314c1e251461026057806336eea4221461028b575b600080fd5b3480156101ad57600080fd5b506101c860048036038101906101c39190613b43565b610670565b6040516101da96959493929190614817565b60405180910390f35b3480156101ef57600080fd5b5061020a600480360381019061020591906137e7565b610964565b005b34801561021857600080fd5b50610233600480360381019061022e9190613941565b610a0e565b005b34801561024157600080fd5b5061024a610bd8565b6040516102579190614712565b60405180910390f35b34801561026c57600080fd5b50610275610ff4565b60405161028291906147fc565b60405180910390f35b34801561029757600080fd5b506102a0610ffa565b6040516102ad91906146f0565b60405180910390f35b3480156102c257600080fd5b506102dd60048036038101906102d891906137e7565b611416565b005b3480156102eb57600080fd5b506102f46114c0565b60405161030191906146b3565b60405180910390f35b34801561031657600080fd5b50610331600480360381019061032c91906137e7565b6114e6565b005b34801561033f57600080fd5b5061035a60048036038101906103559190613c9a565b611590565b005b34801561036857600080fd5b50610383600480360381019061037e9190613b43565b611765565b005b34801561039157600080fd5b5061039a6118a4565b6040516103a79190614734565b60405180910390f35b3480156103bc57600080fd5b506103c5611932565b6040516103d291906146ce565b60405180910390f35b3480156103e757600080fd5b506103f0611c3e565b6040516103fd91906147fc565b60405180910390f35b34801561041257600080fd5b5061042d60048036038101906104289190613a5a565b611c44565b005b34801561043b57600080fd5b50610444611de7565b60405161045191906147fc565b60405180910390f35b34801561046657600080fd5b50610481600480360381019061047c9190613b6c565b611ded565b005b34801561048f57600080fd5b50610498611fc2565b6040516104a59190614734565b60405180910390f35b3480156104ba57600080fd5b506104d560048036038101906104d09190613b43565b612050565b6040516104e291906147b8565b60405180910390f35b3480156104f757600080fd5b50610512600480360381019061050d9190613dc8565b61246f565b005b34801561052057600080fd5b5061052961261e565b6040516105369190614734565b60405180910390f35b34801561054b57600080fd5b5061056660048036038101906105619190613b43565b6126ac565b60405161057896959493929190614817565b60405180910390f35b34801561058d57600080fd5b506105a860048036038101906105a39190613b43565b6129a0565b6040516105ba9695949392919061489b565b60405180910390f35b6105cb612b84565b005b3480156105d957600080fd5b506105f460048036038101906105ef9190613828565b612bcd565b005b34801561060257600080fd5b5061061d60048036038101906106189190613b43565b612d97565b60405161062a91906147da565b60405180910390f35b34801561063f57600080fd5b5061065a60048036038101906106559190613b43565b6131b6565b6040516106679190614796565b60405180910390f35b6004818154811061068057600080fd5b90600052602060002090600702016000915090508060000154908060010180546106a990614b2d565b80601f01602080910402602001604051908101604052809291908181526020018280546106d590614b2d565b80156107225780601f106106f757610100808354040283529160200191610722565b820191906000526020600020905b81548152906001019060200180831161070557829003601f168201915b50505050509080600201805461073790614b2d565b80601f016020809104026020016040519081016040528092919081815260200182805461076390614b2d565b80156107b05780601f10610785576101008083540402835291602001916107b0565b820191906000526020600020905b81548152906001019060200180831161079357829003601f168201915b5050505050908060030180546107c590614b2d565b80601f01602080910402602001604051908101604052809291908181526020018280546107f190614b2d565b801561083e5780601f106108135761010080835404028352916020019161083e565b820191906000526020600020905b81548152906001019060200180831161082157829003601f168201915b50505050509080600401805461085390614b2d565b80601f016020809104026020016040519081016040528092919081815260200182805461087f90614b2d565b80156108cc5780601f106108a1576101008083540402835291602001916108cc565b820191906000526020600020905b8154815290600101906020018083116108af57829003601f168201915b5050505050908060050180546108e190614b2d565b80601f016020809104026020016040519081016040528092919081815260200182805461090d90614b2d565b801561095a5780601f1061092f5761010080835404028352916020019161095a565b820191906000526020600020905b81548152906001019060200180831161093d57829003601f168201915b5050505050905086565b600960009054906101000a900473ffffffffffffffffffffffffffffffffffffffff1673ffffffffffffffffffffffffffffffffffffffff163373ffffffffffffffffffffffffffffffffffffffff16146109f4576040517f08c379a00000000000000000000000000000000000000000000000000000000081526004016109eb90614756565b60405180910390fd5b8060089080519060200190610a0a9291906134c5565b5050565b600960009054906101000a900473ffffffffffffffffffffffffffffffffffffffff1673ffffffffffffffffffffffffffffffffffffffff163373ffffffffffffffffffffffffffffffffffffffff1614610a9e576040517f08c379a0000000000000000000000000000000000000000000000000000000008152600401610a9590614756565b60405180910390fd5b60046040518060e001604052806001548152602001888152602001878152602001868152602001858152602001848152602001838152509080600181540180825580915050600190039060005260206000209060070201600090919091909150600082015181600001556020820151816001019080519060200190610b249291906134c5565b506040820151816002019080519060200190610b419291906134c5565b506060820151816003019080519060200190610b5e9291906134c5565b506080820151816004019080519060200190610b7b9291906134c5565b5060a0820151816005019080519060200190610b989291906134c5565b5060c0820151816006019080519060200190610bb592919061354b565b50505060016000815480929190610bcb90614b5f565b9190505550505050505050565b60606004805480602002602001604051908101604052809291908181526020016000905b82821015610feb57838290600052602060002090600702016040518060e001604052908160008201548152602001600182018054610c3990614b2d565b80601f0160208091040260200160405190810160405280929190818152602001828054610c6590614b2d565b8015610cb25780601f10610c8757610100808354040283529160200191610cb2565b820191906000526020600020905b815481529060010190602001808311610c9557829003601f168201915b50505050508152602001600282018054610ccb90614b2d565b80601f0160208091040260200160405190810160405280929190818152602001828054610cf790614b2d565b8015610d445780601f10610d1957610100808354040283529160200191610d44565b820191906000526020600020905b815481529060010190602001808311610d2757829003601f168201915b50505050508152602001600382018054610d5d90614b2d565b80601f0160208091040260200160405190810160405280929190818152602001828054610d8990614b2d565b8015610dd65780601f10610dab57610100808354040283529160200191610dd6565b820191906000526020600020905b815481529060010190602001808311610db957829003601f168201915b50505050508152602001600482018054610def90614b2d565b80601f0160208091040260200160405190810160405280929190818152602001828054610e1b90614b2d565b8015610e685780601f10610e3d57610100808354040283529160200191610e68565b820191906000526020600020905b815481529060010190602001808311610e4b57829003601f168201915b50505050508152602001600582018054610e8190614b2d565b80601f0160208091040260200160405190810160405280929190818152602001828054610ead90614b2d565b8015610efa5780601f10610ecf57610100808354040283529160200191610efa565b820191906000526020600020905b815481529060010190602001808311610edd57829003601f168201915b5050505050815260200160068201805480602002602001604051908101604052809291908181526020016000905b82821015610fd4578382906000526020600020018054610f4790614b2d565b80601f0160208091040260200160405190810160405280929190818152602001828054610f7390614b2d565b8015610fc05780601f10610f9557610100808354040283529160200191610fc0565b820191906000526020600020905b815481529060010190602001808311610fa357829003601f168201915b505050505081526020019060010190610f28565b505050508152505081526020019060010190610bfc565b50505050905090565b60015481565b60606003805480602002602001604051908101604052809291908181526020016000905b8282101561140d57838290600052602060002090600702016040518060e00160405290816000820154815260200160018201805461105b90614b2d565b80601f016020809104026020016040519081016040528092919081815260200182805461108790614b2d565b80156110d45780601f106110a9576101008083540402835291602001916110d4565b820191906000526020600020905b8154815290600101906020018083116110b757829003601f168201915b505050505081526020016002820180546110ed90614b2d565b80601f016020809104026020016040519081016040528092919081815260200182805461111990614b2d565b80156111665780601f1061113b57610100808354040283529160200191611166565b820191906000526020600020905b81548152906001019060200180831161114957829003601f168201915b5050505050815260200160038201805461117f90614b2d565b80601f01602080910402602001604051908101604052809291908181526020018280546111ab90614b2d565b80156111f85780601f106111cd576101008083540402835291602001916111f8565b820191906000526020600020905b8154815290600101906020018083116111db57829003601f168201915b5050505050815260200160048201805461121190614b2d565b80601f016020809104026020016040519081016040528092919081815260200182805461123d90614b2d565b801561128a5780601f1061125f5761010080835404028352916020019161128a565b820191906000526020600020905b81548152906001019060200180831161126d57829003601f168201915b5050505050815260200160058201805480602002602001604051908101604052809291908181526020016000905b828210156113645783829060005260206000200180546112d790614b2d565b80601f016020809104026020016040519081016040528092919081815260200182805461130390614b2d565b80156113505780601f1061132557610100808354040283529160200191611350565b820191906000526020600020905b81548152906001019060200180831161133357829003601f168201915b5050505050815260200190600101906112b8565b50505050815260200160068201805461137c90614b2d565b80601f01602080910402602001604051908101604052809291908181526020018280546113a890614b2d565b80156113f55780601f106113ca576101008083540402835291602001916113f5565b820191906000526020600020905b8154815290600101906020018083116113d857829003601f168201915b5050505050815250508152602001906001019061101e565b50505050905090565b600960009054906101000a900473ffffffffffffffffffffffffffffffffffffffff1673ffffffffffffffffffffffffffffffffffffffff163373ffffffffffffffffffffffffffffffffffffffff16146114a6576040517f08c379a000000000000000000000000000000000000000000000000000000000815260040161149d90614756565b60405180910390fd5b80600690805190602001906114bc9291906134c5565b5050565b600960009054906101000a900473ffffffffffffffffffffffffffffffffffffffff1681565b600960009054906101000a900473ffffffffffffffffffffffffffffffffffffffff1673ffffffffffffffffffffffffffffffffffffffff163373ffffffffffffffffffffffffffffffffffffffff1614611576576040517f08c379a000000000000000000000000000000000000000000000000000000000815260040161156d90614756565b60405180910390fd5b806007908051906020019061158c9291906134c5565b5050565b600960009054906101000a900473ffffffffffffffffffffffffffffffffffffffff1673ffffffffffffffffffffffffffffffffffffffff163373ffffffffffffffffffffffffffffffffffffffff1614611620576040517f08c379a000000000000000000000000000000000000000000000000000000000815260040161161790614756565b60405180910390fd5b60006040518060e001604052808981526020018881526020018781526020018681526020018581526020018481526020018381525090508060048981548110611692577f4e487b7100000000000000000000000000000000000000000000000000000000600052603260045260246000fd5b90600052602060002090600702016000820151816000015560208201518160010190805190602001906116c69291906134c5565b5060408201518160020190805190602001906116e39291906134c5565b5060608201518160030190805190602001906117009291906134c5565b50608082015181600401908051906020019061171d9291906134c5565b5060a082015181600501908051906020019061173a9291906134c5565b5060c082015181600601908051906020019061175792919061354b565b509050505050505050505050565b600960009054906101000a900473ffffffffffffffffffffffffffffffffffffffff1673ffffffffffffffffffffffffffffffffffffffff163373ffffffffffffffffffffffffffffffffffffffff16146117f5576040517f08c379a00000000000000000000000000000000000000000000000000000000081526004016117ec90614756565b60405180910390fd5b80471015611838576040517f08c379a000000000000000000000000000000000000000000000000000000000815260040161182f90614776565b60405180910390fd5b600960009054906101000a900473ffffffffffffffffffffffffffffffffffffffff1673ffffffffffffffffffffffffffffffffffffffff166108fc829081150290604051600060405180830381858888f193505050501580156118a0573d6000803e3d6000fd5b5050565b600880546118b190614b2d565b80601f01602080910402602001604051908101604052809291908181526020018280546118dd90614b2d565b801561192a5780601f106118ff5761010080835404028352916020019161192a565b820191906000526020600020905b81548152906001019060200180831161190d57829003601f168201915b505050505081565b60606005805480602002602001604051908101604052809291908181526020016000905b82821015611c3557838290600052602060002090600702016040518060e00160405290816000820154815260200160018201805461199390614b2d565b80601f01602080910402602001604051908101604052809291908181526020018280546119bf90614b2d565b8015611a0c5780601f106119e157610100808354040283529160200191611a0c565b820191906000526020600020905b8154815290600101906020018083116119ef57829003601f168201915b505050505081526020016002820154815260200160038201548152602001600482018054611a3990614b2d565b80601f0160208091040260200160405190810160405280929190818152602001828054611a6590614b2d565b8015611ab25780601f10611a8757610100808354040283529160200191611ab2565b820191906000526020600020905b815481529060010190602001808311611a9557829003601f168201915b5050505050815260200160058201805480602002602001604051908101604052809291908181526020016000905b82821015611b8c578382906000526020600020018054611aff90614b2d565b80601f0160208091040260200160405190810160405280929190818152602001828054611b2b90614b2d565b8015611b785780601f10611b4d57610100808354040283529160200191611b78565b820191906000526020600020905b815481529060010190602001808311611b5b57829003601f168201915b505050505081526020019060010190611ae0565b505050508152602001600682018054611ba490614b2d565b80601f0160208091040260200160405190810160405280929190818152602001828054611bd090614b2d565b8015611c1d5780601f10611bf257610100808354040283529160200191611c1d565b820191906000526020600020905b815481529060010190602001808311611c0057829003601f168201915b50505050508152505081526020019060010190611956565b50505050905090565b60005481565b600960009054906101000a900473ffffffffffffffffffffffffffffffffffffffff1673ffffffffffffffffffffffffffffffffffffffff163373ffffffffffffffffffffffffffffffffffffffff1614611cd4576040517f08c379a0000000000000000000000000000000000000000000000000000000008152600401611ccb90614756565b60405180910390fd5b60056040518060e001604052806000548152602001888152602001878152602001868152602001858152602001848152602001838152509080600181540180825580915050600190039060005260206000209060070201600090919091909150600082015181600001556020820151816001019080519060200190611d5a9291906134c5565b5060408201518160020155606082015181600301556080820151816004019080519060200190611d8b9291906134c5565b5060a0820151816005019080519060200190611da892919061354b565b5060c0820151816006019080519060200190611dc59291906134c5565b505050600080815480929190611dda90614b5f565b9190505550505050505050565b60025481565b600960009054906101000a900473ffffffffffffffffffffffffffffffffffffffff1673ffffffffffffffffffffffffffffffffffffffff163373ffffffffffffffffffffffffffffffffffffffff1614611e7d576040517f08c379a0000000000000000000000000000000000000000000000000000000008152600401611e7490614756565b60405180910390fd5b60006040518060e001604052808981526020018881526020018781526020018681526020018581526020018481526020018381525090508060038981548110611eef577f4e487b7100000000000000000000000000000000000000000000000000000000600052603260045260246000fd5b9060005260206000209060070201600082015181600001556020820151816001019080519060200190611f239291906134c5565b506040820151816002019080519060200190611f409291906134c5565b506060820151816003019080519060200190611f5d9291906134c5565b506080820151816004019080519060200190611f7a9291906134c5565b5060a0820151816005019080519060200190611f9792919061354b565b5060c0820151816006019080519060200190611fb49291906134c5565b509050505050505050505050565b60078054611fcf90614b2d565b80601f0160208091040260200160405190810160405280929190818152602001828054611ffb90614b2d565b80156120485780601f1061201d57610100808354040283529160200191612048565b820191906000526020600020905b81548152906001019060200180831161202b57829003601f168201915b505050505081565b6120586135ab565b60038281548110612092577f4e487b7100000000000000000000000000000000000000000000000000000000600052603260045260246000fd5b90600052602060002090600702016040518060e0016040529081600082015481526020016001820180546120c590614b2d565b80601f01602080910402602001604051908101604052809291908181526020018280546120f190614b2d565b801561213e5780601f106121135761010080835404028352916020019161213e565b820191906000526020600020905b81548152906001019060200180831161212157829003601f168201915b5050505050815260200160028201805461215790614b2d565b80601f016020809104026020016040519081016040528092919081815260200182805461218390614b2d565b80156121d05780601f106121a5576101008083540402835291602001916121d0565b820191906000526020600020905b8154815290600101906020018083116121b357829003601f168201915b505050505081526020016003820180546121e990614b2d565b80601f016020809104026020016040519081016040528092919081815260200182805461221590614b2d565b80156122625780601f1061223757610100808354040283529160200191612262565b820191906000526020600020905b81548152906001019060200180831161224557829003601f168201915b5050505050815260200160048201805461227b90614b2d565b80601f01602080910402602001604051908101604052809291908181526020018280546122a790614b2d565b80156122f45780601f106122c9576101008083540402835291602001916122f4565b820191906000526020600020905b8154815290600101906020018083116122d757829003601f168201915b5050505050815260200160058201805480602002602001604051908101604052809291908181526020016000905b828210156123ce57838290600052602060002001805461234190614b2d565b80601f016020809104026020016040519081016040528092919081815260200182805461236d90614b2d565b80156123ba5780601f1061238f576101008083540402835291602001916123ba565b820191906000526020600020905b81548152906001019060200180831161239d57829003601f168201915b505050505081526020019060010190612322565b5050505081526020016006820180546123e690614b2d565b80601f016020809104026020016040519081016040528092919081815260200182805461241290614b2d565b801561245f5780601f106124345761010080835404028352916020019161245f565b820191906000526020600020905b81548152906001019060200180831161244257829003601f168201915b5050505050815250509050919050565b600960009054906101000a900473ffffffffffffffffffffffffffffffffffffffff1673ffffffffffffffffffffffffffffffffffffffff163373ffffffffffffffffffffffffffffffffffffffff16146124ff576040517f08c379a00000000000000000000000000000000000000000000000000000000081526004016124f690614756565b60405180910390fd5b60006040518060e001604052808981526020018881526020018781526020018681526020018581526020018481526020018381525090508060058981548110612571577f4e487b7100000000000000000000000000000000000000000000000000000000600052603260045260246000fd5b90600052602060002090600702016000820151816000015560208201518160010190805190602001906125a59291906134c5565b50604082015181600201556060820151816003015560808201518160040190805190602001906125d69291906134c5565b5060a08201518160050190805190602001906125f392919061354b565b5060c08201518160060190805190602001906126109291906134c5565b509050505050505050505050565b6006805461262b90614b2d565b80601f016020809104026020016040519081016040528092919081815260200182805461265790614b2d565b80156126a45780601f10612679576101008083540402835291602001916126a4565b820191906000526020600020905b81548152906001019060200180831161268757829003601f168201915b505050505081565b600381815481106126bc57600080fd5b90600052602060002090600702016000915090508060000154908060010180546126e590614b2d565b80601f016020809104026020016040519081016040528092919081815260200182805461271190614b2d565b801561275e5780601f106127335761010080835404028352916020019161275e565b820191906000526020600020905b81548152906001019060200180831161274157829003601f168201915b50505050509080600201805461277390614b2d565b80601f016020809104026020016040519081016040528092919081815260200182805461279f90614b2d565b80156127ec5780601f106127c1576101008083540402835291602001916127ec565b820191906000526020600020905b8154815290600101906020018083116127cf57829003601f168201915b50505050509080600301805461280190614b2d565b80601f016020809104026020016040519081016040528092919081815260200182805461282d90614b2d565b801561287a5780601f1061284f5761010080835404028352916020019161287a565b820191906000526020600020905b81548152906001019060200180831161285d57829003601f168201915b50505050509080600401805461288f90614b2d565b80601f01602080910402602001604051908101604052809291908181526020018280546128bb90614b2d565b80156129085780601f106128dd57610100808354040283529160200191612908565b820191906000526020600020905b8154815290600101906020018083116128eb57829003601f168201915b50505050509080600601805461291d90614b2d565b80601f016020809104026020016040519081016040528092919081815260200182805461294990614b2d565b80156129965780601f1061296b57610100808354040283529160200191612996565b820191906000526020600020905b81548152906001019060200180831161297957829003601f168201915b5050505050905086565b600581815481106129b057600080fd5b90600052602060002090600702016000915090508060000154908060010180546129d990614b2d565b80601f0160208091040260200160405190810160405280929190818152602001828054612a0590614b2d565b8015612a525780601f10612a2757610100808354040283529160200191612a52565b820191906000526020600020905b815481529060010190602001808311612a3557829003601f168201915b505050505090806002015490806003015490806004018054612a7390614b2d565b80601f0160208091040260200160405190810160405280929190818152602001828054612a9f90614b2d565b8015612aec5780601f10612ac157610100808354040283529160200191612aec565b820191906000526020600020905b815481529060010190602001808311612acf57829003601f168201915b505050505090806006018054612b0190614b2d565b80601f0160208091040260200160405190810160405280929190818152602001828054612b2d90614b2d565b8015612b7a5780601f10612b4f57610100808354040283529160200191612b7a565b820191906000526020600020905b815481529060010190602001808311612b5d57829003601f168201915b5050505050905086565b3073ffffffffffffffffffffffffffffffffffffffff166108fc349081150290604051600060405180830381858888f19350505050158015612bca573d6000803e3d6000fd5b50565b600960009054906101000a900473ffffffffffffffffffffffffffffffffffffffff1673ffffffffffffffffffffffffffffffffffffffff163373ffffffffffffffffffffffffffffffffffffffff1614612c5d576040517f08c379a0000000000000000000000000000000000000000000000000000000008152600401612c5490614756565b60405180910390fd5b60036040518060e001604052806002548152602001888152602001878152602001868152602001858152602001848152602001838152509080600181540180825580915050600190039060005260206000209060070201600090919091909150600082015181600001556020820151816001019080519060200190612ce39291906134c5565b506040820151816002019080519060200190612d009291906134c5565b506060820151816003019080519060200190612d1d9291906134c5565b506080820151816004019080519060200190612d3a9291906134c5565b5060a0820151816005019080519060200190612d5792919061354b565b5060c0820151816006019080519060200190612d749291906134c5565b50505060026000815480929190612d8a90614b5f565b9190505550505050505050565b612d9f6135e8565b60048281548110612dd9577f4e487b7100000000000000000000000000000000000000000000000000000000600052603260045260246000fd5b90600052602060002090600702016040518060e001604052908160008201548152602001600182018054612e0c90614b2d565b80601f0160208091040260200160405190810160405280929190818152602001828054612e3890614b2d565b8015612e855780601f10612e5a57610100808354040283529160200191612e85565b820191906000526020600020905b815481529060010190602001808311612e6857829003601f168201915b50505050508152602001600282018054612e9e90614b2d565b80601f0160208091040260200160405190810160405280929190818152602001828054612eca90614b2d565b8015612f175780601f10612eec57610100808354040283529160200191612f17565b820191906000526020600020905b815481529060010190602001808311612efa57829003601f168201915b50505050508152602001600382018054612f3090614b2d565b80601f0160208091040260200160405190810160405280929190818152602001828054612f5c90614b2d565b8015612fa95780601f10612f7e57610100808354040283529160200191612fa9565b820191906000526020600020905b815481529060010190602001808311612f8c57829003601f168201915b50505050508152602001600482018054612fc290614b2d565b80601f0160208091040260200160405190810160405280929190818152602001828054612fee90614b2d565b801561303b5780601f106130105761010080835404028352916020019161303b565b820191906000526020600020905b81548152906001019060200180831161301e57829003601f168201915b5050505050815260200160058201805461305490614b2d565b80601f016020809104026020016040519081016040528092919081815260200182805461308090614b2d565b80156130cd5780601f106130a2576101008083540402835291602001916130cd565b820191906000526020600020905b8154815290600101906020018083116130b057829003601f168201915b5050505050815260200160068201805480602002602001604051908101604052809291908181526020016000905b828210156131a757838290600052602060002001805461311a90614b2d565b80601f016020809104026020016040519081016040528092919081815260200182805461314690614b2d565b80156131935780601f1061316857610100808354040283529160200191613193565b820191906000526020600020905b81548152906001019060200180831161317657829003601f168201915b5050505050815260200190600101906130fb565b50505050815250509050919050565b6131be613625565b600582815481106131f8577f4e487b7100000000000000000000000000000000000000000000000000000000600052603260045260246000fd5b90600052602060002090600702016040518060e00160405290816000820154815260200160018201805461322b90614b2d565b80601f016020809104026020016040519081016040528092919081815260200182805461325790614b2d565b80156132a45780601f10613279576101008083540402835291602001916132a4565b820191906000526020600020905b81548152906001019060200180831161328757829003601f168201915b5050505050815260200160028201548152602001600382015481526020016004820180546132d190614b2d565b80601f01602080910402602001604051908101604052809291908181526020018280546132fd90614b2d565b801561334a5780601f1061331f5761010080835404028352916020019161334a565b820191906000526020600020905b81548152906001019060200180831161332d57829003601f168201915b5050505050815260200160058201805480602002602001604051908101604052809291908181526020016000905b8282101561342457838290600052602060002001805461339790614b2d565b80601f01602080910402602001604051908101604052809291908181526020018280546133c390614b2d565b80156134105780601f106133e557610100808354040283529160200191613410565b820191906000526020600020905b8154815290600101906020018083116133f357829003601f168201915b505050505081526020019060010190613378565b50505050815260200160068201805461343c90614b2d565b80601f016020809104026020016040519081016040528092919081815260200182805461346890614b2d565b80156134b55780601f1061348a576101008083540402835291602001916134b5565b820191906000526020600020905b81548152906001019060200180831161349857829003601f168201915b5050505050815250509050919050565b8280546134d190614b2d565b90600052602060002090601f0160209004810192826134f3576000855561353a565b82601f1061350c57805160ff191683800117855561353a565b8280016001018555821561353a579182015b8281111561353957825182559160200191906001019061351e565b5b5090506135479190613662565b5090565b82805482825590600052602060002090810192821561359a579160200282015b828111156135995782518290805190602001906135899291906134c5565b509160200191906001019061356b565b5b5090506135a7919061367f565b5090565b6040518060e00160405280600081526020016060815260200160608152602001606081526020016060815260200160608152602001606081525090565b6040518060e00160405280600081526020016060815260200160608152602001606081526020016060815260200160608152602001606081525090565b6040518060e00160405280600081526020016060815260200160008152602001600081526020016060815260200160608152602001606081525090565b5b8082111561367b576000816000905550600101613663565b5090565b5b8082111561369f576000818161369691906136a3565b50600101613680565b5090565b5080546136af90614b2d565b6000825580601f106136c157506136e0565b601f0160209004906000526020600020908101906136df9190613662565b5b50565b60006136f66136f184614942565b614911565b9050808382526020820190508260005b85811015613736578135850161371c88826137a8565b845260208401935060208301925050600181019050613706565b5050509392505050565b600061375361374e8461496e565b614911565b90508281526020810184848401111561376b57600080fd5b613776848285614aeb565b509392505050565b600082601f83011261378f57600080fd5b813561379f8482602086016136e3565b91505092915050565b600082601f8301126137b957600080fd5b81356137c9848260208601613740565b91505092915050565b6000813590506137e181614c46565b92915050565b6000602082840312156137f957600080fd5b600082013567ffffffffffffffff81111561381357600080fd5b61381f848285016137a8565b91505092915050565b60008060008060008060c0878903121561384157600080fd5b600087013567ffffffffffffffff81111561385b57600080fd5b61386789828a016137a8565b965050602087013567ffffffffffffffff81111561388457600080fd5b61389089828a016137a8565b955050604087013567ffffffffffffffff8111156138ad57600080fd5b6138b989828a016137a8565b945050606087013567ffffffffffffffff8111156138d657600080fd5b6138e289828a016137a8565b935050608087013567ffffffffffffffff8111156138ff57600080fd5b61390b89828a0161377e565b92505060a087013567ffffffffffffffff81111561392857600080fd5b61393489828a016137a8565b9150509295509295509295565b60008060008060008060c0878903121561395a57600080fd5b600087013567ffffffffffffffff81111561397457600080fd5b61398089828a016137a8565b965050602087013567ffffffffffffffff81111561399d57600080fd5b6139a989828a016137a8565b955050604087013567ffffffffffffffff8111156139c657600080fd5b6139d289828a016137a8565b945050606087013567ffffffffffffffff8111156139ef57600080fd5b6139fb89828a016137a8565b935050608087013567ffffffffffffffff811115613a1857600080fd5b613a2489828a016137a8565b92505060a087013567ffffffffffffffff811115613a4157600080fd5b613a4d89828a0161377e565b9150509295509295509295565b60008060008060008060c08789031215613a7357600080fd5b600087013567ffffffffffffffff811115613a8d57600080fd5b613a9989828a016137a8565b9650506020613aaa89828a016137d2565b9550506040613abb89828a016137d2565b945050606087013567ffffffffffffffff811115613ad857600080fd5b613ae489828a016137a8565b935050608087013567ffffffffffffffff811115613b0157600080fd5b613b0d89828a0161377e565b92505060a087013567ffffffffffffffff811115613b2a57600080fd5b613b3689828a016137a8565b9150509295509295509295565b600060208284031215613b5557600080fd5b6000613b63848285016137d2565b91505092915050565b600080600080600080600060e0888a031215613b8757600080fd5b6000613b958a828b016137d2565b975050602088013567ffffffffffffffff811115613bb257600080fd5b613bbe8a828b016137a8565b965050604088013567ffffffffffffffff811115613bdb57600080fd5b613be78a828b016137a8565b955050606088013567ffffffffffffffff811115613c0457600080fd5b613c108a828b016137a8565b945050608088013567ffffffffffffffff811115613c2d57600080fd5b613c398a828b016137a8565b93505060a088013567ffffffffffffffff811115613c5657600080fd5b613c628a828b0161377e565b92505060c088013567ffffffffffffffff811115613c7f57600080fd5b613c8b8a828b016137a8565b91505092959891949750929550565b600080600080600080600060e0888a031215613cb557600080fd5b6000613cc38a828b016137d2565b975050602088013567ffffffffffffffff811115613ce057600080fd5b613cec8a828b016137a8565b965050604088013567ffffffffffffffff811115613d0957600080fd5b613d158a828b016137a8565b955050606088013567ffffffffffffffff811115613d3257600080fd5b613d3e8a828b016137a8565b945050608088013567ffffffffffffffff811115613d5b57600080fd5b613d678a828b016137a8565b93505060a088013567ffffffffffffffff811115613d8457600080fd5b613d908a828b016137a8565b92505060c088013567ffffffffffffffff811115613dad57600080fd5b613db98a828b0161377e565b91505092959891949750929550565b600080600080600080600060e0888a031215613de357600080fd5b6000613df18a828b016137d2565b975050602088013567ffffffffffffffff811115613e0e57600080fd5b613e1a8a828b016137a8565b9650506040613e2b8a828b016137d2565b9550506060613e3c8a828b016137d2565b945050608088013567ffffffffffffffff811115613e5957600080fd5b613e658a828b016137a8565b93505060a088013567ffffffffffffffff811115613e8257600080fd5b613e8e8a828b0161377e565b92505060c088013567ffffffffffffffff811115613eab57600080fd5b613eb78a828b016137a8565b91505092959891949750929550565b6000613ed283836140f9565b905092915050565b6000613ee68383614237565b905092915050565b6000613efa8383614399565b905092915050565b6000613f0e8383614517565b905092915050565b613f1f81614aaf565b82525050565b6000613f30826149de565b613f3a8185614a49565b935083602082028501613f4c8561499e565b8060005b85811015613f885784840389528151613f698582613ec6565b9450613f7483614a15565b925060208a01995050600181019050613f50565b50829750879550505050505092915050565b6000613fa5826149e9565b613faf8185614a5a565b935083602082028501613fc1856149ae565b8060005b85811015613ffd5784840389528151613fde8582613eda565b9450613fe983614a22565b925060208a01995050600181019050613fc5565b50829750879550505050505092915050565b600061401a826149f4565b6140248185614a6b565b935083602082028501614036856149be565b8060005b8581101561407257848403895281516140538582613eee565b945061405e83614a2f565b925060208a0199505060018101905061403a565b50829750879550505050505092915050565b600061408f826149ff565b6140998185614a7c565b9350836020820285016140ab856149ce565b8060005b858110156140e757848403895281516140c88582613f02565b94506140d383614a3c565b925060208a019950506001810190506140af565b50829750879550505050505092915050565b600061410482614a0a565b61410e8185614a8d565b935061411e818560208601614afa565b61412781614c35565b840191505092915050565b600061413d82614a0a565b6141478185614a9e565b9350614157818560208601614afa565b61416081614c35565b840191505092915050565b6000614178602383614a9e565b91507f4f6e6c79206d616e616765722063616e2063616c6c20746869732066756e637460008301527f696f6e00000000000000000000000000000000000000000000000000000000006020830152604082019050919050565b60006141de602283614a9e565b91507f4e6f7420656e6f7567682062616c616e636520696e2074686520636f6e74726160008301527f63740000000000000000000000000000000000000000000000000000000000006020830152604082019050919050565b600060e08301600083015161424f6000860182614695565b506020830151848203602086015261426782826140f9565b915050604083015161427c6040860182614695565b50606083015161428f6060860182614695565b50608083015184820360808601526142a782826140f9565b91505060a083015184820360a08601526142c18282613f25565b91505060c083015184820360c08601526142db82826140f9565b9150508091505092915050565b600060e0830160008301516143006000860182614695565b506020830151848203602086015261431882826140f9565b915050604083015161432d6040860182614695565b5060608301516143406060860182614695565b506080830151848203608086015261435882826140f9565b91505060a083015184820360a08601526143728282613f25565b91505060c083015184820360c086015261438c82826140f9565b9150508091505092915050565b600060e0830160008301516143b16000860182614695565b50602083015184820360208601526143c982826140f9565b915050604083015184820360408601526143e382826140f9565b915050606083015184820360608601526143fd82826140f9565b9150506080830151848203608086015261441782826140f9565b91505060a083015184820360a08601526144318282613f25565b91505060c083015184820360c086015261444b82826140f9565b9150508091505092915050565b600060e0830160008301516144706000860182614695565b506020830151848203602086015261448882826140f9565b915050604083015184820360408601526144a282826140f9565b915050606083015184820360608601526144bc82826140f9565b915050608083015184820360808601526144d682826140f9565b91505060a083015184820360a08601526144f08282613f25565b91505060c083015184820360c086015261450a82826140f9565b9150508091505092915050565b600060e08301600083015161452f6000860182614695565b506020830151848203602086015261454782826140f9565b9150506040830151848203604086015261456182826140f9565b9150506060830151848203606086015261457b82826140f9565b9150506080830151848203608086015261459582826140f9565b91505060a083015184820360a08601526145af82826140f9565b91505060c083015184820360c08601526145c98282613f25565b9150508091505092915050565b600060e0830160008301516145ee6000860182614695565b506020830151848203602086015261460682826140f9565b9150506040830151848203604086015261462082826140f9565b9150506060830151848203606086015261463a82826140f9565b9150506080830151848203608086015261465482826140f9565b91505060a083015184820360a086015261466e82826140f9565b91505060c083015184820360c08601526146888282613f25565b9150508091505092915050565b61469e81614ae1565b82525050565b6146ad81614ae1565b82525050565b60006020820190506146c86000830184613f16565b92915050565b600060208201905081810360008301526146e88184613f9a565b905092915050565b6000602082019050818103600083015261470a818461400f565b905092915050565b6000602082019050818103600083015261472c8184614084565b905092915050565b6000602082019050818103600083015261474e8184614132565b905092915050565b6000602082019050818103600083015261476f8161416b565b9050919050565b6000602082019050818103600083015261478f816141d1565b9050919050565b600060208201905081810360008301526147b081846142e8565b905092915050565b600060208201905081810360008301526147d28184614458565b905092915050565b600060208201905081810360008301526147f481846145d6565b905092915050565b600060208201905061481160008301846146a4565b92915050565b600060c08201905061482c60008301896146a4565b818103602083015261483e8188614132565b905081810360408301526148528187614132565b905081810360608301526148668186614132565b9050818103608083015261487a8185614132565b905081810360a083015261488e8184614132565b9050979650505050505050565b600060c0820190506148b060008301896146a4565b81810360208301526148c28188614132565b90506148d160408301876146a4565b6148de60608301866146a4565b81810360808301526148f08185614132565b905081810360a08301526149048184614132565b9050979650505050505050565b6000604051905081810181811067ffffffffffffffff8211171561493857614937614c06565b5b8060405250919050565b600067ffffffffffffffff82111561495d5761495c614c06565b5b602082029050602081019050919050565b600067ffffffffffffffff82111561498957614988614c06565b5b601f19601f8301169050602081019050919050565b6000819050602082019050919050565b6000819050602082019050919050565b6000819050602082019050919050565b6000819050602082019050919050565b600081519050919050565b600081519050919050565b600081519050919050565b600081519050919050565b600081519050919050565b6000602082019050919050565b6000602082019050919050565b6000602082019050919050565b6000602082019050919050565b600082825260208201905092915050565b600082825260208201905092915050565b600082825260208201905092915050565b600082825260208201905092915050565b600082825260208201905092915050565b600082825260208201905092915050565b6000614aba82614ac1565b9050919050565b600073ffffffffffffffffffffffffffffffffffffffff82169050919050565b6000819050919050565b82818337600083830152505050565b60005b83811015614b18578082015181840152602081019050614afd565b83811115614b27576000848401525b50505050565b60006002820490506001821680614b4557607f821691505b60208210811415614b5957614b58614bd7565b5b50919050565b6000614b6a82614ae1565b91507fffffffffffffffffffffffffffffffffffffffffffffffffffffffffffffffff821415614b9d57614b9c614ba8565b5b600182019050919050565b7f4e487b7100000000000000000000000000000000000000000000000000000000600052601160045260246000fd5b7f4e487b7100000000000000000000000000000000000000000000000000000000600052602260045260246000fd5b7f4e487b7100000000000000000000000000000000000000000000000000000000600052604160045260246000fd5b6000601f19601f8301169050919050565b614c4f81614ae1565b8114614c5a57600080fd5b5056fea26469706673582212208b7aaea48a99561f25b9d121d2f455469dc0a86b233c6f7b3361c13286450c7564736f6c63430008000033516d5033665831483858535637786e5575586d7741614c61697a706277384e5237754a316248766131755a6e4268516d6635426f4d45687036575965554844314c714d74453539475879387445326562344e62514e3362356658394a6f7665722036206d6f6e746873206f662070726163746963616c20657870657269656e63652077697468206120676f6f64206b6e6f776c6564676520696e20626c6f636b636861696e20646576656c6f706d656e742e692068656c70207765623320636f6d6d756e69747920627920636f6e747269627574696e6720696e2074686520776562332073706163652e",
  "linkReferences": {},
  "deployedLinkReferences": {}
}