{
  "_format": "hh-sol-artifact-1",
  "contractName": "Portfolio",
  "sourceName": "contracts/Portfolio.sol",
  "abi": [
    {
      "inputs": [],
      "stateMutability": "nonpayable",
      "type": "constructor"
    },
    {
      "inputs": [
        {
          "internalType": "string",
          "name": "collegeName",
          "type": "string"
        },
        {
          "internalType": "uint256",
          "name": "startingYear",
          "type": "uint256"
        },
        {
          "internalType": "uint256",
          "name": "endYear",
          "type": "uint256"
        },
        {
          "internalType": "string",
          "name": "degree",
          "type": "string"
        },
        {
          "internalType": "string[]",
          "name": "skillsAcquired",
          "type": "string[]"
        },
        {
          "internalType": "string",
          "name": "description",
          "type": "string"
        }
      ],
      "name": "addEduction",
      "outputs": [],
      "stateMutability": "nonpayable",
      "type": "function"
    },
    {
      "inputs": [
        {
          "internalType": "string",
          "name": "companyName",
          "type": "string"
        },
        {
          "internalType": "string",
          "name": "position",
          "type": "string"
        },
        {
          "internalType": "string",
          "name": "startingTime",
          "type": "string"
        },
        {
          "internalType": "string",
          "name": "endTime",
          "type": "string"
        },
        {
          "internalType": "string[]",
          "name": "knowledgeAcquired",
          "type": "string[]"
        },
        {
          "internalType": "string",
          "name": "description",
          "type": "string"
        }
      ],
      "name": "addExperience",
      "outputs": [],
      "stateMutability": "nonpayable",
      "type": "function"
    },
    {
      "inputs": [
        {
          "internalType": "string",
          "name": "title",
          "type": "string"
        },
        {
          "internalType": "string",
          "name": "githubLink",
          "type": "string"
        },
        {
          "internalType": "string",
          "name": "description",
          "type": "string"
        },
        {
          "internalType": "string",
          "name": "skillsAcquired",
          "type": "string"
        },
        {
          "internalType": "string[]",
          "name": "images",
          "type": "string[]"
        }
      ],
      "name": "addProject",
      "outputs": [],
      "stateMutability": "nonpayable",
      "type": "function"
    },
    {
      "inputs": [],
      "name": "allEductationDetails",
      "outputs": [
        {
          "components": [
            {
              "internalType": "uint256",
              "name": "index",
              "type": "uint256"
            },
            {
              "internalType": "string",
              "name": "collegeName",
              "type": "string"
            },
            {
              "internalType": "uint256",
              "name": "startingYear",
              "type": "uint256"
            },
            {
              "internalType": "uint256",
              "name": "endYear",
              "type": "uint256"
            },
            {
              "internalType": "string",
              "name": "degree",
              "type": "string"
            },
            {
              "internalType": "string[]",
              "name": "skillsAcquired",
              "type": "string[]"
            },
            {
              "internalType": "string",
              "name": "description",
              "type": "string"
            }
          ],
          "internalType": "struct Portfolio.Education[]",
          "name": "",
          "type": "tuple[]"
        }
      ],
      "stateMutability": "view",
      "type": "function"
    },
    {
      "inputs": [],
      "name": "allExperienceDetails",
      "outputs": [
        {
          "components": [
            {
              "internalType": "uint256",
              "name": "index",
              "type": "uint256"
            },
            {
              "internalType": "string",
              "name": "companyName",
              "type": "string"
            },
            {
              "internalType": "string",
              "name": "position",
              "type": "string"
            },
            {
              "internalType": "string",
              "name": "startingTime",
              "type": "string"
            },
            {
              "internalType": "string",
              "name": "endTime",
              "type": "string"
            },
            {
              "internalType": "string[]",
              "name": "knowledgeAcquired",
              "type": "string[]"
            },
            {
              "internalType": "string",
              "name": "description",
              "type": "string"
            }
          ],
          "internalType": "struct Portfolio.Experience[]",
          "name": "",
          "type": "tuple[]"
        }
      ],
      "stateMutability": "view",
      "type": "function"
    },
    {
      "inputs": [],
      "name": "allProjects",
      "outputs": [
        {
          "components": [
            {
              "internalType": "uint256",
              "name": "index",
              "type": "uint256"
            },
            {
              "internalType": "string",
              "name": "title",
              "type": "string"
            },
            {
              "internalType": "string",
              "name": "githubLink",
              "type": "string"
            },
            {
              "internalType": "string",
              "name": "description",
              "type": "string"
            },
            {
              "internalType": "string",
              "name": "skillsAcquired",
              "type": "string"
            },
            {
              "internalType": "string[]",
              "name": "images",
              "type": "string[]"
            }
          ],
          "internalType": "struct Portfolio.Project[]",
          "name": "",
          "type": "tuple[]"
        }
      ],
      "stateMutability": "view",
      "type": "function"
    },
    {
      "inputs": [
        {
          "internalType": "string",
          "name": "_cid",
          "type": "string"
        }
      ],
      "name": "changeLink",
      "outputs": [],
      "stateMutability": "nonpayable",
      "type": "function"
    },
    {
      "inputs": [
        {
          "internalType": "string",
          "name": "_newProfile",
          "type": "string"
        }
      ],
      "name": "changeProfile",
      "outputs": [],
      "stateMutability": "nonpayable",
      "type": "function"
    },
    {
      "inputs": [
        {
          "internalType": "string",
          "name": "_cid",
          "type": "string"
        }
      ],
      "name": "changeResume",
      "outputs": [],
      "stateMutability": "nonpayable",
      "type": "function"
    },
    {
      "inputs": [
        {
          "internalType": "uint256",
          "name": "amount",
          "type": "uint256"
        }
      ],
      "name": "collectFunds",
      "outputs": [],
      "stateMutability": "nonpayable",
      "type": "function"
    },
    {
      "inputs": [],
      "name": "donate",
      "outputs": [],
      "stateMutability": "payable",
      "type": "function"
    },
    {
      "inputs": [
        {
          "internalType": "uint256",
          "name": "_i",
          "type": "uint256"
        },
        {
          "internalType": "string",
          "name": "collegeName",
          "type": "string"
        },
        {
          "internalType": "uint256",
          "name": "startingYear",
          "type": "uint256"
        },
        {
          "internalType": "uint256",
          "name": "endYear",
          "type": "uint256"
        },
        {
          "internalType": "string",
          "name": "degree",
          "type": "string"
        },
        {
          "internalType": "string[]",
          "name": "skillsAcquired",
          "type": "string[]"
        },
        {
          "internalType": "string",
          "name": "description",
          "type": "string"
        }
      ],
      "name": "editEducation",
      "outputs": [],
      "stateMutability": "nonpayable",
      "type": "function"
    },
    {
      "inputs": [
        {
          "internalType": "uint256",
          "name": "_i",
          "type": "uint256"
        },
        {
          "internalType": "string",
          "name": "companyName",
          "type": "string"
        },
        {
          "internalType": "string",
          "name": "position",
          "type": "string"
        },
        {
          "internalType": "string",
          "name": "startingTime",
          "type": "string"
        },
        {
          "internalType": "string",
          "name": "endTime",
          "type": "string"
        },
        {
          "internalType": "string[]",
          "name": "knowledgeAcquired",
          "type": "string[]"
        },
        {
          "internalType": "string",
          "name": "description",
          "type": "string"
        }
      ],
      "name": "editExperience",
      "outputs": [],
      "stateMutability": "nonpayable",
      "type": "function"
    },
    {
      "inputs": [
        {
          "internalType": "uint256",
          "name": "_i",
          "type": "uint256"
        },
        {
          "internalType": "string",
          "name": "title",
          "type": "string"
        },
        {
          "internalType": "string",
          "name": "githubLink",
          "type": "string"
        },
        {
          "internalType": "string",
          "name": "description",
          "type": "string"
        },
        {
          "internalType": "string",
          "name": "skillsAcquired",
          "type": "string"
        },
        {
          "internalType": "string[]",
          "name": "images",
          "type": "string[]"
        }
      ],
      "name": "editProject",
      "outputs": [],
      "stateMutability": "nonpayable",
      "type": "function"
    },
    {
      "inputs": [
        {
          "internalType": "uint256",
          "name": "",
          "type": "uint256"
        }
      ],
      "name": "educations",
      "outputs": [
        {
          "internalType": "uint256",
          "name": "index",
          "type": "uint256"
        },
        {
          "internalType": "string",
          "name": "collegeName",
          "type": "string"
        },
        {
          "internalType": "uint256",
          "name": "startingYear",
          "type": "uint256"
        },
        {
          "internalType": "uint256",
          "name": "endYear",
          "type": "uint256"
        },
        {
          "internalType": "string",
          "name": "degree",
          "type": "string"
        },
        {
          "internalType": "string",
          "name": "description",
          "type": "string"
        }
      ],
      "stateMutability": "view",
      "type": "function"
    },
    {
      "inputs": [
        {
          "internalType": "uint256",
          "name": "",
          "type": "uint256"
        }
      ],
      "name": "experiences",
      "outputs": [
        {
          "internalType": "uint256",
          "name": "index",
          "type": "uint256"
        },
        {
          "internalType": "string",
          "name": "companyName",
          "type": "string"
        },
        {
          "internalType": "string",
          "name": "position",
          "type": "string"
        },
        {
          "internalType": "string",
          "name": "startingTime",
          "type": "string"
        },
        {
          "internalType": "string",
          "name": "endTime",
          "type": "string"
        },
        {
          "internalType": "string",
          "name": "description",
          "type": "string"
        }
      ],
      "stateMutability": "view",
      "type": "function"
    },
    {
      "inputs": [
        {
          "internalType": "uint256",
          "name": "_i",
          "type": "uint256"
        }
      ],
      "name": "getEducation",
      "outputs": [
        {
          "components": [
            {
              "internalType": "uint256",
              "name": "index",
              "type": "uint256"
            },
            {
              "internalType": "string",
              "name": "collegeName",
              "type": "string"
            },
            {
              "internalType": "uint256",
              "name": "startingYear",
              "type": "uint256"
            },
            {
              "internalType": "uint256",
              "name": "endYear",
              "type": "uint256"
            },
            {
              "internalType": "string",
              "name": "degree",
              "type": "string"
            },
            {
              "internalType": "string[]",
              "name": "skillsAcquired",
              "type": "string[]"
            },
            {
              "internalType": "string",
              "name": "description",
              "type": "string"
            }
          ],
          "internalType": "struct Portfolio.Education",
          "name": "",
          "type": "tuple"
        }
      ],
      "stateMutability": "view",
      "type": "function"
    },
    {
      "inputs": [
        {
          "internalType": "uint256",
          "name": "_i",
          "type": "uint256"
        }
      ],
      "name": "getExperience",
      "outputs": [
        {
          "components": [
            {
              "internalType": "uint256",
              "name": "index",
              "type": "uint256"
            },
            {
              "internalType": "string",
              "name": "companyName",
              "type": "string"
            },
            {
              "internalType": "string",
              "name": "position",
              "type": "string"
            },
            {
              "internalType": "string",
              "name": "startingTime",
              "type": "string"
            },
            {
              "internalType": "string",
              "name": "endTime",
              "type": "string"
            },
            {
              "internalType": "string[]",
              "name": "knowledgeAcquired",
              "type": "string[]"
            },
            {
              "internalType": "string",
              "name": "description",
              "type": "string"
            }
          ],
          "internalType": "struct Portfolio.Experience",
          "name": "",
          "type": "tuple"
        }
      ],
      "stateMutability": "view",
      "type": "function"
    },
    {
      "inputs": [
        {
          "internalType": "uint256",
          "name": "_i",
          "type": "uint256"
        }
      ],
      "name": "getProject",
      "outputs": [
        {
          "components": [
            {
              "internalType": "uint256",
              "name": "index",
              "type": "uint256"
            },
            {
              "internalType": "string",
              "name": "title",
              "type": "string"
            },
            {
              "internalType": "string",
              "name": "githubLink",
              "type": "string"
            },
            {
              "internalType": "string",
              "name": "description",
              "type": "string"
            },
            {
              "internalType": "string",
              "name": "skillsAcquired",
              "type": "string"
            },
            {
              "internalType": "string[]",
              "name": "images",
              "type": "string[]"
            }
          ],
          "internalType": "struct Portfolio.Project",
          "name": "",
          "type": "tuple"
        }
      ],
      "stateMutability": "view",
      "type": "function"
    },
    {
      "inputs": [],
      "name": "imageLink",
      "outputs": [
        {
          "internalType": "string",
          "name": "",
          "type": "string"
        }
      ],
      "stateMutability": "view",
      "type": "function"
    },
    {
      "inputs": [],
      "name": "manager",
      "outputs": [
        {
          "internalType": "address",
          "name": "",
          "type": "address"
        }
      ],
      "stateMutability": "view",
      "type": "function"
    },
    {
      "inputs": [],
      "name": "noOfEducation",
      "outputs": [
        {
          "internalType": "uint256",
          "name": "",
          "type": "uint256"
        }
      ],
      "stateMutability": "view",
      "type": "function"
    },
    {
      "inputs": [],
      "name": "noOfExperience",
      "outputs": [
        {
          "internalType": "uint256",
          "name": "",
          "type": "uint256"
        }
      ],
      "stateMutability": "view",
      "type": "function"
    },
    {
      "inputs": [],
      "name": "noOfProjects",
      "outputs": [
        {
          "internalType": "uint256",
          "name": "",
          "type": "uint256"
        }
      ],
      "stateMutability": "view",
      "type": "function"
    },
    {
      "inputs": [],
      "name": "profile",
      "outputs": [
        {
          "internalType": "string",
          "name": "",
          "type": "string"
        }
      ],
      "stateMutability": "view",
      "type": "function"
    },
    {
      "inputs": [
        {
          "internalType": "uint256",
          "name": "",
          "type": "uint256"
        }
      ],
      "name": "projects",
      "outputs": [
        {
          "internalType": "uint256",
          "name": "index",
          "type": "uint256"
        },
        {
          "internalType": "string",
          "name": "title",
          "type": "string"
        },
        {
          "internalType": "string",
          "name": "githubLink",
          "type": "string"
        },
        {
          "internalType": "string",
          "name": "description",
          "type": "string"
        },
        {
          "internalType": "string",
          "name": "skillsAcquired",
          "type": "string"
        }
      ],
      "stateMutability": "view",
      "type": "function"
    },
    {
      "inputs": [],
      "name": "resumeLink",
      "outputs": [
        {
          "internalType": "string",
          "name": "",
          "type": "string"
        }
      ],
      "stateMutability": "view",
      "type": "function"
    }
  ],
  "bytecode": "0x60806040526040518060600160405280602e815260200162004cb7602e91396006908051906020019062000035929190620000ef565b506040518060c00160405280608e815260200162004ce5608e91396007908051906020019062000067929190620000ef565b506040518060600160405280602e815260200162004c89602e91396008908051906020019062000099929190620000ef565b50348015620000a757600080fd5b5033600960006101000a81548173ffffffffffffffffffffffffffffffffffffffff021916908373ffffffffffffffffffffffffffffffffffffffff16021790555062000204565b828054620000fd906200019f565b90600052602060002090601f0160209004810192826200012157600085556200016d565b82601f106200013c57805160ff19168380011785556200016d565b828001600101855582156200016d579182015b828111156200016c5782518255916020019190600101906200014f565b5b5090506200017c919062000180565b5090565b5b808211156200019b57600081600090555060010162000181565b5090565b60006002820490506001821680620001b857607f821691505b60208210811415620001cf57620001ce620001d5565b5b50919050565b7f4e487b7100000000000000000000000000000000000000000000000000000000600052602260045260246000fd5b614a7580620002146000396000f3fe60806040526004361061019c5760003560e01c80638c347c48116100ec578063caf7b7591161008a578063ed88c68e11610064578063ed88c68e146105c2578063ef2aeba2146105cc578063f0f3f2c8146105f5578063f96e32f8146106325761019c565b8063caf7b75914610513578063cf3e7c7c1461053e578063eaeac631146105805761019c565b8063a9c485da116100c6578063a9c485da14610459578063ab60636c14610482578063b1ca2106146104ad578063c95234ab146104ea5761019c565b80638c347c48146103da57806390c5e2b3146104055780639191b9421461042e5761019c565b806344cde30711610159578063597e473411610133578063597e4734146103325780635cea6a7c1461035b57806360cecb87146103865780638af4f98d146103af5761019c565b806344cde307146102b5578063481c6a75146102de578063482b390f146103095761019c565b8063107046bd146101a15780631f7155aa146101e25780632adf13b21461020b578063314c1e251461023657806336eea422146102615780633bbcca6f1461028c575b600080fd5b3480156101ad57600080fd5b506101c860048036038101906101c39190613917565b61066f565b6040516101d995949392919061458a565b60405180910390f35b3480156101ee57600080fd5b50610209600480360381019061020491906135e5565b6108d5565b005b34801561021757600080fd5b5061022061097f565b60405161022d9190614485565b60405180910390f35b34801561024257600080fd5b5061024b610d09565b604051610258919061456f565b60405180910390f35b34801561026d57600080fd5b50610276610d0f565b6040516102839190614463565b60405180910390f35b34801561029857600080fd5b506102b360048036038101906102ae9190613940565b61112b565b005b3480156102c157600080fd5b506102dc60048036038101906102d791906135e5565b6112dc565b005b3480156102ea57600080fd5b506102f3611386565b6040516103009190614426565b60405180910390f35b34801561031557600080fd5b50610330600480360381019061032b91906135e5565b6113ac565b005b34801561033e57600080fd5b5061035960048036038101906103549190613917565b611456565b005b34801561036757600080fd5b50610370611595565b60405161037d91906144a7565b60405180910390f35b34801561039257600080fd5b506103ad60048036038101906103a89190613626565b611623565b005b3480156103bb57600080fd5b506103c46117c9565b6040516103d19190614441565b60405180910390f35b3480156103e657600080fd5b506103ef611ad5565b6040516103fc919061456f565b60405180910390f35b34801561041157600080fd5b5061042c6004803603810190610427919061382e565b611adb565b005b34801561043a57600080fd5b50610443611c7e565b604051610450919061456f565b60405180910390f35b34801561046557600080fd5b50610480600480360381019061047b9190613a41565b611c84565b005b34801561048e57600080fd5b50610497611e59565b6040516104a491906144a7565b60405180910390f35b3480156104b957600080fd5b506104d460048036038101906104cf9190613917565b611ee7565b6040516104e1919061452b565b60405180910390f35b3480156104f657600080fd5b50610511600480360381019061050c9190613b6f565b612306565b005b34801561051f57600080fd5b506105286124b5565b60405161053591906144a7565b60405180910390f35b34801561054a57600080fd5b5061056560048036038101906105609190613917565b612543565b604051610577969594939291906145f9565b60405180910390f35b34801561058c57600080fd5b506105a760048036038101906105a29190613917565b612837565b6040516105b99695949392919061467d565b60405180910390f35b6105ca612a1b565b005b3480156105d857600080fd5b506105f360048036038101906105ee9190613715565b612a64565b005b34801561060157600080fd5b5061061c60048036038101906106179190613917565b612c2e565b604051610629919061454d565b60405180910390f35b34801561063e57600080fd5b5061065960048036038101906106549190613917565b612fbb565b6040516106669190614509565b60405180910390f35b6004818154811061067f57600080fd5b90600052602060002090600602016000915090508060000154908060010180546106a89061490f565b80601f01602080910402602001604051908101604052809291908181526020018280546106d49061490f565b80156107215780601f106106f657610100808354040283529160200191610721565b820191906000526020600020905b81548152906001019060200180831161070457829003601f168201915b5050505050908060020180546107369061490f565b80601f01602080910402602001604051908101604052809291908181526020018280546107629061490f565b80156107af5780601f10610784576101008083540402835291602001916107af565b820191906000526020600020905b81548152906001019060200180831161079257829003601f168201915b5050505050908060030180546107c49061490f565b80601f01602080910402602001604051908101604052809291908181526020018280546107f09061490f565b801561083d5780601f106108125761010080835404028352916020019161083d565b820191906000526020600020905b81548152906001019060200180831161082057829003601f168201915b5050505050908060040180546108529061490f565b80601f016020809104026020016040519081016040528092919081815260200182805461087e9061490f565b80156108cb5780601f106108a0576101008083540402835291602001916108cb565b820191906000526020600020905b8154815290600101906020018083116108ae57829003601f168201915b5050505050905085565b600960009054906101000a900473ffffffffffffffffffffffffffffffffffffffff1673ffffffffffffffffffffffffffffffffffffffff163373ffffffffffffffffffffffffffffffffffffffff1614610965576040517f08c379a000000000000000000000000000000000000000000000000000000000815260040161095c906144c9565b60405180910390fd5b806008908051906020019061097b9291906132ca565b5050565b60606004805480602002602001604051908101604052809291908181526020016000905b82821015610d0057838290600052602060002090600602016040518060c0016040529081600082015481526020016001820180546109e09061490f565b80601f0160208091040260200160405190810160405280929190818152602001828054610a0c9061490f565b8015610a595780601f10610a2e57610100808354040283529160200191610a59565b820191906000526020600020905b815481529060010190602001808311610a3c57829003601f168201915b50505050508152602001600282018054610a729061490f565b80601f0160208091040260200160405190810160405280929190818152602001828054610a9e9061490f565b8015610aeb5780601f10610ac057610100808354040283529160200191610aeb565b820191906000526020600020905b815481529060010190602001808311610ace57829003601f168201915b50505050508152602001600382018054610b049061490f565b80601f0160208091040260200160405190810160405280929190818152602001828054610b309061490f565b8015610b7d5780601f10610b5257610100808354040283529160200191610b7d565b820191906000526020600020905b815481529060010190602001808311610b6057829003601f168201915b50505050508152602001600482018054610b969061490f565b80601f0160208091040260200160405190810160405280929190818152602001828054610bc29061490f565b8015610c0f5780601f10610be457610100808354040283529160200191610c0f565b820191906000526020600020905b815481529060010190602001808311610bf257829003601f168201915b5050505050815260200160058201805480602002602001604051908101604052809291908181526020016000905b82821015610ce9578382906000526020600020018054610c5c9061490f565b80601f0160208091040260200160405190810160405280929190818152602001828054610c889061490f565b8015610cd55780601f10610caa57610100808354040283529160200191610cd5565b820191906000526020600020905b815481529060010190602001808311610cb857829003601f168201915b505050505081526020019060010190610c3d565b5050505081525050815260200190600101906109a3565b50505050905090565b60015481565b60606003805480602002602001604051908101604052809291908181526020016000905b8282101561112257838290600052602060002090600702016040518060e001604052908160008201548152602001600182018054610d709061490f565b80601f0160208091040260200160405190810160405280929190818152602001828054610d9c9061490f565b8015610de95780601f10610dbe57610100808354040283529160200191610de9565b820191906000526020600020905b815481529060010190602001808311610dcc57829003601f168201915b50505050508152602001600282018054610e029061490f565b80601f0160208091040260200160405190810160405280929190818152602001828054610e2e9061490f565b8015610e7b5780601f10610e5057610100808354040283529160200191610e7b565b820191906000526020600020905b815481529060010190602001808311610e5e57829003601f168201915b50505050508152602001600382018054610e949061490f565b80601f0160208091040260200160405190810160405280929190818152602001828054610ec09061490f565b8015610f0d5780601f10610ee257610100808354040283529160200191610f0d565b820191906000526020600020905b815481529060010190602001808311610ef057829003601f168201915b50505050508152602001600482018054610f269061490f565b80601f0160208091040260200160405190810160405280929190818152602001828054610f529061490f565b8015610f9f5780601f10610f7457610100808354040283529160200191610f9f565b820191906000526020600020905b815481529060010190602001808311610f8257829003601f168201915b5050505050815260200160058201805480602002602001604051908101604052809291908181526020016000905b82821015611079578382906000526020600020018054610fec9061490f565b80601f01602080910402602001604051908101604052809291908181526020018280546110189061490f565b80156110655780601f1061103a57610100808354040283529160200191611065565b820191906000526020600020905b81548152906001019060200180831161104857829003601f168201915b505050505081526020019060010190610fcd565b5050505081526020016006820180546110919061490f565b80601f01602080910402602001604051908101604052809291908181526020018280546110bd9061490f565b801561110a5780601f106110df5761010080835404028352916020019161110a565b820191906000526020600020905b8154815290600101906020018083116110ed57829003601f168201915b50505050508152505081526020019060010190610d33565b50505050905090565b600960009054906101000a900473ffffffffffffffffffffffffffffffffffffffff1673ffffffffffffffffffffffffffffffffffffffff163373ffffffffffffffffffffffffffffffffffffffff16146111bb576040517f08c379a00000000000000000000000000000000000000000000000000000000081526004016111b2906144c9565b60405180910390fd5b60006040518060c001604052808881526020018781526020018681526020018581526020018481526020018381525090508060048881548110611227577f4e487b7100000000000000000000000000000000000000000000000000000000600052603260045260246000fd5b906000526020600020906006020160008201518160000155602082015181600101908051906020019061125b9291906132ca565b5060408201518160020190805190602001906112789291906132ca565b5060608201518160030190805190602001906112959291906132ca565b5060808201518160040190805190602001906112b29291906132ca565b5060a08201518160050190805190602001906112cf929190613350565b5090505050505050505050565b600960009054906101000a900473ffffffffffffffffffffffffffffffffffffffff1673ffffffffffffffffffffffffffffffffffffffff163373ffffffffffffffffffffffffffffffffffffffff161461136c576040517f08c379a0000000000000000000000000000000000000000000000000000000008152600401611363906144c9565b60405180910390fd5b80600690805190602001906113829291906132ca565b5050565b600960009054906101000a900473ffffffffffffffffffffffffffffffffffffffff1681565b600960009054906101000a900473ffffffffffffffffffffffffffffffffffffffff1673ffffffffffffffffffffffffffffffffffffffff163373ffffffffffffffffffffffffffffffffffffffff161461143c576040517f08c379a0000000000000000000000000000000000000000000000000000000008152600401611433906144c9565b60405180910390fd5b80600790805190602001906114529291906132ca565b5050565b600960009054906101000a900473ffffffffffffffffffffffffffffffffffffffff1673ffffffffffffffffffffffffffffffffffffffff163373ffffffffffffffffffffffffffffffffffffffff16146114e6576040517f08c379a00000000000000000000000000000000000000000000000000000000081526004016114dd906144c9565b60405180910390fd5b80471015611529576040517f08c379a0000000000000000000000000000000000000000000000000000000008152600401611520906144e9565b60405180910390fd5b600960009054906101000a900473ffffffffffffffffffffffffffffffffffffffff1673ffffffffffffffffffffffffffffffffffffffff166108fc829081150290604051600060405180830381858888f19350505050158015611591573d6000803e3d6000fd5b5050565b600880546115a29061490f565b80601f01602080910402602001604051908101604052809291908181526020018280546115ce9061490f565b801561161b5780601f106115f05761010080835404028352916020019161161b565b820191906000526020600020905b8154815290600101906020018083116115fe57829003601f168201915b505050505081565b600960009054906101000a900473ffffffffffffffffffffffffffffffffffffffff1673ffffffffffffffffffffffffffffffffffffffff163373ffffffffffffffffffffffffffffffffffffffff16146116b3576040517f08c379a00000000000000000000000000000000000000000000000000000000081526004016116aa906144c9565b60405180910390fd5b60046040518060c0016040528060015481526020018781526020018681526020018581526020018481526020018381525090806001815401808255809150506001900390600052602060002090600602016000909190919091506000820151816000015560208201518160010190805190602001906117339291906132ca565b5060408201518160020190805190602001906117509291906132ca565b50606082015181600301908051906020019061176d9291906132ca565b50608082015181600401908051906020019061178a9291906132ca565b5060a08201518160050190805190602001906117a7929190613350565b505050600160008154809291906117bd90614941565b91905055505050505050565b60606005805480602002602001604051908101604052809291908181526020016000905b82821015611acc57838290600052602060002090600702016040518060e00160405290816000820154815260200160018201805461182a9061490f565b80601f01602080910402602001604051908101604052809291908181526020018280546118569061490f565b80156118a35780601f10611878576101008083540402835291602001916118a3565b820191906000526020600020905b81548152906001019060200180831161188657829003601f168201915b5050505050815260200160028201548152602001600382015481526020016004820180546118d09061490f565b80601f01602080910402602001604051908101604052809291908181526020018280546118fc9061490f565b80156119495780601f1061191e57610100808354040283529160200191611949565b820191906000526020600020905b81548152906001019060200180831161192c57829003601f168201915b5050505050815260200160058201805480602002602001604051908101604052809291908181526020016000905b82821015611a235783829060005260206000200180546119969061490f565b80601f01602080910402602001604051908101604052809291908181526020018280546119c29061490f565b8015611a0f5780601f106119e457610100808354040283529160200191611a0f565b820191906000526020600020905b8154815290600101906020018083116119f257829003601f168201915b505050505081526020019060010190611977565b505050508152602001600682018054611a3b9061490f565b80601f0160208091040260200160405190810160405280929190818152602001828054611a679061490f565b8015611ab45780601f10611a8957610100808354040283529160200191611ab4565b820191906000526020600020905b815481529060010190602001808311611a9757829003601f168201915b505050505081525050815260200190600101906117ed565b50505050905090565b60005481565b600960009054906101000a900473ffffffffffffffffffffffffffffffffffffffff1673ffffffffffffffffffffffffffffffffffffffff163373ffffffffffffffffffffffffffffffffffffffff1614611b6b576040517f08c379a0000000000000000000000000000000000000000000000000000000008152600401611b62906144c9565b60405180910390fd5b60056040518060e001604052806000548152602001888152602001878152602001868152602001858152602001848152602001838152509080600181540180825580915050600190039060005260206000209060070201600090919091909150600082015181600001556020820151816001019080519060200190611bf19291906132ca565b5060408201518160020155606082015181600301556080820151816004019080519060200190611c229291906132ca565b5060a0820151816005019080519060200190611c3f929190613350565b5060c0820151816006019080519060200190611c5c9291906132ca565b505050600080815480929190611c7190614941565b9190505550505050505050565b60025481565b600960009054906101000a900473ffffffffffffffffffffffffffffffffffffffff1673ffffffffffffffffffffffffffffffffffffffff163373ffffffffffffffffffffffffffffffffffffffff1614611d14576040517f08c379a0000000000000000000000000000000000000000000000000000000008152600401611d0b906144c9565b60405180910390fd5b60006040518060e001604052808981526020018881526020018781526020018681526020018581526020018481526020018381525090508060038981548110611d86577f4e487b7100000000000000000000000000000000000000000000000000000000600052603260045260246000fd5b9060005260206000209060070201600082015181600001556020820151816001019080519060200190611dba9291906132ca565b506040820151816002019080519060200190611dd79291906132ca565b506060820151816003019080519060200190611df49291906132ca565b506080820151816004019080519060200190611e119291906132ca565b5060a0820151816005019080519060200190611e2e929190613350565b5060c0820151816006019080519060200190611e4b9291906132ca565b509050505050505050505050565b60078054611e669061490f565b80601f0160208091040260200160405190810160405280929190818152602001828054611e929061490f565b8015611edf5780601f10611eb457610100808354040283529160200191611edf565b820191906000526020600020905b815481529060010190602001808311611ec257829003601f168201915b505050505081565b611eef6133b0565b60038281548110611f29577f4e487b7100000000000000000000000000000000000000000000000000000000600052603260045260246000fd5b90600052602060002090600702016040518060e001604052908160008201548152602001600182018054611f5c9061490f565b80601f0160208091040260200160405190810160405280929190818152602001828054611f889061490f565b8015611fd55780601f10611faa57610100808354040283529160200191611fd5565b820191906000526020600020905b815481529060010190602001808311611fb857829003601f168201915b50505050508152602001600282018054611fee9061490f565b80601f016020809104026020016040519081016040528092919081815260200182805461201a9061490f565b80156120675780601f1061203c57610100808354040283529160200191612067565b820191906000526020600020905b81548152906001019060200180831161204a57829003601f168201915b505050505081526020016003820180546120809061490f565b80601f01602080910402602001604051908101604052809291908181526020018280546120ac9061490f565b80156120f95780601f106120ce576101008083540402835291602001916120f9565b820191906000526020600020905b8154815290600101906020018083116120dc57829003601f168201915b505050505081526020016004820180546121129061490f565b80601f016020809104026020016040519081016040528092919081815260200182805461213e9061490f565b801561218b5780601f106121605761010080835404028352916020019161218b565b820191906000526020600020905b81548152906001019060200180831161216e57829003601f168201915b5050505050815260200160058201805480602002602001604051908101604052809291908181526020016000905b828210156122655783829060005260206000200180546121d89061490f565b80601f01602080910402602001604051908101604052809291908181526020018280546122049061490f565b80156122515780601f1061222657610100808354040283529160200191612251565b820191906000526020600020905b81548152906001019060200180831161223457829003601f168201915b5050505050815260200190600101906121b9565b50505050815260200160068201805461227d9061490f565b80601f01602080910402602001604051908101604052809291908181526020018280546122a99061490f565b80156122f65780601f106122cb576101008083540402835291602001916122f6565b820191906000526020600020905b8154815290600101906020018083116122d957829003601f168201915b5050505050815250509050919050565b600960009054906101000a900473ffffffffffffffffffffffffffffffffffffffff1673ffffffffffffffffffffffffffffffffffffffff163373ffffffffffffffffffffffffffffffffffffffff1614612396576040517f08c379a000000000000000000000000000000000000000000000000000000000815260040161238d906144c9565b60405180910390fd5b60006040518060e001604052808981526020018881526020018781526020018681526020018581526020018481526020018381525090508060058981548110612408577f4e487b7100000000000000000000000000000000000000000000000000000000600052603260045260246000fd5b906000526020600020906007020160008201518160000155602082015181600101908051906020019061243c9291906132ca565b506040820151816002015560608201518160030155608082015181600401908051906020019061246d9291906132ca565b5060a082015181600501908051906020019061248a929190613350565b5060c08201518160060190805190602001906124a79291906132ca565b509050505050505050505050565b600680546124c29061490f565b80601f01602080910402602001604051908101604052809291908181526020018280546124ee9061490f565b801561253b5780601f106125105761010080835404028352916020019161253b565b820191906000526020600020905b81548152906001019060200180831161251e57829003601f168201915b505050505081565b6003818154811061255357600080fd5b906000526020600020906007020160009150905080600001549080600101805461257c9061490f565b80601f01602080910402602001604051908101604052809291908181526020018280546125a89061490f565b80156125f55780601f106125ca576101008083540402835291602001916125f5565b820191906000526020600020905b8154815290600101906020018083116125d857829003601f168201915b50505050509080600201805461260a9061490f565b80601f01602080910402602001604051908101604052809291908181526020018280546126369061490f565b80156126835780601f1061265857610100808354040283529160200191612683565b820191906000526020600020905b81548152906001019060200180831161266657829003601f168201915b5050505050908060030180546126989061490f565b80601f01602080910402602001604051908101604052809291908181526020018280546126c49061490f565b80156127115780601f106126e657610100808354040283529160200191612711565b820191906000526020600020905b8154815290600101906020018083116126f457829003601f168201915b5050505050908060040180546127269061490f565b80601f01602080910402602001604051908101604052809291908181526020018280546127529061490f565b801561279f5780601f106127745761010080835404028352916020019161279f565b820191906000526020600020905b81548152906001019060200180831161278257829003601f168201915b5050505050908060060180546127b49061490f565b80601f01602080910402602001604051908101604052809291908181526020018280546127e09061490f565b801561282d5780601f106128025761010080835404028352916020019161282d565b820191906000526020600020905b81548152906001019060200180831161281057829003601f168201915b5050505050905086565b6005818154811061284757600080fd5b90600052602060002090600702016000915090508060000154908060010180546128709061490f565b80601f016020809104026020016040519081016040528092919081815260200182805461289c9061490f565b80156128e95780601f106128be576101008083540402835291602001916128e9565b820191906000526020600020905b8154815290600101906020018083116128cc57829003601f168201915b50505050509080600201549080600301549080600401805461290a9061490f565b80601f01602080910402602001604051908101604052809291908181526020018280546129369061490f565b80156129835780601f1061295857610100808354040283529160200191612983565b820191906000526020600020905b81548152906001019060200180831161296657829003601f168201915b5050505050908060060180546129989061490f565b80601f01602080910402602001604051908101604052809291908181526020018280546129c49061490f565b8015612a115780601f106129e657610100808354040283529160200191612a11565b820191906000526020600020905b8154815290600101906020018083116129f457829003601f168201915b5050505050905086565b3073ffffffffffffffffffffffffffffffffffffffff166108fc349081150290604051600060405180830381858888f19350505050158015612a61573d6000803e3d6000fd5b50565b600960009054906101000a900473ffffffffffffffffffffffffffffffffffffffff1673ffffffffffffffffffffffffffffffffffffffff163373ffffffffffffffffffffffffffffffffffffffff1614612af4576040517f08c379a0000000000000000000000000000000000000000000000000000000008152600401612aeb906144c9565b60405180910390fd5b60036040518060e001604052806002548152602001888152602001878152602001868152602001858152602001848152602001838152509080600181540180825580915050600190039060005260206000209060070201600090919091909150600082015181600001556020820151816001019080519060200190612b7a9291906132ca565b506040820151816002019080519060200190612b979291906132ca565b506060820151816003019080519060200190612bb49291906132ca565b506080820151816004019080519060200190612bd19291906132ca565b5060a0820151816005019080519060200190612bee929190613350565b5060c0820151816006019080519060200190612c0b9291906132ca565b50505060026000815480929190612c2190614941565b9190505550505050505050565b612c366133ed565b60048281548110612c70577f4e487b7100000000000000000000000000000000000000000000000000000000600052603260045260246000fd5b90600052602060002090600602016040518060c001604052908160008201548152602001600182018054612ca39061490f565b80601f0160208091040260200160405190810160405280929190818152602001828054612ccf9061490f565b8015612d1c5780601f10612cf157610100808354040283529160200191612d1c565b820191906000526020600020905b815481529060010190602001808311612cff57829003601f168201915b50505050508152602001600282018054612d359061490f565b80601f0160208091040260200160405190810160405280929190818152602001828054612d619061490f565b8015612dae5780601f10612d8357610100808354040283529160200191612dae565b820191906000526020600020905b815481529060010190602001808311612d9157829003601f168201915b50505050508152602001600382018054612dc79061490f565b80601f0160208091040260200160405190810160405280929190818152602001828054612df39061490f565b8015612e405780601f10612e1557610100808354040283529160200191612e40565b820191906000526020600020905b815481529060010190602001808311612e2357829003601f168201915b50505050508152602001600482018054612e599061490f565b80601f0160208091040260200160405190810160405280929190818152602001828054612e859061490f565b8015612ed25780601f10612ea757610100808354040283529160200191612ed2565b820191906000526020600020905b815481529060010190602001808311612eb557829003601f168201915b5050505050815260200160058201805480602002602001604051908101604052809291908181526020016000905b82821015612fac578382906000526020600020018054612f1f9061490f565b80601f0160208091040260200160405190810160405280929190818152602001828054612f4b9061490f565b8015612f985780601f10612f6d57610100808354040283529160200191612f98565b820191906000526020600020905b815481529060010190602001808311612f7b57829003601f168201915b505050505081526020019060010190612f00565b50505050815250509050919050565b612fc3613423565b60058281548110612ffd577f4e487b7100000000000000000000000000000000000000000000000000000000600052603260045260246000fd5b90600052602060002090600702016040518060e0016040529081600082015481526020016001820180546130309061490f565b80601f016020809104026020016040519081016040528092919081815260200182805461305c9061490f565b80156130a95780601f1061307e576101008083540402835291602001916130a9565b820191906000526020600020905b81548152906001019060200180831161308c57829003601f168201915b5050505050815260200160028201548152602001600382015481526020016004820180546130d69061490f565b80601f01602080910402602001604051908101604052809291908181526020018280546131029061490f565b801561314f5780601f106131245761010080835404028352916020019161314f565b820191906000526020600020905b81548152906001019060200180831161313257829003601f168201915b5050505050815260200160058201805480602002602001604051908101604052809291908181526020016000905b8282101561322957838290600052602060002001805461319c9061490f565b80601f01602080910402602001604051908101604052809291908181526020018280546131c89061490f565b80156132155780601f106131ea57610100808354040283529160200191613215565b820191906000526020600020905b8154815290600101906020018083116131f857829003601f168201915b50505050508152602001906001019061317d565b5050505081526020016006820180546132419061490f565b80601f016020809104026020016040519081016040528092919081815260200182805461326d9061490f565b80156132ba5780601f1061328f576101008083540402835291602001916132ba565b820191906000526020600020905b81548152906001019060200180831161329d57829003601f168201915b5050505050815250509050919050565b8280546132d69061490f565b90600052602060002090601f0160209004810192826132f8576000855561333f565b82601f1061331157805160ff191683800117855561333f565b8280016001018555821561333f579182015b8281111561333e578251825591602001919060010190613323565b5b50905061334c9190613460565b5090565b82805482825590600052602060002090810192821561339f579160200282015b8281111561339e57825182908051906020019061338e9291906132ca565b5091602001919060010190613370565b5b5090506133ac919061347d565b5090565b6040518060e00160405280600081526020016060815260200160608152602001606081526020016060815260200160608152602001606081525090565b6040518060c001604052806000815260200160608152602001606081526020016060815260200160608152602001606081525090565b6040518060e00160405280600081526020016060815260200160008152602001600081526020016060815260200160608152602001606081525090565b5b80821115613479576000816000905550600101613461565b5090565b5b8082111561349d576000818161349491906134a1565b5060010161347e565b5090565b5080546134ad9061490f565b6000825580601f106134bf57506134de565b601f0160209004906000526020600020908101906134dd9190613460565b5b50565b60006134f46134ef84614724565b6146f3565b9050808382526020820190508260005b85811015613534578135850161351a88826135a6565b845260208401935060208301925050600181019050613504565b5050509392505050565b600061355161354c84614750565b6146f3565b90508281526020810184848401111561356957600080fd5b6135748482856148cd565b509392505050565b600082601f83011261358d57600080fd5b813561359d8482602086016134e1565b91505092915050565b600082601f8301126135b757600080fd5b81356135c784826020860161353e565b91505092915050565b6000813590506135df81614a28565b92915050565b6000602082840312156135f757600080fd5b600082013567ffffffffffffffff81111561361157600080fd5b61361d848285016135a6565b91505092915050565b600080600080600060a0868803121561363e57600080fd5b600086013567ffffffffffffffff81111561365857600080fd5b613664888289016135a6565b955050602086013567ffffffffffffffff81111561368157600080fd5b61368d888289016135a6565b945050604086013567ffffffffffffffff8111156136aa57600080fd5b6136b6888289016135a6565b935050606086013567ffffffffffffffff8111156136d357600080fd5b6136df888289016135a6565b925050608086013567ffffffffffffffff8111156136fc57600080fd5b6137088882890161357c565b9150509295509295909350565b60008060008060008060c0878903121561372e57600080fd5b600087013567ffffffffffffffff81111561374857600080fd5b61375489828a016135a6565b965050602087013567ffffffffffffffff81111561377157600080fd5b61377d89828a016135a6565b955050604087013567ffffffffffffffff81111561379a57600080fd5b6137a689828a016135a6565b945050606087013567ffffffffffffffff8111156137c357600080fd5b6137cf89828a016135a6565b935050608087013567ffffffffffffffff8111156137ec57600080fd5b6137f889828a0161357c565b92505060a087013567ffffffffffffffff81111561381557600080fd5b61382189828a016135a6565b9150509295509295509295565b60008060008060008060c0878903121561384757600080fd5b600087013567ffffffffffffffff81111561386157600080fd5b61386d89828a016135a6565b965050602061387e89828a016135d0565b955050604061388f89828a016135d0565b945050606087013567ffffffffffffffff8111156138ac57600080fd5b6138b889828a016135a6565b935050608087013567ffffffffffffffff8111156138d557600080fd5b6138e189828a0161357c565b92505060a087013567ffffffffffffffff8111156138fe57600080fd5b61390a89828a016135a6565b9150509295509295509295565b60006020828403121561392957600080fd5b6000613937848285016135d0565b91505092915050565b60008060008060008060c0878903121561395957600080fd5b600061396789828a016135d0565b965050602087013567ffffffffffffffff81111561398457600080fd5b61399089828a016135a6565b955050604087013567ffffffffffffffff8111156139ad57600080fd5b6139b989828a016135a6565b945050606087013567ffffffffffffffff8111156139d657600080fd5b6139e289828a016135a6565b935050608087013567ffffffffffffffff8111156139ff57600080fd5b613a0b89828a016135a6565b92505060a087013567ffffffffffffffff811115613a2857600080fd5b613a3489828a0161357c565b9150509295509295509295565b600080600080600080600060e0888a031215613a5c57600080fd5b6000613a6a8a828b016135d0565b975050602088013567ffffffffffffffff811115613a8757600080fd5b613a938a828b016135a6565b965050604088013567ffffffffffffffff811115613ab057600080fd5b613abc8a828b016135a6565b955050606088013567ffffffffffffffff811115613ad957600080fd5b613ae58a828b016135a6565b945050608088013567ffffffffffffffff811115613b0257600080fd5b613b0e8a828b016135a6565b93505060a088013567ffffffffffffffff811115613b2b57600080fd5b613b378a828b0161357c565b92505060c088013567ffffffffffffffff811115613b5457600080fd5b613b608a828b016135a6565b91505092959891949750929550565b600080600080600080600060e0888a031215613b8a57600080fd5b6000613b988a828b016135d0565b975050602088013567ffffffffffffffff811115613bb557600080fd5b613bc18a828b016135a6565b9650506040613bd28a828b016135d0565b9550506060613be38a828b016135d0565b945050608088013567ffffffffffffffff811115613c0057600080fd5b613c0c8a828b016135a6565b93505060a088013567ffffffffffffffff811115613c2957600080fd5b613c358a828b0161357c565b92505060c088013567ffffffffffffffff811115613c5257600080fd5b613c5e8a828b016135a6565b91505092959891949750929550565b6000613c798383613ea0565b905092915050565b6000613c8d8383613fde565b905092915050565b6000613ca18383614140565b905092915050565b6000613cb583836142be565b905092915050565b613cc681614891565b82525050565b6000613cd7826147c0565b613ce1818561482b565b935083602082028501613cf385614780565b8060005b85811015613d2f5784840389528151613d108582613c6d565b9450613d1b836147f7565b925060208a01995050600181019050613cf7565b50829750879550505050505092915050565b6000613d4c826147cb565b613d56818561483c565b935083602082028501613d6885614790565b8060005b85811015613da45784840389528151613d858582613c81565b9450613d9083614804565b925060208a01995050600181019050613d6c565b50829750879550505050505092915050565b6000613dc1826147d6565b613dcb818561484d565b935083602082028501613ddd856147a0565b8060005b85811015613e195784840389528151613dfa8582613c95565b9450613e0583614811565b925060208a01995050600181019050613de1565b50829750879550505050505092915050565b6000613e36826147e1565b613e40818561485e565b935083602082028501613e52856147b0565b8060005b85811015613e8e5784840389528151613e6f8582613ca9565b9450613e7a8361481e565b925060208a01995050600181019050613e56565b50829750879550505050505092915050565b6000613eab826147ec565b613eb5818561486f565b9350613ec58185602086016148dc565b613ece81614a17565b840191505092915050565b6000613ee4826147ec565b613eee8185614880565b9350613efe8185602086016148dc565b613f0781614a17565b840191505092915050565b6000613f1f602383614880565b91507f4f6e6c79206d616e616765722063616e2063616c6c20746869732066756e637460008301527f696f6e00000000000000000000000000000000000000000000000000000000006020830152604082019050919050565b6000613f85602283614880565b91507f4e6f7420656e6f7567682062616c616e636520696e2074686520636f6e74726160008301527f63740000000000000000000000000000000000000000000000000000000000006020830152604082019050919050565b600060e083016000830151613ff66000860182614408565b506020830151848203602086015261400e8282613ea0565b91505060408301516140236040860182614408565b5060608301516140366060860182614408565b506080830151848203608086015261404e8282613ea0565b91505060a083015184820360a08601526140688282613ccc565b91505060c083015184820360c08601526140828282613ea0565b9150508091505092915050565b600060e0830160008301516140a76000860182614408565b50602083015184820360208601526140bf8282613ea0565b91505060408301516140d46040860182614408565b5060608301516140e76060860182614408565b50608083015184820360808601526140ff8282613ea0565b91505060a083015184820360a08601526141198282613ccc565b91505060c083015184820360c08601526141338282613ea0565b9150508091505092915050565b600060e0830160008301516141586000860182614408565b50602083015184820360208601526141708282613ea0565b9150506040830151848203604086015261418a8282613ea0565b915050606083015184820360608601526141a48282613ea0565b915050608083015184820360808601526141be8282613ea0565b91505060a083015184820360a08601526141d88282613ccc565b91505060c083015184820360c08601526141f28282613ea0565b9150508091505092915050565b600060e0830160008301516142176000860182614408565b506020830151848203602086015261422f8282613ea0565b915050604083015184820360408601526142498282613ea0565b915050606083015184820360608601526142638282613ea0565b9150506080830151848203608086015261427d8282613ea0565b91505060a083015184820360a08601526142978282613ccc565b91505060c083015184820360c08601526142b18282613ea0565b9150508091505092915050565b600060c0830160008301516142d66000860182614408565b50602083015184820360208601526142ee8282613ea0565b915050604083015184820360408601526143088282613ea0565b915050606083015184820360608601526143228282613ea0565b9150506080830151848203608086015261433c8282613ea0565b91505060a083015184820360a08601526143568282613ccc565b9150508091505092915050565b600060c08301600083015161437b6000860182614408565b50602083015184820360208601526143938282613ea0565b915050604083015184820360408601526143ad8282613ea0565b915050606083015184820360608601526143c78282613ea0565b915050608083015184820360808601526143e18282613ea0565b91505060a083015184820360a08601526143fb8282613ccc565b9150508091505092915050565b614411816148c3565b82525050565b614420816148c3565b82525050565b600060208201905061443b6000830184613cbd565b92915050565b6000602082019050818103600083015261445b8184613d41565b905092915050565b6000602082019050818103600083015261447d8184613db6565b905092915050565b6000602082019050818103600083015261449f8184613e2b565b905092915050565b600060208201905081810360008301526144c18184613ed9565b905092915050565b600060208201905081810360008301526144e281613f12565b9050919050565b6000602082019050818103600083015261450281613f78565b9050919050565b60006020820190508181036000830152614523818461408f565b905092915050565b6000602082019050818103600083015261454581846141ff565b905092915050565b600060208201905081810360008301526145678184614363565b905092915050565b60006020820190506145846000830184614417565b92915050565b600060a08201905061459f6000830188614417565b81810360208301526145b18187613ed9565b905081810360408301526145c58186613ed9565b905081810360608301526145d98185613ed9565b905081810360808301526145ed8184613ed9565b90509695505050505050565b600060c08201905061460e6000830189614417565b81810360208301526146208188613ed9565b905081810360408301526146348187613ed9565b905081810360608301526146488186613ed9565b9050818103608083015261465c8185613ed9565b905081810360a08301526146708184613ed9565b9050979650505050505050565b600060c0820190506146926000830189614417565b81810360208301526146a48188613ed9565b90506146b36040830187614417565b6146c06060830186614417565b81810360808301526146d28185613ed9565b905081810360a08301526146e68184613ed9565b9050979650505050505050565b6000604051905081810181811067ffffffffffffffff8211171561471a576147196149e8565b5b8060405250919050565b600067ffffffffffffffff82111561473f5761473e6149e8565b5b602082029050602081019050919050565b600067ffffffffffffffff82111561476b5761476a6149e8565b5b601f19601f8301169050602081019050919050565b6000819050602082019050919050565b6000819050602082019050919050565b6000819050602082019050919050565b6000819050602082019050919050565b600081519050919050565b600081519050919050565b600081519050919050565b600081519050919050565b600081519050919050565b6000602082019050919050565b6000602082019050919050565b6000602082019050919050565b6000602082019050919050565b600082825260208201905092915050565b600082825260208201905092915050565b600082825260208201905092915050565b600082825260208201905092915050565b600082825260208201905092915050565b600082825260208201905092915050565b600061489c826148a3565b9050919050565b600073ffffffffffffffffffffffffffffffffffffffff82169050919050565b6000819050919050565b82818337600083830152505050565b60005b838110156148fa5780820151818401526020810190506148df565b83811115614909576000848401525b50505050565b6000600282049050600182168061492757607f821691505b6020821081141561493b5761493a6149b9565b5b50919050565b600061494c826148c3565b91507fffffffffffffffffffffffffffffffffffffffffffffffffffffffffffffffff82141561497f5761497e61498a565b5b600182019050919050565b7f4e487b7100000000000000000000000000000000000000000000000000000000600052601160045260246000fd5b7f4e487b7100000000000000000000000000000000000000000000000000000000600052602260045260246000fd5b7f4e487b7100000000000000000000000000000000000000000000000000000000600052604160045260246000fd5b6000601f19601f8301169050919050565b614a31816148c3565b8114614a3c57600080fd5b5056fea26469706673582212209e0d010819c6025c6cd3f125675b28a1e1ecc6450570738c615f10cdde256e8f64736f6c63430008000033516d5033665831483858535637786e5575586d7741614c61697a706277384e5237754a316248766131755a6e4268516d6635426f4d45687036575965554844314c714d74453539475879387445326562344e62514e3362356658394a6f7665722036206d6f6e746873206f662070726163746963616c20657870657269656e63652077697468206120676f6f64206b6e6f776c6564676520696e20626c6f636b636861696e20646576656c6f706d656e742e692068656c70207765623320636f6d6d756e69747920627920636f6e747269627574696e6720696e2074686520776562332073706163652e",
  "linkReferences": {},
  "deployedLinkReferences": {}
}