{
  "_format": "hh-sol-artifact-1",
  "contractName": "Portfolio",
  "sourceName": "contracts/Portfolio.sol",
  "abi": [
    {
      "inputs": [],
      "stateMutability": "nonpayable",
      "type": "constructor"
    },
    {
      "inputs": [
        {
          "internalType": "string",
          "name": "collegeName",
          "type": "string"
        },
        {
          "internalType": "uint256",
          "name": "startingYear",
          "type": "uint256"
        },
        {
          "internalType": "uint256",
          "name": "endYear",
          "type": "uint256"
        },
        {
          "internalType": "string",
          "name": "degree",
          "type": "string"
        },
        {
          "internalType": "string[]",
          "name": "skillsAcquired",
          "type": "string[]"
        },
        {
          "internalType": "string",
          "name": "description",
          "type": "string"
        }
      ],
      "name": "addEduction",
      "outputs": [],
      "stateMutability": "nonpayable",
      "type": "function"
    },
    {
      "inputs": [
        {
          "internalType": "string",
          "name": "companyName",
          "type": "string"
        },
        {
          "internalType": "string",
          "name": "position",
          "type": "string"
        },
        {
          "internalType": "string",
          "name": "startingTime",
          "type": "string"
        },
        {
          "internalType": "string",
          "name": "endTime",
          "type": "string"
        },
        {
          "internalType": "string[]",
          "name": "knowledgeAcquired",
          "type": "string[]"
        },
        {
          "internalType": "string",
          "name": "description",
          "type": "string"
        }
      ],
      "name": "addExperience",
      "outputs": [],
      "stateMutability": "nonpayable",
      "type": "function"
    },
    {
      "inputs": [
        {
          "internalType": "string",
          "name": "title",
          "type": "string"
        },
        {
          "internalType": "string",
          "name": "githubLink",
          "type": "string"
        },
        {
          "internalType": "string",
          "name": "description",
          "type": "string"
        },
        {
          "internalType": "string",
          "name": "skillsAcquired",
          "type": "string"
        },
        {
          "internalType": "string[]",
          "name": "images",
          "type": "string[]"
        }
      ],
      "name": "addProject",
      "outputs": [],
      "stateMutability": "nonpayable",
      "type": "function"
    },
    {
      "inputs": [],
      "name": "allEductationDetails",
      "outputs": [
        {
          "components": [
            {
              "internalType": "uint256",
              "name": "index",
              "type": "uint256"
            },
            {
              "internalType": "string",
              "name": "collegeName",
              "type": "string"
            },
            {
              "internalType": "uint256",
              "name": "startingYear",
              "type": "uint256"
            },
            {
              "internalType": "uint256",
              "name": "endYear",
              "type": "uint256"
            },
            {
              "internalType": "string",
              "name": "degree",
              "type": "string"
            },
            {
              "internalType": "string[]",
              "name": "skillsAcquired",
              "type": "string[]"
            },
            {
              "internalType": "string",
              "name": "description",
              "type": "string"
            }
          ],
          "internalType": "struct Portfolio.Education[]",
          "name": "",
          "type": "tuple[]"
        }
      ],
      "stateMutability": "view",
      "type": "function"
    },
    {
      "inputs": [],
      "name": "allExperienceDetails",
      "outputs": [
        {
          "components": [
            {
              "internalType": "uint256",
              "name": "index",
              "type": "uint256"
            },
            {
              "internalType": "string",
              "name": "companyName",
              "type": "string"
            },
            {
              "internalType": "string",
              "name": "position",
              "type": "string"
            },
            {
              "internalType": "string",
              "name": "startingTime",
              "type": "string"
            },
            {
              "internalType": "string",
              "name": "endTime",
              "type": "string"
            },
            {
              "internalType": "string[]",
              "name": "knowledgeAcquired",
              "type": "string[]"
            },
            {
              "internalType": "string",
              "name": "description",
              "type": "string"
            }
          ],
          "internalType": "struct Portfolio.Experience[]",
          "name": "",
          "type": "tuple[]"
        }
      ],
      "stateMutability": "view",
      "type": "function"
    },
    {
      "inputs": [],
      "name": "allProjects",
      "outputs": [
        {
          "components": [
            {
              "internalType": "uint256",
              "name": "index",
              "type": "uint256"
            },
            {
              "internalType": "string",
              "name": "title",
              "type": "string"
            },
            {
              "internalType": "string",
              "name": "githubLink",
              "type": "string"
            },
            {
              "internalType": "string",
              "name": "description",
              "type": "string"
            },
            {
              "internalType": "string",
              "name": "skillsAcquired",
              "type": "string"
            },
            {
              "internalType": "string[]",
              "name": "images",
              "type": "string[]"
            }
          ],
          "internalType": "struct Portfolio.Project[]",
          "name": "",
          "type": "tuple[]"
        }
      ],
      "stateMutability": "view",
      "type": "function"
    },
    {
      "inputs": [
        {
          "internalType": "string",
          "name": "_cid",
          "type": "string"
        }
      ],
      "name": "changeLink",
      "outputs": [],
      "stateMutability": "nonpayable",
      "type": "function"
    },
    {
      "inputs": [
        {
          "internalType": "string",
          "name": "_newProfile",
          "type": "string"
        }
      ],
      "name": "changeProfile",
      "outputs": [],
      "stateMutability": "nonpayable",
      "type": "function"
    },
    {
      "inputs": [
        {
          "internalType": "string",
          "name": "_cid",
          "type": "string"
        }
      ],
      "name": "changeResume",
      "outputs": [],
      "stateMutability": "nonpayable",
      "type": "function"
    },
    {
      "inputs": [
        {
          "internalType": "uint256",
          "name": "amount",
          "type": "uint256"
        }
      ],
      "name": "collectFunds",
      "outputs": [],
      "stateMutability": "nonpayable",
      "type": "function"
    },
    {
      "inputs": [],
      "name": "donate",
      "outputs": [],
      "stateMutability": "payable",
      "type": "function"
    },
    {
      "inputs": [
        {
          "internalType": "uint256",
          "name": "_i",
          "type": "uint256"
        },
        {
          "internalType": "string",
          "name": "collegeName",
          "type": "string"
        },
        {
          "internalType": "uint256",
          "name": "startingYear",
          "type": "uint256"
        },
        {
          "internalType": "uint256",
          "name": "endYear",
          "type": "uint256"
        },
        {
          "internalType": "string",
          "name": "degree",
          "type": "string"
        },
        {
          "internalType": "string[]",
          "name": "skillsAcquired",
          "type": "string[]"
        },
        {
          "internalType": "string",
          "name": "description",
          "type": "string"
        }
      ],
      "name": "editEducation",
      "outputs": [],
      "stateMutability": "nonpayable",
      "type": "function"
    },
    {
      "inputs": [
        {
          "internalType": "uint256",
          "name": "_i",
          "type": "uint256"
        },
        {
          "internalType": "string",
          "name": "companyName",
          "type": "string"
        },
        {
          "internalType": "string",
          "name": "position",
          "type": "string"
        },
        {
          "internalType": "string",
          "name": "startingTime",
          "type": "string"
        },
        {
          "internalType": "string",
          "name": "endTime",
          "type": "string"
        },
        {
          "internalType": "string[]",
          "name": "knowledgeAcquired",
          "type": "string[]"
        },
        {
          "internalType": "string",
          "name": "description",
          "type": "string"
        }
      ],
      "name": "editExperience",
      "outputs": [],
      "stateMutability": "nonpayable",
      "type": "function"
    },
    {
      "inputs": [
        {
          "internalType": "uint256",
          "name": "_i",
          "type": "uint256"
        },
        {
          "internalType": "string",
          "name": "title",
          "type": "string"
        },
        {
          "internalType": "string",
          "name": "githubLink",
          "type": "string"
        },
        {
          "internalType": "string",
          "name": "description",
          "type": "string"
        },
        {
          "internalType": "string",
          "name": "skillsAcquired",
          "type": "string"
        },
        {
          "internalType": "string[]",
          "name": "images",
          "type": "string[]"
        }
      ],
      "name": "editProject",
      "outputs": [],
      "stateMutability": "nonpayable",
      "type": "function"
    },
    {
      "inputs": [
        {
          "internalType": "uint256",
          "name": "",
          "type": "uint256"
        }
      ],
      "name": "educations",
      "outputs": [
        {
          "internalType": "uint256",
          "name": "index",
          "type": "uint256"
        },
        {
          "internalType": "string",
          "name": "collegeName",
          "type": "string"
        },
        {
          "internalType": "uint256",
          "name": "startingYear",
          "type": "uint256"
        },
        {
          "internalType": "uint256",
          "name": "endYear",
          "type": "uint256"
        },
        {
          "internalType": "string",
          "name": "degree",
          "type": "string"
        },
        {
          "internalType": "string",
          "name": "description",
          "type": "string"
        }
      ],
      "stateMutability": "view",
      "type": "function"
    },
    {
      "inputs": [
        {
          "internalType": "uint256",
          "name": "",
          "type": "uint256"
        }
      ],
      "name": "experiences",
      "outputs": [
        {
          "internalType": "uint256",
          "name": "index",
          "type": "uint256"
        },
        {
          "internalType": "string",
          "name": "companyName",
          "type": "string"
        },
        {
          "internalType": "string",
          "name": "position",
          "type": "string"
        },
        {
          "internalType": "string",
          "name": "startingTime",
          "type": "string"
        },
        {
          "internalType": "string",
          "name": "endTime",
          "type": "string"
        },
        {
          "internalType": "string",
          "name": "description",
          "type": "string"
        }
      ],
      "stateMutability": "view",
      "type": "function"
    },
    {
      "inputs": [
        {
          "internalType": "uint256",
          "name": "_i",
          "type": "uint256"
        }
      ],
      "name": "getEducation",
      "outputs": [
        {
          "components": [
            {
              "internalType": "uint256",
              "name": "index",
              "type": "uint256"
            },
            {
              "internalType": "string",
              "name": "collegeName",
              "type": "string"
            },
            {
              "internalType": "uint256",
              "name": "startingYear",
              "type": "uint256"
            },
            {
              "internalType": "uint256",
              "name": "endYear",
              "type": "uint256"
            },
            {
              "internalType": "string",
              "name": "degree",
              "type": "string"
            },
            {
              "internalType": "string[]",
              "name": "skillsAcquired",
              "type": "string[]"
            },
            {
              "internalType": "string",
              "name": "description",
              "type": "string"
            }
          ],
          "internalType": "struct Portfolio.Education",
          "name": "",
          "type": "tuple"
        }
      ],
      "stateMutability": "view",
      "type": "function"
    },
    {
      "inputs": [
        {
          "internalType": "uint256",
          "name": "_i",
          "type": "uint256"
        }
      ],
      "name": "getExperience",
      "outputs": [
        {
          "components": [
            {
              "internalType": "uint256",
              "name": "index",
              "type": "uint256"
            },
            {
              "internalType": "string",
              "name": "companyName",
              "type": "string"
            },
            {
              "internalType": "string",
              "name": "position",
              "type": "string"
            },
            {
              "internalType": "string",
              "name": "startingTime",
              "type": "string"
            },
            {
              "internalType": "string",
              "name": "endTime",
              "type": "string"
            },
            {
              "internalType": "string[]",
              "name": "knowledgeAcquired",
              "type": "string[]"
            },
            {
              "internalType": "string",
              "name": "description",
              "type": "string"
            }
          ],
          "internalType": "struct Portfolio.Experience",
          "name": "",
          "type": "tuple"
        }
      ],
      "stateMutability": "view",
      "type": "function"
    },
    {
      "inputs": [
        {
          "internalType": "uint256",
          "name": "_i",
          "type": "uint256"
        }
      ],
      "name": "getProject",
      "outputs": [
        {
          "components": [
            {
              "internalType": "uint256",
              "name": "index",
              "type": "uint256"
            },
            {
              "internalType": "string",
              "name": "title",
              "type": "string"
            },
            {
              "internalType": "string",
              "name": "githubLink",
              "type": "string"
            },
            {
              "internalType": "string",
              "name": "description",
              "type": "string"
            },
            {
              "internalType": "string",
              "name": "skillsAcquired",
              "type": "string"
            },
            {
              "internalType": "string[]",
              "name": "images",
              "type": "string[]"
            }
          ],
          "internalType": "struct Portfolio.Project",
          "name": "",
          "type": "tuple"
        }
      ],
      "stateMutability": "view",
      "type": "function"
    },
    {
      "inputs": [],
      "name": "imageLink",
      "outputs": [
        {
          "internalType": "string",
          "name": "",
          "type": "string"
        }
      ],
      "stateMutability": "view",
      "type": "function"
    },
    {
      "inputs": [],
      "name": "manager",
      "outputs": [
        {
          "internalType": "address",
          "name": "",
          "type": "address"
        }
      ],
      "stateMutability": "view",
      "type": "function"
    },
    {
      "inputs": [],
      "name": "noOfEducation",
      "outputs": [
        {
          "internalType": "uint256",
          "name": "",
          "type": "uint256"
        }
      ],
      "stateMutability": "view",
      "type": "function"
    },
    {
      "inputs": [],
      "name": "noOfExperience",
      "outputs": [
        {
          "internalType": "uint256",
          "name": "",
          "type": "uint256"
        }
      ],
      "stateMutability": "view",
      "type": "function"
    },
    {
      "inputs": [],
      "name": "noOfProjects",
      "outputs": [
        {
          "internalType": "uint256",
          "name": "",
          "type": "uint256"
        }
      ],
      "stateMutability": "view",
      "type": "function"
    },
    {
      "inputs": [],
      "name": "profile",
      "outputs": [
        {
          "internalType": "string",
          "name": "",
          "type": "string"
        }
      ],
      "stateMutability": "view",
      "type": "function"
    },
    {
      "inputs": [
        {
          "internalType": "uint256",
          "name": "",
          "type": "uint256"
        }
      ],
      "name": "projects",
      "outputs": [
        {
          "internalType": "uint256",
          "name": "index",
          "type": "uint256"
        },
        {
          "internalType": "string",
          "name": "title",
          "type": "string"
        },
        {
          "internalType": "string",
          "name": "githubLink",
          "type": "string"
        },
        {
          "internalType": "string",
          "name": "description",
          "type": "string"
        },
        {
          "internalType": "string",
          "name": "skillsAcquired",
          "type": "string"
        }
      ],
      "stateMutability": "view",
      "type": "function"
    },
    {
      "inputs": [],
      "name": "resumeLink",
      "outputs": [
        {
          "internalType": "string",
          "name": "",
          "type": "string"
        }
      ],
      "stateMutability": "view",
      "type": "function"
    }
  ],
  "bytecode": "0x60806040526040518060600160405280602e81526020016200508b602e9139600690816200002e919062000354565b506040518060c00160405280608e8152602001620050b9608e91396007908162000059919062000354565b506040518060600160405280602e81526020016200505d602e91396008908162000084919062000354565b503480156200009257600080fd5b5033600960006101000a81548173ffffffffffffffffffffffffffffffffffffffff021916908373ffffffffffffffffffffffffffffffffffffffff1602179055506200043b565b600081519050919050565b7f4e487b7100000000000000000000000000000000000000000000000000000000600052604160045260246000fd5b7f4e487b7100000000000000000000000000000000000000000000000000000000600052602260045260246000fd5b600060028204905060018216806200015c57607f821691505b60208210810362000172576200017162000114565b5b50919050565b60008190508160005260206000209050919050565b60006020601f8301049050919050565b600082821b905092915050565b600060088302620001dc7fffffffffffffffffffffffffffffffffffffffffffffffffffffffffffffffff826200019d565b620001e886836200019d565b95508019841693508086168417925050509392505050565b6000819050919050565b6000819050919050565b6000620002356200022f620002298462000200565b6200020a565b62000200565b9050919050565b6000819050919050565b620002518362000214565b6200026962000260826200023c565b848454620001aa565b825550505050565b600090565b6200028062000271565b6200028d81848462000246565b505050565b5b81811015620002b557620002a960008262000276565b60018101905062000293565b5050565b601f8211156200030457620002ce8162000178565b620002d9846200018d565b81016020851015620002e9578190505b62000301620002f8856200018d565b83018262000292565b50505b505050565b600082821c905092915050565b6000620003296000198460080262000309565b1980831691505092915050565b600062000344838362000316565b9150826002028217905092915050565b6200035f82620000da565b67ffffffffffffffff8111156200037b576200037a620000e5565b5b62000387825462000143565b62000394828285620002b9565b600060209050601f831160018114620003cc5760008415620003b7578287015190505b620003c3858262000336565b86555062000433565b601f198416620003dc8662000178565b60005b828110156200040657848901518255600182019150602085019450602081019050620003df565b8683101562000426578489015162000422601f89168262000316565b8355505b6001600288020188555050505b505050505050565b614c12806200044b6000396000f3fe60806040526004361061019c5760003560e01c80638c347c48116100ec578063caf7b7591161008a578063ed88c68e11610064578063ed88c68e146105c2578063ef2aeba2146105cc578063f0f3f2c8146105f5578063f96e32f8146106325761019c565b8063caf7b75914610513578063cf3e7c7c1461053e578063eaeac631146105805761019c565b8063a9c485da116100c6578063a9c485da14610459578063ab60636c14610482578063b1ca2106146104ad578063c95234ab146104ea5761019c565b80638c347c48146103da57806390c5e2b3146104055780639191b9421461042e5761019c565b806344cde30711610159578063597e473411610133578063597e4734146103325780635cea6a7c1461035b57806360cecb87146103865780638af4f98d146103af5761019c565b806344cde307146102b5578063481c6a75146102de578063482b390f146103095761019c565b8063107046bd146101a15780631f7155aa146101e25780632adf13b21461020b578063314c1e251461023657806336eea422146102615780633bbcca6f1461028c575b600080fd5b3480156101ad57600080fd5b506101c860048036038101906101c391906132fd565b61066f565b6040516101d99594939291906133c9565b60405180910390f35b3480156101ee57600080fd5b506102096004803603810190610204919061356d565b6108d5565b005b34801561021757600080fd5b50610220610978565b60405161022d9190613838565b60405180910390f35b34801561024257600080fd5b5061024b610d02565b604051610258919061385a565b60405180910390f35b34801561026d57600080fd5b50610276610d08565b60405161028391906139f6565b60405180910390f35b34801561029857600080fd5b506102b360048036038101906102ae9190613afe565b611124565b005b3480156102c157600080fd5b506102dc60048036038101906102d7919061356d565b611293565b005b3480156102ea57600080fd5b506102f3611336565b6040516103009190613c58565b60405180910390f35b34801561031557600080fd5b50610330600480360381019061032b919061356d565b61135c565b005b34801561033e57600080fd5b50610359600480360381019061035491906132fd565b6113ff565b005b34801561036757600080fd5b5061037061153e565b60405161037d9190613c73565b60405180910390f35b34801561039257600080fd5b506103ad60048036038101906103a89190613c95565b6115cc565b005b3480156103bb57600080fd5b506103c4611756565b6040516103d19190613f0f565b60405180910390f35b3480156103e657600080fd5b506103ef611a62565b6040516103fc919061385a565b60405180910390f35b34801561041157600080fd5b5061042c60048036038101906104279190613f31565b611a68565b005b34801561043a57600080fd5b50610443611bf6565b604051610450919061385a565b60405180910390f35b34801561046557600080fd5b50610480600480360381019061047b919061402e565b611bfc565b005b34801561048e57600080fd5b50610497611d88565b6040516104a49190613c73565b60405180910390f35b3480156104b957600080fd5b506104d460048036038101906104cf91906132fd565b611e16565b6040516104e19190614237565b60405180910390f35b3480156104f657600080fd5b50610511600480360381019061050c9190614259565b61220f565b005b34801561051f57600080fd5b50610528612383565b6040516105359190613c73565b60405180910390f35b34801561054a57600080fd5b50610565600480360381019061056091906132fd565b612411565b6040516105779695949392919061436b565b60405180910390f35b34801561058c57600080fd5b506105a760048036038101906105a291906132fd565b612705565b6040516105b9969594939291906143ef565b60405180910390f35b6105ca6128e9565b005b3480156105d857600080fd5b506105f360048036038101906105ee9190614465565b612932565b005b34801561060157600080fd5b5061061c600480360381019061061791906132fd565b612ad9565b604051610629919061463f565b60405180910390f35b34801561063e57600080fd5b50610659600480360381019061065491906132fd565b612e40565b6040516106669190614712565b60405180910390f35b6004818154811061067f57600080fd5b90600052602060002090600602016000915090508060000154908060010180546106a890614763565b80601f01602080910402602001604051908101604052809291908181526020018280546106d490614763565b80156107215780601f106106f657610100808354040283529160200191610721565b820191906000526020600020905b81548152906001019060200180831161070457829003601f168201915b50505050509080600201805461073690614763565b80601f016020809104026020016040519081016040528092919081815260200182805461076290614763565b80156107af5780601f10610784576101008083540402835291602001916107af565b820191906000526020600020905b81548152906001019060200180831161079257829003601f168201915b5050505050908060030180546107c490614763565b80601f01602080910402602001604051908101604052809291908181526020018280546107f090614763565b801561083d5780601f106108125761010080835404028352916020019161083d565b820191906000526020600020905b81548152906001019060200180831161082057829003601f168201915b50505050509080600401805461085290614763565b80601f016020809104026020016040519081016040528092919081815260200182805461087e90614763565b80156108cb5780601f106108a0576101008083540402835291602001916108cb565b820191906000526020600020905b8154815290600101906020018083116108ae57829003601f168201915b5050505050905085565b600960009054906101000a900473ffffffffffffffffffffffffffffffffffffffff1673ffffffffffffffffffffffffffffffffffffffff163373ffffffffffffffffffffffffffffffffffffffff1614610965576040517f08c379a000000000000000000000000000000000000000000000000000000000815260040161095c90614806565b60405180910390fd5b806008908161097491906149d2565b5050565b60606004805480602002602001604051908101604052809291908181526020016000905b82821015610cf957838290600052602060002090600602016040518060c0016040529081600082015481526020016001820180546109d990614763565b80601f0160208091040260200160405190810160405280929190818152602001828054610a0590614763565b8015610a525780601f10610a2757610100808354040283529160200191610a52565b820191906000526020600020905b815481529060010190602001808311610a3557829003601f168201915b50505050508152602001600282018054610a6b90614763565b80601f0160208091040260200160405190810160405280929190818152602001828054610a9790614763565b8015610ae45780601f10610ab957610100808354040283529160200191610ae4565b820191906000526020600020905b815481529060010190602001808311610ac757829003601f168201915b50505050508152602001600382018054610afd90614763565b80601f0160208091040260200160405190810160405280929190818152602001828054610b2990614763565b8015610b765780601f10610b4b57610100808354040283529160200191610b76565b820191906000526020600020905b815481529060010190602001808311610b5957829003601f168201915b50505050508152602001600482018054610b8f90614763565b80601f0160208091040260200160405190810160405280929190818152602001828054610bbb90614763565b8015610c085780601f10610bdd57610100808354040283529160200191610c08565b820191906000526020600020905b815481529060010190602001808311610beb57829003601f168201915b5050505050815260200160058201805480602002602001604051908101604052809291908181526020016000905b82821015610ce2578382906000526020600020018054610c5590614763565b80601f0160208091040260200160405190810160405280929190818152602001828054610c8190614763565b8015610cce5780601f10610ca357610100808354040283529160200191610cce565b820191906000526020600020905b815481529060010190602001808311610cb157829003601f168201915b505050505081526020019060010190610c36565b50505050815250508152602001906001019061099c565b50505050905090565b60015481565b60606003805480602002602001604051908101604052809291908181526020016000905b8282101561111b57838290600052602060002090600702016040518060e001604052908160008201548152602001600182018054610d6990614763565b80601f0160208091040260200160405190810160405280929190818152602001828054610d9590614763565b8015610de25780601f10610db757610100808354040283529160200191610de2565b820191906000526020600020905b815481529060010190602001808311610dc557829003601f168201915b50505050508152602001600282018054610dfb90614763565b80601f0160208091040260200160405190810160405280929190818152602001828054610e2790614763565b8015610e745780601f10610e4957610100808354040283529160200191610e74565b820191906000526020600020905b815481529060010190602001808311610e5757829003601f168201915b50505050508152602001600382018054610e8d90614763565b80601f0160208091040260200160405190810160405280929190818152602001828054610eb990614763565b8015610f065780601f10610edb57610100808354040283529160200191610f06565b820191906000526020600020905b815481529060010190602001808311610ee957829003601f168201915b50505050508152602001600482018054610f1f90614763565b80601f0160208091040260200160405190810160405280929190818152602001828054610f4b90614763565b8015610f985780601f10610f6d57610100808354040283529160200191610f98565b820191906000526020600020905b815481529060010190602001808311610f7b57829003601f168201915b5050505050815260200160058201805480602002602001604051908101604052809291908181526020016000905b82821015611072578382906000526020600020018054610fe590614763565b80601f016020809104026020016040519081016040528092919081815260200182805461101190614763565b801561105e5780601f106110335761010080835404028352916020019161105e565b820191906000526020600020905b81548152906001019060200180831161104157829003601f168201915b505050505081526020019060010190610fc6565b50505050815260200160068201805461108a90614763565b80601f01602080910402602001604051908101604052809291908181526020018280546110b690614763565b80156111035780601f106110d857610100808354040283529160200191611103565b820191906000526020600020905b8154815290600101906020018083116110e657829003601f168201915b50505050508152505081526020019060010190610d2c565b50505050905090565b600960009054906101000a900473ffffffffffffffffffffffffffffffffffffffff1673ffffffffffffffffffffffffffffffffffffffff163373ffffffffffffffffffffffffffffffffffffffff16146111b4576040517f08c379a00000000000000000000000000000000000000000000000000000000081526004016111ab90614806565b60405180910390fd5b60006040518060c0016040528088815260200187815260200186815260200185815260200184815260200183815250905080600488815481106111fa576111f9614aa4565b5b906000526020600020906006020160008201518160000155602082015181600101908161122791906149d2565b50604082015181600201908161123d91906149d2565b50606082015181600301908161125391906149d2565b50608082015181600401908161126991906149d2565b5060a0820151816005019080519060200190611286929190613129565b5090505050505050505050565b600960009054906101000a900473ffffffffffffffffffffffffffffffffffffffff1673ffffffffffffffffffffffffffffffffffffffff163373ffffffffffffffffffffffffffffffffffffffff1614611323576040517f08c379a000000000000000000000000000000000000000000000000000000000815260040161131a90614806565b60405180910390fd5b806006908161133291906149d2565b5050565b600960009054906101000a900473ffffffffffffffffffffffffffffffffffffffff1681565b600960009054906101000a900473ffffffffffffffffffffffffffffffffffffffff1673ffffffffffffffffffffffffffffffffffffffff163373ffffffffffffffffffffffffffffffffffffffff16146113ec576040517f08c379a00000000000000000000000000000000000000000000000000000000081526004016113e390614806565b60405180910390fd5b80600790816113fb91906149d2565b5050565b600960009054906101000a900473ffffffffffffffffffffffffffffffffffffffff1673ffffffffffffffffffffffffffffffffffffffff163373ffffffffffffffffffffffffffffffffffffffff161461148f576040517f08c379a000000000000000000000000000000000000000000000000000000000815260040161148690614806565b60405180910390fd5b804710156114d2576040517f08c379a00000000000000000000000000000000000000000000000000000000081526004016114c990614b45565b60405180910390fd5b600960009054906101000a900473ffffffffffffffffffffffffffffffffffffffff1673ffffffffffffffffffffffffffffffffffffffff166108fc829081150290604051600060405180830381858888f1935050505015801561153a573d6000803e3d6000fd5b5050565b6008805461154b90614763565b80601f016020809104026020016040519081016040528092919081815260200182805461157790614763565b80156115c45780601f10611599576101008083540402835291602001916115c4565b820191906000526020600020905b8154815290600101906020018083116115a757829003601f168201915b505050505081565b600960009054906101000a900473ffffffffffffffffffffffffffffffffffffffff1673ffffffffffffffffffffffffffffffffffffffff163373ffffffffffffffffffffffffffffffffffffffff161461165c576040517f08c379a000000000000000000000000000000000000000000000000000000000815260040161165390614806565b60405180910390fd5b60046040518060c0016040528060015481526020018781526020018681526020018581526020018481526020018381525090806001815401808255809150506001900390600052602060002090600602016000909190919091506000820151816000015560208201518160010190816116d591906149d2565b5060408201518160020190816116eb91906149d2565b50606082015181600301908161170191906149d2565b50608082015181600401908161171791906149d2565b5060a0820151816005019080519060200190611734929190613129565b5050506001600081548092919061174a90614b94565b91905055505050505050565b60606005805480602002602001604051908101604052809291908181526020016000905b82821015611a5957838290600052602060002090600702016040518060e0016040529081600082015481526020016001820180546117b790614763565b80601f01602080910402602001604051908101604052809291908181526020018280546117e390614763565b80156118305780601f1061180557610100808354040283529160200191611830565b820191906000526020600020905b81548152906001019060200180831161181357829003601f168201915b50505050508152602001600282015481526020016003820154815260200160048201805461185d90614763565b80601f016020809104026020016040519081016040528092919081815260200182805461188990614763565b80156118d65780601f106118ab576101008083540402835291602001916118d6565b820191906000526020600020905b8154815290600101906020018083116118b957829003601f168201915b5050505050815260200160058201805480602002602001604051908101604052809291908181526020016000905b828210156119b057838290600052602060002001805461192390614763565b80601f016020809104026020016040519081016040528092919081815260200182805461194f90614763565b801561199c5780601f106119715761010080835404028352916020019161199c565b820191906000526020600020905b81548152906001019060200180831161197f57829003601f168201915b505050505081526020019060010190611904565b5050505081526020016006820180546119c890614763565b80601f01602080910402602001604051908101604052809291908181526020018280546119f490614763565b8015611a415780601f10611a1657610100808354040283529160200191611a41565b820191906000526020600020905b815481529060010190602001808311611a2457829003601f168201915b5050505050815250508152602001906001019061177a565b50505050905090565b60005481565b600960009054906101000a900473ffffffffffffffffffffffffffffffffffffffff1673ffffffffffffffffffffffffffffffffffffffff163373ffffffffffffffffffffffffffffffffffffffff1614611af8576040517f08c379a0000000000000000000000000000000000000000000000000000000008152600401611aef90614806565b60405180910390fd5b60056040518060e001604052806000548152602001888152602001878152602001868152602001858152602001848152602001838152509080600181540180825580915050600190039060005260206000209060070201600090919091909150600082015181600001556020820151816001019081611b7791906149d2565b5060408201518160020155606082015181600301556080820151816004019081611ba191906149d2565b5060a0820151816005019080519060200190611bbe929190613129565b5060c0820151816006019081611bd491906149d2565b505050600080815480929190611be990614b94565b9190505550505050505050565b60025481565b600960009054906101000a900473ffffffffffffffffffffffffffffffffffffffff1673ffffffffffffffffffffffffffffffffffffffff163373ffffffffffffffffffffffffffffffffffffffff1614611c8c576040517f08c379a0000000000000000000000000000000000000000000000000000000008152600401611c8390614806565b60405180910390fd5b60006040518060e001604052808981526020018881526020018781526020018681526020018581526020018481526020018381525090508060038981548110611cd857611cd7614aa4565b5b9060005260206000209060070201600082015181600001556020820151816001019081611d0591906149d2565b506040820151816002019081611d1b91906149d2565b506060820151816003019081611d3191906149d2565b506080820151816004019081611d4791906149d2565b5060a0820151816005019080519060200190611d64929190613129565b5060c0820151816006019081611d7a91906149d2565b509050505050505050505050565b60078054611d9590614763565b80601f0160208091040260200160405190810160405280929190818152602001828054611dc190614763565b8015611e0e5780601f10611de357610100808354040283529160200191611e0e565b820191906000526020600020905b815481529060010190602001808311611df157829003601f168201915b505050505081565b611e1e613182565b60038281548110611e3257611e31614aa4565b5b90600052602060002090600702016040518060e001604052908160008201548152602001600182018054611e6590614763565b80601f0160208091040260200160405190810160405280929190818152602001828054611e9190614763565b8015611ede5780601f10611eb357610100808354040283529160200191611ede565b820191906000526020600020905b815481529060010190602001808311611ec157829003601f168201915b50505050508152602001600282018054611ef790614763565b80601f0160208091040260200160405190810160405280929190818152602001828054611f2390614763565b8015611f705780601f10611f4557610100808354040283529160200191611f70565b820191906000526020600020905b815481529060010190602001808311611f5357829003601f168201915b50505050508152602001600382018054611f8990614763565b80601f0160208091040260200160405190810160405280929190818152602001828054611fb590614763565b80156120025780601f10611fd757610100808354040283529160200191612002565b820191906000526020600020905b815481529060010190602001808311611fe557829003601f168201915b5050505050815260200160048201805461201b90614763565b80601f016020809104026020016040519081016040528092919081815260200182805461204790614763565b80156120945780601f1061206957610100808354040283529160200191612094565b820191906000526020600020905b81548152906001019060200180831161207757829003601f168201915b5050505050815260200160058201805480602002602001604051908101604052809291908181526020016000905b8282101561216e5783829060005260206000200180546120e190614763565b80601f016020809104026020016040519081016040528092919081815260200182805461210d90614763565b801561215a5780601f1061212f5761010080835404028352916020019161215a565b820191906000526020600020905b81548152906001019060200180831161213d57829003601f168201915b5050505050815260200190600101906120c2565b50505050815260200160068201805461218690614763565b80601f01602080910402602001604051908101604052809291908181526020018280546121b290614763565b80156121ff5780601f106121d4576101008083540402835291602001916121ff565b820191906000526020600020905b8154815290600101906020018083116121e257829003601f168201915b5050505050815250509050919050565b600960009054906101000a900473ffffffffffffffffffffffffffffffffffffffff1673ffffffffffffffffffffffffffffffffffffffff163373ffffffffffffffffffffffffffffffffffffffff161461229f576040517f08c379a000000000000000000000000000000000000000000000000000000000815260040161229690614806565b60405180910390fd5b60006040518060e0016040528089815260200188815260200187815260200186815260200185815260200184815260200183815250905080600589815481106122eb576122ea614aa4565b5b906000526020600020906007020160008201518160000155602082015181600101908161231891906149d2565b506040820151816002015560608201518160030155608082015181600401908161234291906149d2565b5060a082015181600501908051906020019061235f929190613129565b5060c082015181600601908161237591906149d2565b509050505050505050505050565b6006805461239090614763565b80601f01602080910402602001604051908101604052809291908181526020018280546123bc90614763565b80156124095780601f106123de57610100808354040283529160200191612409565b820191906000526020600020905b8154815290600101906020018083116123ec57829003601f168201915b505050505081565b6003818154811061242157600080fd5b906000526020600020906007020160009150905080600001549080600101805461244a90614763565b80601f016020809104026020016040519081016040528092919081815260200182805461247690614763565b80156124c35780601f10612498576101008083540402835291602001916124c3565b820191906000526020600020905b8154815290600101906020018083116124a657829003601f168201915b5050505050908060020180546124d890614763565b80601f016020809104026020016040519081016040528092919081815260200182805461250490614763565b80156125515780601f1061252657610100808354040283529160200191612551565b820191906000526020600020905b81548152906001019060200180831161253457829003601f168201915b50505050509080600301805461256690614763565b80601f016020809104026020016040519081016040528092919081815260200182805461259290614763565b80156125df5780601f106125b4576101008083540402835291602001916125df565b820191906000526020600020905b8154815290600101906020018083116125c257829003601f168201915b5050505050908060040180546125f490614763565b80601f016020809104026020016040519081016040528092919081815260200182805461262090614763565b801561266d5780601f106126425761010080835404028352916020019161266d565b820191906000526020600020905b81548152906001019060200180831161265057829003601f168201915b50505050509080600601805461268290614763565b80601f01602080910402602001604051908101604052809291908181526020018280546126ae90614763565b80156126fb5780601f106126d0576101008083540402835291602001916126fb565b820191906000526020600020905b8154815290600101906020018083116126de57829003601f168201915b5050505050905086565b6005818154811061271557600080fd5b906000526020600020906007020160009150905080600001549080600101805461273e90614763565b80601f016020809104026020016040519081016040528092919081815260200182805461276a90614763565b80156127b75780601f1061278c576101008083540402835291602001916127b7565b820191906000526020600020905b81548152906001019060200180831161279a57829003601f168201915b5050505050908060020154908060030154908060040180546127d890614763565b80601f016020809104026020016040519081016040528092919081815260200182805461280490614763565b80156128515780601f1061282657610100808354040283529160200191612851565b820191906000526020600020905b81548152906001019060200180831161283457829003601f168201915b50505050509080600601805461286690614763565b80601f016020809104026020016040519081016040528092919081815260200182805461289290614763565b80156128df5780601f106128b4576101008083540402835291602001916128df565b820191906000526020600020905b8154815290600101906020018083116128c257829003601f168201915b5050505050905086565b3073ffffffffffffffffffffffffffffffffffffffff166108fc349081150290604051600060405180830381858888f1935050505015801561292f573d6000803e3d6000fd5b50565b600960009054906101000a900473ffffffffffffffffffffffffffffffffffffffff1673ffffffffffffffffffffffffffffffffffffffff163373ffffffffffffffffffffffffffffffffffffffff16146129c2576040517f08c379a00000000000000000000000000000000000000000000000000000000081526004016129b990614806565b60405180910390fd5b60036040518060e001604052806002548152602001888152602001878152602001868152602001858152602001848152602001838152509080600181540180825580915050600190039060005260206000209060070201600090919091909150600082015181600001556020820151816001019081612a4191906149d2565b506040820151816002019081612a5791906149d2565b506060820151816003019081612a6d91906149d2565b506080820151816004019081612a8391906149d2565b5060a0820151816005019080519060200190612aa0929190613129565b5060c0820151816006019081612ab691906149d2565b50505060026000815480929190612acc90614b94565b9190505550505050505050565b612ae16131bf565b60048281548110612af557612af4614aa4565b5b90600052602060002090600602016040518060c001604052908160008201548152602001600182018054612b2890614763565b80601f0160208091040260200160405190810160405280929190818152602001828054612b5490614763565b8015612ba15780601f10612b7657610100808354040283529160200191612ba1565b820191906000526020600020905b815481529060010190602001808311612b8457829003601f168201915b50505050508152602001600282018054612bba90614763565b80601f0160208091040260200160405190810160405280929190818152602001828054612be690614763565b8015612c335780601f10612c0857610100808354040283529160200191612c33565b820191906000526020600020905b815481529060010190602001808311612c1657829003601f168201915b50505050508152602001600382018054612c4c90614763565b80601f0160208091040260200160405190810160405280929190818152602001828054612c7890614763565b8015612cc55780601f10612c9a57610100808354040283529160200191612cc5565b820191906000526020600020905b815481529060010190602001808311612ca857829003601f168201915b50505050508152602001600482018054612cde90614763565b80601f0160208091040260200160405190810160405280929190818152602001828054612d0a90614763565b8015612d575780601f10612d2c57610100808354040283529160200191612d57565b820191906000526020600020905b815481529060010190602001808311612d3a57829003601f168201915b5050505050815260200160058201805480602002602001604051908101604052809291908181526020016000905b82821015612e31578382906000526020600020018054612da490614763565b80601f0160208091040260200160405190810160405280929190818152602001828054612dd090614763565b8015612e1d5780601f10612df257610100808354040283529160200191612e1d565b820191906000526020600020905b815481529060010190602001808311612e0057829003601f168201915b505050505081526020019060010190612d85565b50505050815250509050919050565b612e486131f5565b60058281548110612e5c57612e5b614aa4565b5b90600052602060002090600702016040518060e001604052908160008201548152602001600182018054612e8f90614763565b80601f0160208091040260200160405190810160405280929190818152602001828054612ebb90614763565b8015612f085780601f10612edd57610100808354040283529160200191612f08565b820191906000526020600020905b815481529060010190602001808311612eeb57829003601f168201915b505050505081526020016002820154815260200160038201548152602001600482018054612f3590614763565b80601f0160208091040260200160405190810160405280929190818152602001828054612f6190614763565b8015612fae5780601f10612f8357610100808354040283529160200191612fae565b820191906000526020600020905b815481529060010190602001808311612f9157829003601f168201915b5050505050815260200160058201805480602002602001604051908101604052809291908181526020016000905b82821015613088578382906000526020600020018054612ffb90614763565b80601f016020809104026020016040519081016040528092919081815260200182805461302790614763565b80156130745780601f1061304957610100808354040283529160200191613074565b820191906000526020600020905b81548152906001019060200180831161305757829003601f168201915b505050505081526020019060010190612fdc565b5050505081526020016006820180546130a090614763565b80601f01602080910402602001604051908101604052809291908181526020018280546130cc90614763565b80156131195780601f106130ee57610100808354040283529160200191613119565b820191906000526020600020905b8154815290600101906020018083116130fc57829003601f168201915b5050505050815250509050919050565b828054828255906000526020600020908101928215613171579160200282015b8281111561317057825182908161316091906149d2565b5091602001919060010190613149565b5b50905061317e9190613232565b5090565b6040518060e00160405280600081526020016060815260200160608152602001606081526020016060815260200160608152602001606081525090565b6040518060c001604052806000815260200160608152602001606081526020016060815260200160608152602001606081525090565b6040518060e00160405280600081526020016060815260200160008152602001600081526020016060815260200160608152602001606081525090565b5b8082111561325257600081816132499190613256565b50600101613233565b5090565b50805461326290614763565b6000825580601f106132745750613293565b601f0160209004906000526020600020908101906132929190613296565b5b50565b5b808211156132af576000816000905550600101613297565b5090565b6000604051905090565b600080fd5b600080fd5b6000819050919050565b6132da816132c7565b81146132e557600080fd5b50565b6000813590506132f7816132d1565b92915050565b600060208284031215613313576133126132bd565b5b6000613321848285016132e8565b91505092915050565b613333816132c7565b82525050565b600081519050919050565b600082825260208201905092915050565b60005b83811015613373578082015181840152602081019050613358565b60008484015250505050565b6000601f19601f8301169050919050565b600061339b82613339565b6133a58185613344565b93506133b5818560208601613355565b6133be8161337f565b840191505092915050565b600060a0820190506133de600083018861332a565b81810360208301526133f08187613390565b905081810360408301526134048186613390565b905081810360608301526134188185613390565b9050818103608083015261342c8184613390565b90509695505050505050565b600080fd5b600080fd5b7f4e487b7100000000000000000000000000000000000000000000000000000000600052604160045260246000fd5b61347a8261337f565b810181811067ffffffffffffffff8211171561349957613498613442565b5b80604052505050565b60006134ac6132b3565b90506134b88282613471565b919050565b600067ffffffffffffffff8211156134d8576134d7613442565b5b6134e18261337f565b9050602081019050919050565b82818337600083830152505050565b600061351061350b846134bd565b6134a2565b90508281526020810184848401111561352c5761352b61343d565b5b6135378482856134ee565b509392505050565b600082601f83011261355457613553613438565b5b81356135648482602086016134fd565b91505092915050565b600060208284031215613583576135826132bd565b5b600082013567ffffffffffffffff8111156135a1576135a06132c2565b5b6135ad8482850161353f565b91505092915050565b600081519050919050565b600082825260208201905092915050565b6000819050602082019050919050565b6135eb816132c7565b82525050565b600082825260208201905092915050565b600061360d82613339565b61361781856135f1565b9350613627818560208601613355565b6136308161337f565b840191505092915050565b600081519050919050565b600082825260208201905092915050565b6000819050602082019050919050565b60006136738383613602565b905092915050565b6000602082019050919050565b60006136938261363b565b61369d8185613646565b9350836020820285016136af85613657565b8060005b858110156136eb57848403895281516136cc8582613667565b94506136d78361367b565b925060208a019950506001810190506136b3565b50829750879550505050505092915050565b600060c08301600083015161371560008601826135e2565b506020830151848203602086015261372d8282613602565b915050604083015184820360408601526137478282613602565b915050606083015184820360608601526137618282613602565b9150506080830151848203608086015261377b8282613602565b91505060a083015184820360a08601526137958282613688565b9150508091505092915050565b60006137ae83836136fd565b905092915050565b6000602082019050919050565b60006137ce826135b6565b6137d881856135c1565b9350836020820285016137ea856135d2565b8060005b85811015613826578484038952815161380785826137a2565b9450613812836137b6565b925060208a019950506001810190506137ee565b50829750879550505050505092915050565b6000602082019050818103600083015261385281846137c3565b905092915050565b600060208201905061386f600083018461332a565b92915050565b600081519050919050565b600082825260208201905092915050565b6000819050602082019050919050565b600060e0830160008301516138b960008601826135e2565b50602083015184820360208601526138d18282613602565b915050604083015184820360408601526138eb8282613602565b915050606083015184820360608601526139058282613602565b9150506080830151848203608086015261391f8282613602565b91505060a083015184820360a08601526139398282613688565b91505060c083015184820360c08601526139538282613602565b9150508091505092915050565b600061396c83836138a1565b905092915050565b6000602082019050919050565b600061398c82613875565b6139968185613880565b9350836020820285016139a885613891565b8060005b858110156139e457848403895281516139c58582613960565b94506139d083613974565b925060208a019950506001810190506139ac565b50829750879550505050505092915050565b60006020820190508181036000830152613a108184613981565b905092915050565b600067ffffffffffffffff821115613a3357613a32613442565b5b602082029050602081019050919050565b600080fd5b6000613a5c613a5784613a18565b6134a2565b90508083825260208201905060208402830185811115613a7f57613a7e613a44565b5b835b81811015613ac657803567ffffffffffffffff811115613aa457613aa3613438565b5b808601613ab1898261353f565b85526020850194505050602081019050613a81565b5050509392505050565b600082601f830112613ae557613ae4613438565b5b8135613af5848260208601613a49565b91505092915050565b60008060008060008060c08789031215613b1b57613b1a6132bd565b5b6000613b2989828a016132e8565b965050602087013567ffffffffffffffff811115613b4a57613b496132c2565b5b613b5689828a0161353f565b955050604087013567ffffffffffffffff811115613b7757613b766132c2565b5b613b8389828a0161353f565b945050606087013567ffffffffffffffff811115613ba457613ba36132c2565b5b613bb089828a0161353f565b935050608087013567ffffffffffffffff811115613bd157613bd06132c2565b5b613bdd89828a0161353f565b92505060a087013567ffffffffffffffff811115613bfe57613bfd6132c2565b5b613c0a89828a01613ad0565b9150509295509295509295565b600073ffffffffffffffffffffffffffffffffffffffff82169050919050565b6000613c4282613c17565b9050919050565b613c5281613c37565b82525050565b6000602082019050613c6d6000830184613c49565b92915050565b60006020820190508181036000830152613c8d8184613390565b905092915050565b600080600080600060a08688031215613cb157613cb06132bd565b5b600086013567ffffffffffffffff811115613ccf57613cce6132c2565b5b613cdb8882890161353f565b955050602086013567ffffffffffffffff811115613cfc57613cfb6132c2565b5b613d088882890161353f565b945050604086013567ffffffffffffffff811115613d2957613d286132c2565b5b613d358882890161353f565b935050606086013567ffffffffffffffff811115613d5657613d556132c2565b5b613d628882890161353f565b925050608086013567ffffffffffffffff811115613d8357613d826132c2565b5b613d8f88828901613ad0565b9150509295509295909350565b600081519050919050565b600082825260208201905092915050565b6000819050602082019050919050565b600060e083016000830151613de060008601826135e2565b5060208301518482036020860152613df88282613602565b9150506040830151613e0d60408601826135e2565b506060830151613e2060608601826135e2565b5060808301518482036080860152613e388282613602565b91505060a083015184820360a0860152613e528282613688565b91505060c083015184820360c0860152613e6c8282613602565b9150508091505092915050565b6000613e858383613dc8565b905092915050565b6000602082019050919050565b6000613ea582613d9c565b613eaf8185613da7565b935083602082028501613ec185613db8565b8060005b85811015613efd5784840389528151613ede8582613e79565b9450613ee983613e8d565b925060208a01995050600181019050613ec5565b50829750879550505050505092915050565b60006020820190508181036000830152613f298184613e9a565b905092915050565b60008060008060008060c08789031215613f4e57613f4d6132bd565b5b600087013567ffffffffffffffff811115613f6c57613f6b6132c2565b5b613f7889828a0161353f565b9650506020613f8989828a016132e8565b9550506040613f9a89828a016132e8565b945050606087013567ffffffffffffffff811115613fbb57613fba6132c2565b5b613fc789828a0161353f565b935050608087013567ffffffffffffffff811115613fe857613fe76132c2565b5b613ff489828a01613ad0565b92505060a087013567ffffffffffffffff811115614015576140146132c2565b5b61402189828a0161353f565b9150509295509295509295565b600080600080600080600060e0888a03121561404d5761404c6132bd565b5b600061405b8a828b016132e8565b975050602088013567ffffffffffffffff81111561407c5761407b6132c2565b5b6140888a828b0161353f565b965050604088013567ffffffffffffffff8111156140a9576140a86132c2565b5b6140b58a828b0161353f565b955050606088013567ffffffffffffffff8111156140d6576140d56132c2565b5b6140e28a828b0161353f565b945050608088013567ffffffffffffffff811115614103576141026132c2565b5b61410f8a828b0161353f565b93505060a088013567ffffffffffffffff8111156141305761412f6132c2565b5b61413c8a828b01613ad0565b92505060c088013567ffffffffffffffff81111561415d5761415c6132c2565b5b6141698a828b0161353f565b91505092959891949750929550565b600060e08301600083015161419060008601826135e2565b50602083015184820360208601526141a88282613602565b915050604083015184820360408601526141c28282613602565b915050606083015184820360608601526141dc8282613602565b915050608083015184820360808601526141f68282613602565b91505060a083015184820360a08601526142108282613688565b91505060c083015184820360c086015261422a8282613602565b9150508091505092915050565b600060208201905081810360008301526142518184614178565b905092915050565b600080600080600080600060e0888a031215614278576142776132bd565b5b60006142868a828b016132e8565b975050602088013567ffffffffffffffff8111156142a7576142a66132c2565b5b6142b38a828b0161353f565b96505060406142c48a828b016132e8565b95505060606142d58a828b016132e8565b945050608088013567ffffffffffffffff8111156142f6576142f56132c2565b5b6143028a828b0161353f565b93505060a088013567ffffffffffffffff811115614323576143226132c2565b5b61432f8a828b01613ad0565b92505060c088013567ffffffffffffffff8111156143505761434f6132c2565b5b61435c8a828b0161353f565b91505092959891949750929550565b600060c082019050614380600083018961332a565b81810360208301526143928188613390565b905081810360408301526143a68187613390565b905081810360608301526143ba8186613390565b905081810360808301526143ce8185613390565b905081810360a08301526143e28184613390565b9050979650505050505050565b600060c082019050614404600083018961332a565b81810360208301526144168188613390565b9050614425604083018761332a565b614432606083018661332a565b81810360808301526144448185613390565b905081810360a08301526144588184613390565b9050979650505050505050565b60008060008060008060c08789031215614482576144816132bd565b5b600087013567ffffffffffffffff8111156144a05761449f6132c2565b5b6144ac89828a0161353f565b965050602087013567ffffffffffffffff8111156144cd576144cc6132c2565b5b6144d989828a0161353f565b955050604087013567ffffffffffffffff8111156144fa576144f96132c2565b5b61450689828a0161353f565b945050606087013567ffffffffffffffff811115614527576145266132c2565b5b61453389828a0161353f565b935050608087013567ffffffffffffffff811115614554576145536132c2565b5b61456089828a01613ad0565b92505060a087013567ffffffffffffffff811115614581576145806132c2565b5b61458d89828a0161353f565b9150509295509295509295565b600060c0830160008301516145b260008601826135e2565b50602083015184820360208601526145ca8282613602565b915050604083015184820360408601526145e48282613602565b915050606083015184820360608601526145fe8282613602565b915050608083015184820360808601526146188282613602565b91505060a083015184820360a08601526146328282613688565b9150508091505092915050565b60006020820190508181036000830152614659818461459a565b905092915050565b600060e08301600083015161467960008601826135e2565b50602083015184820360208601526146918282613602565b91505060408301516146a660408601826135e2565b5060608301516146b960608601826135e2565b50608083015184820360808601526146d18282613602565b91505060a083015184820360a08601526146eb8282613688565b91505060c083015184820360c08601526147058282613602565b9150508091505092915050565b6000602082019050818103600083015261472c8184614661565b905092915050565b7f4e487b7100000000000000000000000000000000000000000000000000000000600052602260045260246000fd5b6000600282049050600182168061477b57607f821691505b60208210810361478e5761478d614734565b5b50919050565b7f4f6e6c79206d616e616765722063616e2063616c6c20746869732066756e637460008201527f696f6e0000000000000000000000000000000000000000000000000000000000602082015250565b60006147f0602383613344565b91506147fb82614794565b604082019050919050565b6000602082019050818103600083015261481f816147e3565b9050919050565b60008190508160005260206000209050919050565b60006020601f8301049050919050565b600082821b905092915050565b6000600883026148887fffffffffffffffffffffffffffffffffffffffffffffffffffffffffffffffff8261484b565b614892868361484b565b95508019841693508086168417925050509392505050565b6000819050919050565b60006148cf6148ca6148c5846132c7565b6148aa565b6132c7565b9050919050565b6000819050919050565b6148e9836148b4565b6148fd6148f5826148d6565b848454614858565b825550505050565b600090565b614912614905565b61491d8184846148e0565b505050565b5b818110156149415761493660008261490a565b600181019050614923565b5050565b601f8211156149865761495781614826565b6149608461483b565b8101602085101561496f578190505b61498361497b8561483b565b830182614922565b50505b505050565b600082821c905092915050565b60006149a96000198460080261498b565b1980831691505092915050565b60006149c28383614998565b9150826002028217905092915050565b6149db82613339565b67ffffffffffffffff8111156149f4576149f3613442565b5b6149fe8254614763565b614a09828285614945565b600060209050601f831160018114614a3c5760008415614a2a578287015190505b614a3485826149b6565b865550614a9c565b601f198416614a4a86614826565b60005b82811015614a7257848901518255600182019150602085019450602081019050614a4d565b86831015614a8f5784890151614a8b601f891682614998565b8355505b6001600288020188555050505b505050505050565b7f4e487b7100000000000000000000000000000000000000000000000000000000600052603260045260246000fd5b7f4e6f7420656e6f7567682062616c616e636520696e2074686520636f6e74726160008201527f6374000000000000000000000000000000000000000000000000000000000000602082015250565b6000614b2f602283613344565b9150614b3a82614ad3565b604082019050919050565b60006020820190508181036000830152614b5e81614b22565b9050919050565b7f4e487b7100000000000000000000000000000000000000000000000000000000600052601160045260246000fd5b6000614b9f826132c7565b91507fffffffffffffffffffffffffffffffffffffffffffffffffffffffffffffffff8203614bd157614bd0614b65565b5b60018201905091905056fea26469706673582212203ed28d2894fbefbc116440c4c38a43df419a7ae03184b87eb0abeb0036069e5364736f6c63430008180033516d5033665831483858535637786e5575586d7741614c61697a706277384e5237754a316248766131755a6e4268516d6265567232714439414a624453526339446258696456594c556f357779764d6e66536e4e376d5741513564666f7665722036206d6f6e746873206f662070726163746963616c20657870657269656e63652077697468206120676f6f64206b6e6f776c6564676520696e20626c6f636b636861696e20646576656c6f706d656e742e692068656c70207765623320636f6d6d756e69747920627920636f6e747269627574696e6720696e2074686520776562332073706163652e",
  "linkReferences": {},
  "deployedLinkReferences": {}
}