{
  "_format": "hh-sol-artifact-1",
  "contractName": "Portfolio",
  "sourceName": "contracts/Portfolio.sol",
  "abi": [
    {
      "inputs": [],
      "stateMutability": "nonpayable",
      "type": "constructor"
    },
    {
      "inputs": [
        {
          "internalType": "string",
          "name": "collegeName",
          "type": "string"
        },
        {
          "internalType": "string",
          "name": "startingYear",
          "type": "string"
        },
        {
          "internalType": "string",
          "name": "endYear",
          "type": "string"
        },
        {
          "internalType": "string",
          "name": "degree",
          "type": "string"
        },
        {
          "internalType": "string[]",
          "name": "skillsAcquired",
          "type": "string[]"
        },
        {
          "internalType": "string",
          "name": "description",
          "type": "string"
        }
      ],
      "name": "addEduction",
      "outputs": [],
      "stateMutability": "nonpayable",
      "type": "function"
    },
    {
      "inputs": [
        {
          "internalType": "string",
          "name": "companyName",
          "type": "string"
        },
        {
          "internalType": "string",
          "name": "position",
          "type": "string"
        },
        {
          "internalType": "string",
          "name": "startingTime",
          "type": "string"
        },
        {
          "internalType": "string",
          "name": "endTime",
          "type": "string"
        },
        {
          "internalType": "string[]",
          "name": "knowledgeAcquired",
          "type": "string[]"
        },
        {
          "internalType": "string",
          "name": "description",
          "type": "string"
        }
      ],
      "name": "addExperience",
      "outputs": [],
      "stateMutability": "nonpayable",
      "type": "function"
    },
    {
      "inputs": [
        {
          "internalType": "string",
          "name": "title",
          "type": "string"
        },
        {
          "internalType": "string",
          "name": "githubLink",
          "type": "string"
        },
        {
          "internalType": "string",
          "name": "description",
          "type": "string"
        },
        {
          "internalType": "string",
          "name": "skillsAcquired",
          "type": "string"
        },
        {
          "internalType": "string",
          "name": "linkLink",
          "type": "string"
        },
        {
          "internalType": "string[]",
          "name": "images",
          "type": "string[]"
        }
      ],
      "name": "addProject",
      "outputs": [],
      "stateMutability": "nonpayable",
      "type": "function"
    },
    {
      "inputs": [],
      "name": "allEductationDetails",
      "outputs": [
        {
          "components": [
            {
              "internalType": "uint256",
              "name": "index",
              "type": "uint256"
            },
            {
              "internalType": "string",
              "name": "collegeName",
              "type": "string"
            },
            {
              "internalType": "string",
              "name": "startingYear",
              "type": "string"
            },
            {
              "internalType": "string",
              "name": "endYear",
              "type": "string"
            },
            {
              "internalType": "string",
              "name": "degree",
              "type": "string"
            },
            {
              "internalType": "string[]",
              "name": "skillsAcquired",
              "type": "string[]"
            },
            {
              "internalType": "string",
              "name": "description",
              "type": "string"
            }
          ],
          "internalType": "struct Portfolio.Education[]",
          "name": "",
          "type": "tuple[]"
        }
      ],
      "stateMutability": "view",
      "type": "function"
    },
    {
      "inputs": [],
      "name": "allExperienceDetails",
      "outputs": [
        {
          "components": [
            {
              "internalType": "uint256",
              "name": "index",
              "type": "uint256"
            },
            {
              "internalType": "string",
              "name": "companyName",
              "type": "string"
            },
            {
              "internalType": "string",
              "name": "position",
              "type": "string"
            },
            {
              "internalType": "string",
              "name": "startingTime",
              "type": "string"
            },
            {
              "internalType": "string",
              "name": "endTime",
              "type": "string"
            },
            {
              "internalType": "string[]",
              "name": "knowledgeAcquired",
              "type": "string[]"
            },
            {
              "internalType": "string",
              "name": "description",
              "type": "string"
            }
          ],
          "internalType": "struct Portfolio.Experience[]",
          "name": "",
          "type": "tuple[]"
        }
      ],
      "stateMutability": "view",
      "type": "function"
    },
    {
      "inputs": [],
      "name": "allProjects",
      "outputs": [
        {
          "components": [
            {
              "internalType": "uint256",
              "name": "index",
              "type": "uint256"
            },
            {
              "internalType": "string",
              "name": "title",
              "type": "string"
            },
            {
              "internalType": "string",
              "name": "githubLink",
              "type": "string"
            },
            {
              "internalType": "string",
              "name": "description",
              "type": "string"
            },
            {
              "internalType": "string",
              "name": "skillsAcquired",
              "type": "string"
            },
            {
              "internalType": "string",
              "name": "liveLink",
              "type": "string"
            },
            {
              "internalType": "string[]",
              "name": "images",
              "type": "string[]"
            }
          ],
          "internalType": "struct Portfolio.Project[]",
          "name": "",
          "type": "tuple[]"
        }
      ],
      "stateMutability": "view",
      "type": "function"
    },
    {
      "inputs": [
        {
          "internalType": "string",
          "name": "_cid",
          "type": "string"
        }
      ],
      "name": "changeLink",
      "outputs": [],
      "stateMutability": "nonpayable",
      "type": "function"
    },
    {
      "inputs": [
        {
          "internalType": "string",
          "name": "_newProfile",
          "type": "string"
        }
      ],
      "name": "changeProfile",
      "outputs": [],
      "stateMutability": "nonpayable",
      "type": "function"
    },
    {
      "inputs": [
        {
          "internalType": "string",
          "name": "_cid",
          "type": "string"
        }
      ],
      "name": "changeResume",
      "outputs": [],
      "stateMutability": "nonpayable",
      "type": "function"
    },
    {
      "inputs": [
        {
          "internalType": "uint256",
          "name": "amount",
          "type": "uint256"
        }
      ],
      "name": "collectFunds",
      "outputs": [],
      "stateMutability": "nonpayable",
      "type": "function"
    },
    {
      "inputs": [],
      "name": "donate",
      "outputs": [],
      "stateMutability": "payable",
      "type": "function"
    },
    {
      "inputs": [
        {
          "internalType": "uint256",
          "name": "_i",
          "type": "uint256"
        },
        {
          "internalType": "string",
          "name": "collegeName",
          "type": "string"
        },
        {
          "internalType": "string",
          "name": "startingYear",
          "type": "string"
        },
        {
          "internalType": "string",
          "name": "endYear",
          "type": "string"
        },
        {
          "internalType": "string",
          "name": "degree",
          "type": "string"
        },
        {
          "internalType": "string[]",
          "name": "skillsAcquired",
          "type": "string[]"
        },
        {
          "internalType": "string",
          "name": "description",
          "type": "string"
        }
      ],
      "name": "editEducation",
      "outputs": [],
      "stateMutability": "nonpayable",
      "type": "function"
    },
    {
      "inputs": [
        {
          "internalType": "uint256",
          "name": "_i",
          "type": "uint256"
        },
        {
          "internalType": "string",
          "name": "companyName",
          "type": "string"
        },
        {
          "internalType": "string",
          "name": "position",
          "type": "string"
        },
        {
          "internalType": "string",
          "name": "startingTime",
          "type": "string"
        },
        {
          "internalType": "string",
          "name": "endTime",
          "type": "string"
        },
        {
          "internalType": "string[]",
          "name": "knowledgeAcquired",
          "type": "string[]"
        },
        {
          "internalType": "string",
          "name": "description",
          "type": "string"
        }
      ],
      "name": "editExperience",
      "outputs": [],
      "stateMutability": "nonpayable",
      "type": "function"
    },
    {
      "inputs": [
        {
          "internalType": "uint256",
          "name": "_i",
          "type": "uint256"
        },
        {
          "internalType": "string",
          "name": "title",
          "type": "string"
        },
        {
          "internalType": "string",
          "name": "githubLink",
          "type": "string"
        },
        {
          "internalType": "string",
          "name": "description",
          "type": "string"
        },
        {
          "internalType": "string",
          "name": "skillsAcquired",
          "type": "string"
        },
        {
          "internalType": "string",
          "name": "liveLink",
          "type": "string"
        },
        {
          "internalType": "string[]",
          "name": "images",
          "type": "string[]"
        }
      ],
      "name": "editProject",
      "outputs": [],
      "stateMutability": "nonpayable",
      "type": "function"
    },
    {
      "inputs": [
        {
          "internalType": "uint256",
          "name": "",
          "type": "uint256"
        }
      ],
      "name": "educations",
      "outputs": [
        {
          "internalType": "uint256",
          "name": "index",
          "type": "uint256"
        },
        {
          "internalType": "string",
          "name": "collegeName",
          "type": "string"
        },
        {
          "internalType": "string",
          "name": "startingYear",
          "type": "string"
        },
        {
          "internalType": "string",
          "name": "endYear",
          "type": "string"
        },
        {
          "internalType": "string",
          "name": "degree",
          "type": "string"
        },
        {
          "internalType": "string",
          "name": "description",
          "type": "string"
        }
      ],
      "stateMutability": "view",
      "type": "function"
    },
    {
      "inputs": [
        {
          "internalType": "uint256",
          "name": "",
          "type": "uint256"
        }
      ],
      "name": "experiences",
      "outputs": [
        {
          "internalType": "uint256",
          "name": "index",
          "type": "uint256"
        },
        {
          "internalType": "string",
          "name": "companyName",
          "type": "string"
        },
        {
          "internalType": "string",
          "name": "position",
          "type": "string"
        },
        {
          "internalType": "string",
          "name": "startingTime",
          "type": "string"
        },
        {
          "internalType": "string",
          "name": "endTime",
          "type": "string"
        },
        {
          "internalType": "string",
          "name": "description",
          "type": "string"
        }
      ],
      "stateMutability": "view",
      "type": "function"
    },
    {
      "inputs": [
        {
          "internalType": "uint256",
          "name": "_i",
          "type": "uint256"
        }
      ],
      "name": "getEducation",
      "outputs": [
        {
          "components": [
            {
              "internalType": "uint256",
              "name": "index",
              "type": "uint256"
            },
            {
              "internalType": "string",
              "name": "collegeName",
              "type": "string"
            },
            {
              "internalType": "string",
              "name": "startingYear",
              "type": "string"
            },
            {
              "internalType": "string",
              "name": "endYear",
              "type": "string"
            },
            {
              "internalType": "string",
              "name": "degree",
              "type": "string"
            },
            {
              "internalType": "string[]",
              "name": "skillsAcquired",
              "type": "string[]"
            },
            {
              "internalType": "string",
              "name": "description",
              "type": "string"
            }
          ],
          "internalType": "struct Portfolio.Education",
          "name": "",
          "type": "tuple"
        }
      ],
      "stateMutability": "view",
      "type": "function"
    },
    {
      "inputs": [
        {
          "internalType": "uint256",
          "name": "_i",
          "type": "uint256"
        }
      ],
      "name": "getExperience",
      "outputs": [
        {
          "components": [
            {
              "internalType": "uint256",
              "name": "index",
              "type": "uint256"
            },
            {
              "internalType": "string",
              "name": "companyName",
              "type": "string"
            },
            {
              "internalType": "string",
              "name": "position",
              "type": "string"
            },
            {
              "internalType": "string",
              "name": "startingTime",
              "type": "string"
            },
            {
              "internalType": "string",
              "name": "endTime",
              "type": "string"
            },
            {
              "internalType": "string[]",
              "name": "knowledgeAcquired",
              "type": "string[]"
            },
            {
              "internalType": "string",
              "name": "description",
              "type": "string"
            }
          ],
          "internalType": "struct Portfolio.Experience",
          "name": "",
          "type": "tuple"
        }
      ],
      "stateMutability": "view",
      "type": "function"
    },
    {
      "inputs": [
        {
          "internalType": "uint256",
          "name": "_i",
          "type": "uint256"
        }
      ],
      "name": "getProject",
      "outputs": [
        {
          "components": [
            {
              "internalType": "uint256",
              "name": "index",
              "type": "uint256"
            },
            {
              "internalType": "string",
              "name": "title",
              "type": "string"
            },
            {
              "internalType": "string",
              "name": "githubLink",
              "type": "string"
            },
            {
              "internalType": "string",
              "name": "description",
              "type": "string"
            },
            {
              "internalType": "string",
              "name": "skillsAcquired",
              "type": "string"
            },
            {
              "internalType": "string",
              "name": "liveLink",
              "type": "string"
            },
            {
              "internalType": "string[]",
              "name": "images",
              "type": "string[]"
            }
          ],
          "internalType": "struct Portfolio.Project",
          "name": "",
          "type": "tuple"
        }
      ],
      "stateMutability": "view",
      "type": "function"
    },
    {
      "inputs": [],
      "name": "imageLink",
      "outputs": [
        {
          "internalType": "string",
          "name": "",
          "type": "string"
        }
      ],
      "stateMutability": "view",
      "type": "function"
    },
    {
      "inputs": [],
      "name": "manager",
      "outputs": [
        {
          "internalType": "address",
          "name": "",
          "type": "address"
        }
      ],
      "stateMutability": "view",
      "type": "function"
    },
    {
      "inputs": [],
      "name": "noOfEducation",
      "outputs": [
        {
          "internalType": "uint256",
          "name": "",
          "type": "uint256"
        }
      ],
      "stateMutability": "view",
      "type": "function"
    },
    {
      "inputs": [],
      "name": "noOfExperience",
      "outputs": [
        {
          "internalType": "uint256",
          "name": "",
          "type": "uint256"
        }
      ],
      "stateMutability": "view",
      "type": "function"
    },
    {
      "inputs": [],
      "name": "noOfProjects",
      "outputs": [
        {
          "internalType": "uint256",
          "name": "",
          "type": "uint256"
        }
      ],
      "stateMutability": "view",
      "type": "function"
    },
    {
      "inputs": [],
      "name": "profile",
      "outputs": [
        {
          "internalType": "string",
          "name": "",
          "type": "string"
        }
      ],
      "stateMutability": "view",
      "type": "function"
    },
    {
      "inputs": [
        {
          "internalType": "uint256",
          "name": "",
          "type": "uint256"
        }
      ],
      "name": "projects",
      "outputs": [
        {
          "internalType": "uint256",
          "name": "index",
          "type": "uint256"
        },
        {
          "internalType": "string",
          "name": "title",
          "type": "string"
        },
        {
          "internalType": "string",
          "name": "githubLink",
          "type": "string"
        },
        {
          "internalType": "string",
          "name": "description",
          "type": "string"
        },
        {
          "internalType": "string",
          "name": "skillsAcquired",
          "type": "string"
        },
        {
          "internalType": "string",
          "name": "liveLink",
          "type": "string"
        }
      ],
      "stateMutability": "view",
      "type": "function"
    },
    {
      "inputs": [],
      "name": "resumeLink",
      "outputs": [
        {
          "internalType": "string",
          "name": "",
          "type": "string"
        }
      ],
      "stateMutability": "view",
      "type": "function"
    }
  ],
  "bytecode": "0x60806040526040518060600160405280602e815260200162005010602e91396006908051906020019062000035929190620000ef565b506040518060c00160405280608e81526020016200503e608e91396007908051906020019062000067929190620000ef565b506040518060600160405280602e815260200162004fe2602e91396008908051906020019062000099929190620000ef565b50348015620000a757600080fd5b5033600960006101000a81548173ffffffffffffffffffffffffffffffffffffffff021916908373ffffffffffffffffffffffffffffffffffffffff16021790555062000204565b828054620000fd906200019f565b90600052602060002090601f0160209004810192826200012157600085556200016d565b82601f106200013c57805160ff19168380011785556200016d565b828001600101855582156200016d579182015b828111156200016c5782518255916020019190600101906200014f565b5b5090506200017c919062000180565b5090565b5b808211156200019b57600081600090555060010162000181565b5090565b60006002820490506001821680620001b857607f821691505b60208210811415620001cf57620001ce620001d5565b5b50919050565b7f4e487b7100000000000000000000000000000000000000000000000000000000600052602260045260246000fd5b614dce80620002146000396000f3fe60806040526004361061019c5760003560e01c80635cea6a7c116100ec578063caf7b7591161008a578063ed88c68e11610064578063ed88c68e146105c3578063ef2aeba2146105cd578063f0f3f2c8146105f6578063f96e32f8146106335761019c565b8063caf7b75914610514578063cf3e7c7c1461053f578063eaeac631146105815761019c565b80639191b942116100c65780639191b94214610458578063a9c485da14610483578063ab60636c146104ac578063b1ca2106146104d75761019c565b80635cea6a7c146103d75780638af4f98d146104025780638c347c481461042d5761019c565b806336eea42211610159578063482b390f11610133578063482b390f146103335780634da950731461035c57806351acf15e14610385578063597e4734146103ae5761019c565b806336eea422146102b457806344cde307146102df578063481c6a75146103085761019c565b806309f3b845146101a1578063107046bd146101ca5780631f7155aa1461020c57806327b09002146102355780632adf13b21461025e578063314c1e2514610289575b600080fd5b3480156101ad57600080fd5b506101c860048036038101906101c39190613dff565b610670565b005b3480156101d657600080fd5b506101f160048036038101906101ec9190613dd6565b610845565b604051610203969594939291906149c8565b60405180910390f35b34801561021857600080fd5b50610233600480360381019061022e9190613b63565b610b39565b005b34801561024157600080fd5b5061025c60048036038101906102579190613cbd565b610be3565b005b34801561026a57600080fd5b50610273610dad565b60405161028091906148c3565b60405180910390f35b34801561029557600080fd5b5061029e6111c9565b6040516102ab91906149ad565b60405180910390f35b3480156102c057600080fd5b506102c96111cf565b6040516102d691906148a1565b60405180910390f35b3480156102eb57600080fd5b5061030660048036038101906103019190613b63565b6115eb565b005b34801561031457600080fd5b5061031d611695565b60405161032a9190614864565b60405180910390f35b34801561033f57600080fd5b5061035a60048036038101906103559190613b63565b6116bb565b005b34801561036857600080fd5b50610383600480360381019061037e9190613ba4565b611765565b005b34801561039157600080fd5b506103ac60048036038101906103a79190613f2d565b61192e565b005b3480156103ba57600080fd5b506103d560048036038101906103d09190613dd6565b611b03565b005b3480156103e357600080fd5b506103ec611c42565b6040516103f991906148e5565b60405180910390f35b34801561040e57600080fd5b50610417611cd0565b604051610424919061487f565b60405180910390f35b34801561043957600080fd5b506104426120ec565b60405161044f91906149ad565b60405180910390f35b34801561046457600080fd5b5061046d6120f2565b60405161047a91906149ad565b60405180910390f35b34801561048f57600080fd5b506104aa60048036038101906104a59190613dff565b6120f8565b005b3480156104b857600080fd5b506104c16122cd565b6040516104ce91906148e5565b60405180910390f35b3480156104e357600080fd5b506104fe60048036038101906104f99190613dd6565b61235b565b60405161050b9190614969565b60405180910390f35b34801561052057600080fd5b5061052961277a565b60405161053691906148e5565b60405180910390f35b34801561054b57600080fd5b5061056660048036038101906105619190613dd6565b612808565b604051610578969594939291906149c8565b60405180910390f35b34801561058d57600080fd5b506105a860048036038101906105a39190613dd6565b612afc565b6040516105ba969594939291906149c8565b60405180910390f35b6105cb612df0565b005b3480156105d957600080fd5b506105f460048036038101906105ef9190613ba4565b612e39565b005b34801561060257600080fd5b5061061d60048036038101906106189190613dd6565b613003565b60405161062a919061498b565b60405180910390f35b34801561063f57600080fd5b5061065a60048036038101906106559190613dd6565b613422565b6040516106679190614947565b60405180910390f35b600960009054906101000a900473ffffffffffffffffffffffffffffffffffffffff1673ffffffffffffffffffffffffffffffffffffffff163373ffffffffffffffffffffffffffffffffffffffff1614610700576040517f08c379a00000000000000000000000000000000000000000000000000000000081526004016106f790614907565b60405180910390fd5b60006040518060e001604052808981526020018881526020018781526020018681526020018581526020018481526020018381525090508060058981548110610772577f4e487b7100000000000000000000000000000000000000000000000000000000600052603260045260246000fd5b90600052602060002090600702016000820151816000015560208201518160010190805190602001906107a6929190613841565b5060408201518160020190805190602001906107c3929190613841565b5060608201518160030190805190602001906107e0929190613841565b5060808201518160040190805190602001906107fd929190613841565b5060a082015181600501908051906020019061081a9291906138c7565b5060c0820151816006019080519060200190610837929190613841565b509050505050505050505050565b6004818154811061085557600080fd5b906000526020600020906007020160009150905080600001549080600101805461087e90614c68565b80601f01602080910402602001604051908101604052809291908181526020018280546108aa90614c68565b80156108f75780601f106108cc576101008083540402835291602001916108f7565b820191906000526020600020905b8154815290600101906020018083116108da57829003601f168201915b50505050509080600201805461090c90614c68565b80601f016020809104026020016040519081016040528092919081815260200182805461093890614c68565b80156109855780601f1061095a57610100808354040283529160200191610985565b820191906000526020600020905b81548152906001019060200180831161096857829003601f168201915b50505050509080600301805461099a90614c68565b80601f01602080910402602001604051908101604052809291908181526020018280546109c690614c68565b8015610a135780601f106109e857610100808354040283529160200191610a13565b820191906000526020600020905b8154815290600101906020018083116109f657829003601f168201915b505050505090806004018054610a2890614c68565b80601f0160208091040260200160405190810160405280929190818152602001828054610a5490614c68565b8015610aa15780601f10610a7657610100808354040283529160200191610aa1565b820191906000526020600020905b815481529060010190602001808311610a8457829003601f168201915b505050505090806005018054610ab690614c68565b80601f0160208091040260200160405190810160405280929190818152602001828054610ae290614c68565b8015610b2f5780601f10610b0457610100808354040283529160200191610b2f565b820191906000526020600020905b815481529060010190602001808311610b1257829003601f168201915b5050505050905086565b600960009054906101000a900473ffffffffffffffffffffffffffffffffffffffff1673ffffffffffffffffffffffffffffffffffffffff163373ffffffffffffffffffffffffffffffffffffffff1614610bc9576040517f08c379a0000000000000000000000000000000000000000000000000000000008152600401610bc090614907565b60405180910390fd5b8060089080519060200190610bdf929190613841565b5050565b600960009054906101000a900473ffffffffffffffffffffffffffffffffffffffff1673ffffffffffffffffffffffffffffffffffffffff163373ffffffffffffffffffffffffffffffffffffffff1614610c73576040517f08c379a0000000000000000000000000000000000000000000000000000000008152600401610c6a90614907565b60405180910390fd5b60046040518060e001604052806001548152602001888152602001878152602001868152602001858152602001848152602001838152509080600181540180825580915050600190039060005260206000209060070201600090919091909150600082015181600001556020820151816001019080519060200190610cf9929190613841565b506040820151816002019080519060200190610d16929190613841565b506060820151816003019080519060200190610d33929190613841565b506080820151816004019080519060200190610d50929190613841565b5060a0820151816005019080519060200190610d6d929190613841565b5060c0820151816006019080519060200190610d8a9291906138c7565b50505060016000815480929190610da090614c9a565b9190505550505050505050565b60606004805480602002602001604051908101604052809291908181526020016000905b828210156111c057838290600052602060002090600702016040518060e001604052908160008201548152602001600182018054610e0e90614c68565b80601f0160208091040260200160405190810160405280929190818152602001828054610e3a90614c68565b8015610e875780601f10610e5c57610100808354040283529160200191610e87565b820191906000526020600020905b815481529060010190602001808311610e6a57829003601f168201915b50505050508152602001600282018054610ea090614c68565b80601f0160208091040260200160405190810160405280929190818152602001828054610ecc90614c68565b8015610f195780601f10610eee57610100808354040283529160200191610f19565b820191906000526020600020905b815481529060010190602001808311610efc57829003601f168201915b50505050508152602001600382018054610f3290614c68565b80601f0160208091040260200160405190810160405280929190818152602001828054610f5e90614c68565b8015610fab5780601f10610f8057610100808354040283529160200191610fab565b820191906000526020600020905b815481529060010190602001808311610f8e57829003601f168201915b50505050508152602001600482018054610fc490614c68565b80601f0160208091040260200160405190810160405280929190818152602001828054610ff090614c68565b801561103d5780601f106110125761010080835404028352916020019161103d565b820191906000526020600020905b81548152906001019060200180831161102057829003601f168201915b5050505050815260200160058201805461105690614c68565b80601f016020809104026020016040519081016040528092919081815260200182805461108290614c68565b80156110cf5780601f106110a4576101008083540402835291602001916110cf565b820191906000526020600020905b8154815290600101906020018083116110b257829003601f168201915b5050505050815260200160068201805480602002602001604051908101604052809291908181526020016000905b828210156111a957838290600052602060002001805461111c90614c68565b80601f016020809104026020016040519081016040528092919081815260200182805461114890614c68565b80156111955780601f1061116a57610100808354040283529160200191611195565b820191906000526020600020905b81548152906001019060200180831161117857829003601f168201915b5050505050815260200190600101906110fd565b505050508152505081526020019060010190610dd1565b50505050905090565b60015481565b60606003805480602002602001604051908101604052809291908181526020016000905b828210156115e257838290600052602060002090600702016040518060e00160405290816000820154815260200160018201805461123090614c68565b80601f016020809104026020016040519081016040528092919081815260200182805461125c90614c68565b80156112a95780601f1061127e576101008083540402835291602001916112a9565b820191906000526020600020905b81548152906001019060200180831161128c57829003601f168201915b505050505081526020016002820180546112c290614c68565b80601f01602080910402602001604051908101604052809291908181526020018280546112ee90614c68565b801561133b5780601f106113105761010080835404028352916020019161133b565b820191906000526020600020905b81548152906001019060200180831161131e57829003601f168201915b5050505050815260200160038201805461135490614c68565b80601f016020809104026020016040519081016040528092919081815260200182805461138090614c68565b80156113cd5780601f106113a2576101008083540402835291602001916113cd565b820191906000526020600020905b8154815290600101906020018083116113b057829003601f168201915b505050505081526020016004820180546113e690614c68565b80601f016020809104026020016040519081016040528092919081815260200182805461141290614c68565b801561145f5780601f106114345761010080835404028352916020019161145f565b820191906000526020600020905b81548152906001019060200180831161144257829003601f168201915b5050505050815260200160058201805480602002602001604051908101604052809291908181526020016000905b828210156115395783829060005260206000200180546114ac90614c68565b80601f01602080910402602001604051908101604052809291908181526020018280546114d890614c68565b80156115255780601f106114fa57610100808354040283529160200191611525565b820191906000526020600020905b81548152906001019060200180831161150857829003601f168201915b50505050508152602001906001019061148d565b50505050815260200160068201805461155190614c68565b80601f016020809104026020016040519081016040528092919081815260200182805461157d90614c68565b80156115ca5780601f1061159f576101008083540402835291602001916115ca565b820191906000526020600020905b8154815290600101906020018083116115ad57829003601f168201915b505050505081525050815260200190600101906111f3565b50505050905090565b600960009054906101000a900473ffffffffffffffffffffffffffffffffffffffff1673ffffffffffffffffffffffffffffffffffffffff163373ffffffffffffffffffffffffffffffffffffffff161461167b576040517f08c379a000000000000000000000000000000000000000000000000000000000815260040161167290614907565b60405180910390fd5b8060069080519060200190611691929190613841565b5050565b600960009054906101000a900473ffffffffffffffffffffffffffffffffffffffff1681565b600960009054906101000a900473ffffffffffffffffffffffffffffffffffffffff1673ffffffffffffffffffffffffffffffffffffffff163373ffffffffffffffffffffffffffffffffffffffff161461174b576040517f08c379a000000000000000000000000000000000000000000000000000000000815260040161174290614907565b60405180910390fd5b8060079080519060200190611761929190613841565b5050565b600960009054906101000a900473ffffffffffffffffffffffffffffffffffffffff1673ffffffffffffffffffffffffffffffffffffffff163373ffffffffffffffffffffffffffffffffffffffff16146117f5576040517f08c379a00000000000000000000000000000000000000000000000000000000081526004016117ec90614907565b60405180910390fd5b60056040518060e00160405280600054815260200188815260200187815260200186815260200185815260200184815260200183815250908060018154018082558091505060019003906000526020600020906007020160009091909190915060008201518160000155602082015181600101908051906020019061187b929190613841565b506040820151816002019080519060200190611898929190613841565b5060608201518160030190805190602001906118b5929190613841565b5060808201518160040190805190602001906118d2929190613841565b5060a08201518160050190805190602001906118ef9291906138c7565b5060c082015181600601908051906020019061190c929190613841565b50505060008081548092919061192190614c9a565b9190505550505050505050565b600960009054906101000a900473ffffffffffffffffffffffffffffffffffffffff1673ffffffffffffffffffffffffffffffffffffffff163373ffffffffffffffffffffffffffffffffffffffff16146119be576040517f08c379a00000000000000000000000000000000000000000000000000000000081526004016119b590614907565b60405180910390fd5b60006040518060e001604052808981526020018881526020018781526020018681526020018581526020018481526020018381525090508060048981548110611a30577f4e487b7100000000000000000000000000000000000000000000000000000000600052603260045260246000fd5b9060005260206000209060070201600082015181600001556020820151816001019080519060200190611a64929190613841565b506040820151816002019080519060200190611a81929190613841565b506060820151816003019080519060200190611a9e929190613841565b506080820151816004019080519060200190611abb929190613841565b5060a0820151816005019080519060200190611ad8929190613841565b5060c0820151816006019080519060200190611af59291906138c7565b509050505050505050505050565b600960009054906101000a900473ffffffffffffffffffffffffffffffffffffffff1673ffffffffffffffffffffffffffffffffffffffff163373ffffffffffffffffffffffffffffffffffffffff1614611b93576040517f08c379a0000000000000000000000000000000000000000000000000000000008152600401611b8a90614907565b60405180910390fd5b80471015611bd6576040517f08c379a0000000000000000000000000000000000000000000000000000000008152600401611bcd90614927565b60405180910390fd5b600960009054906101000a900473ffffffffffffffffffffffffffffffffffffffff1673ffffffffffffffffffffffffffffffffffffffff166108fc829081150290604051600060405180830381858888f19350505050158015611c3e573d6000803e3d6000fd5b5050565b60088054611c4f90614c68565b80601f0160208091040260200160405190810160405280929190818152602001828054611c7b90614c68565b8015611cc85780601f10611c9d57610100808354040283529160200191611cc8565b820191906000526020600020905b815481529060010190602001808311611cab57829003601f168201915b505050505081565b60606005805480602002602001604051908101604052809291908181526020016000905b828210156120e357838290600052602060002090600702016040518060e001604052908160008201548152602001600182018054611d3190614c68565b80601f0160208091040260200160405190810160405280929190818152602001828054611d5d90614c68565b8015611daa5780601f10611d7f57610100808354040283529160200191611daa565b820191906000526020600020905b815481529060010190602001808311611d8d57829003601f168201915b50505050508152602001600282018054611dc390614c68565b80601f0160208091040260200160405190810160405280929190818152602001828054611def90614c68565b8015611e3c5780601f10611e1157610100808354040283529160200191611e3c565b820191906000526020600020905b815481529060010190602001808311611e1f57829003601f168201915b50505050508152602001600382018054611e5590614c68565b80601f0160208091040260200160405190810160405280929190818152602001828054611e8190614c68565b8015611ece5780601f10611ea357610100808354040283529160200191611ece565b820191906000526020600020905b815481529060010190602001808311611eb157829003601f168201915b50505050508152602001600482018054611ee790614c68565b80601f0160208091040260200160405190810160405280929190818152602001828054611f1390614c68565b8015611f605780601f10611f3557610100808354040283529160200191611f60565b820191906000526020600020905b815481529060010190602001808311611f4357829003601f168201915b5050505050815260200160058201805480602002602001604051908101604052809291908181526020016000905b8282101561203a578382906000526020600020018054611fad90614c68565b80601f0160208091040260200160405190810160405280929190818152602001828054611fd990614c68565b80156120265780601f10611ffb57610100808354040283529160200191612026565b820191906000526020600020905b81548152906001019060200180831161200957829003601f168201915b505050505081526020019060010190611f8e565b50505050815260200160068201805461205290614c68565b80601f016020809104026020016040519081016040528092919081815260200182805461207e90614c68565b80156120cb5780601f106120a0576101008083540402835291602001916120cb565b820191906000526020600020905b8154815290600101906020018083116120ae57829003601f168201915b50505050508152505081526020019060010190611cf4565b50505050905090565b60005481565b60025481565b600960009054906101000a900473ffffffffffffffffffffffffffffffffffffffff1673ffffffffffffffffffffffffffffffffffffffff163373ffffffffffffffffffffffffffffffffffffffff1614612188576040517f08c379a000000000000000000000000000000000000000000000000000000000815260040161217f90614907565b60405180910390fd5b60006040518060e0016040528089815260200188815260200187815260200186815260200185815260200184815260200183815250905080600389815481106121fa577f4e487b7100000000000000000000000000000000000000000000000000000000600052603260045260246000fd5b906000526020600020906007020160008201518160000155602082015181600101908051906020019061222e929190613841565b50604082015181600201908051906020019061224b929190613841565b506060820151816003019080519060200190612268929190613841565b506080820151816004019080519060200190612285929190613841565b5060a08201518160050190805190602001906122a29291906138c7565b5060c08201518160060190805190602001906122bf929190613841565b509050505050505050505050565b600780546122da90614c68565b80601f016020809104026020016040519081016040528092919081815260200182805461230690614c68565b80156123535780601f1061232857610100808354040283529160200191612353565b820191906000526020600020905b81548152906001019060200180831161233657829003601f168201915b505050505081565b612363613927565b6003828154811061239d577f4e487b7100000000000000000000000000000000000000000000000000000000600052603260045260246000fd5b90600052602060002090600702016040518060e0016040529081600082015481526020016001820180546123d090614c68565b80601f01602080910402602001604051908101604052809291908181526020018280546123fc90614c68565b80156124495780601f1061241e57610100808354040283529160200191612449565b820191906000526020600020905b81548152906001019060200180831161242c57829003601f168201915b5050505050815260200160028201805461246290614c68565b80601f016020809104026020016040519081016040528092919081815260200182805461248e90614c68565b80156124db5780601f106124b0576101008083540402835291602001916124db565b820191906000526020600020905b8154815290600101906020018083116124be57829003601f168201915b505050505081526020016003820180546124f490614c68565b80601f016020809104026020016040519081016040528092919081815260200182805461252090614c68565b801561256d5780601f106125425761010080835404028352916020019161256d565b820191906000526020600020905b81548152906001019060200180831161255057829003601f168201915b5050505050815260200160048201805461258690614c68565b80601f01602080910402602001604051908101604052809291908181526020018280546125b290614c68565b80156125ff5780601f106125d4576101008083540402835291602001916125ff565b820191906000526020600020905b8154815290600101906020018083116125e257829003601f168201915b5050505050815260200160058201805480602002602001604051908101604052809291908181526020016000905b828210156126d957838290600052602060002001805461264c90614c68565b80601f016020809104026020016040519081016040528092919081815260200182805461267890614c68565b80156126c55780601f1061269a576101008083540402835291602001916126c5565b820191906000526020600020905b8154815290600101906020018083116126a857829003601f168201915b50505050508152602001906001019061262d565b5050505081526020016006820180546126f190614c68565b80601f016020809104026020016040519081016040528092919081815260200182805461271d90614c68565b801561276a5780601f1061273f5761010080835404028352916020019161276a565b820191906000526020600020905b81548152906001019060200180831161274d57829003601f168201915b5050505050815250509050919050565b6006805461278790614c68565b80601f01602080910402602001604051908101604052809291908181526020018280546127b390614c68565b80156128005780601f106127d557610100808354040283529160200191612800565b820191906000526020600020905b8154815290600101906020018083116127e357829003601f168201915b505050505081565b6003818154811061281857600080fd5b906000526020600020906007020160009150905080600001549080600101805461284190614c68565b80601f016020809104026020016040519081016040528092919081815260200182805461286d90614c68565b80156128ba5780601f1061288f576101008083540402835291602001916128ba565b820191906000526020600020905b81548152906001019060200180831161289d57829003601f168201915b5050505050908060020180546128cf90614c68565b80601f01602080910402602001604051908101604052809291908181526020018280546128fb90614c68565b80156129485780601f1061291d57610100808354040283529160200191612948565b820191906000526020600020905b81548152906001019060200180831161292b57829003601f168201915b50505050509080600301805461295d90614c68565b80601f016020809104026020016040519081016040528092919081815260200182805461298990614c68565b80156129d65780601f106129ab576101008083540402835291602001916129d6565b820191906000526020600020905b8154815290600101906020018083116129b957829003601f168201915b5050505050908060040180546129eb90614c68565b80601f0160208091040260200160405190810160405280929190818152602001828054612a1790614c68565b8015612a645780601f10612a3957610100808354040283529160200191612a64565b820191906000526020600020905b815481529060010190602001808311612a4757829003601f168201915b505050505090806006018054612a7990614c68565b80601f0160208091040260200160405190810160405280929190818152602001828054612aa590614c68565b8015612af25780601f10612ac757610100808354040283529160200191612af2565b820191906000526020600020905b815481529060010190602001808311612ad557829003601f168201915b5050505050905086565b60058181548110612b0c57600080fd5b9060005260206000209060070201600091509050806000015490806001018054612b3590614c68565b80601f0160208091040260200160405190810160405280929190818152602001828054612b6190614c68565b8015612bae5780601f10612b8357610100808354040283529160200191612bae565b820191906000526020600020905b815481529060010190602001808311612b9157829003601f168201915b505050505090806002018054612bc390614c68565b80601f0160208091040260200160405190810160405280929190818152602001828054612bef90614c68565b8015612c3c5780601f10612c1157610100808354040283529160200191612c3c565b820191906000526020600020905b815481529060010190602001808311612c1f57829003601f168201915b505050505090806003018054612c5190614c68565b80601f0160208091040260200160405190810160405280929190818152602001828054612c7d90614c68565b8015612cca5780601f10612c9f57610100808354040283529160200191612cca565b820191906000526020600020905b815481529060010190602001808311612cad57829003601f168201915b505050505090806004018054612cdf90614c68565b80601f0160208091040260200160405190810160405280929190818152602001828054612d0b90614c68565b8015612d585780601f10612d2d57610100808354040283529160200191612d58565b820191906000526020600020905b815481529060010190602001808311612d3b57829003601f168201915b505050505090806006018054612d6d90614c68565b80601f0160208091040260200160405190810160405280929190818152602001828054612d9990614c68565b8015612de65780601f10612dbb57610100808354040283529160200191612de6565b820191906000526020600020905b815481529060010190602001808311612dc957829003601f168201915b5050505050905086565b3073ffffffffffffffffffffffffffffffffffffffff166108fc349081150290604051600060405180830381858888f19350505050158015612e36573d6000803e3d6000fd5b50565b600960009054906101000a900473ffffffffffffffffffffffffffffffffffffffff1673ffffffffffffffffffffffffffffffffffffffff163373ffffffffffffffffffffffffffffffffffffffff1614612ec9576040517f08c379a0000000000000000000000000000000000000000000000000000000008152600401612ec090614907565b60405180910390fd5b60036040518060e001604052806002548152602001888152602001878152602001868152602001858152602001848152602001838152509080600181540180825580915050600190039060005260206000209060070201600090919091909150600082015181600001556020820151816001019080519060200190612f4f929190613841565b506040820151816002019080519060200190612f6c929190613841565b506060820151816003019080519060200190612f89929190613841565b506080820151816004019080519060200190612fa6929190613841565b5060a0820151816005019080519060200190612fc39291906138c7565b5060c0820151816006019080519060200190612fe0929190613841565b50505060026000815480929190612ff690614c9a565b9190505550505050505050565b61300b613964565b60048281548110613045577f4e487b7100000000000000000000000000000000000000000000000000000000600052603260045260246000fd5b90600052602060002090600702016040518060e00160405290816000820154815260200160018201805461307890614c68565b80601f01602080910402602001604051908101604052809291908181526020018280546130a490614c68565b80156130f15780601f106130c6576101008083540402835291602001916130f1565b820191906000526020600020905b8154815290600101906020018083116130d457829003601f168201915b5050505050815260200160028201805461310a90614c68565b80601f016020809104026020016040519081016040528092919081815260200182805461313690614c68565b80156131835780601f1061315857610100808354040283529160200191613183565b820191906000526020600020905b81548152906001019060200180831161316657829003601f168201915b5050505050815260200160038201805461319c90614c68565b80601f01602080910402602001604051908101604052809291908181526020018280546131c890614c68565b80156132155780601f106131ea57610100808354040283529160200191613215565b820191906000526020600020905b8154815290600101906020018083116131f857829003601f168201915b5050505050815260200160048201805461322e90614c68565b80601f016020809104026020016040519081016040528092919081815260200182805461325a90614c68565b80156132a75780601f1061327c576101008083540402835291602001916132a7565b820191906000526020600020905b81548152906001019060200180831161328a57829003601f168201915b505050505081526020016005820180546132c090614c68565b80601f01602080910402602001604051908101604052809291908181526020018280546132ec90614c68565b80156133395780601f1061330e57610100808354040283529160200191613339565b820191906000526020600020905b81548152906001019060200180831161331c57829003601f168201915b5050505050815260200160068201805480602002602001604051908101604052809291908181526020016000905b8282101561341357838290600052602060002001805461338690614c68565b80601f01602080910402602001604051908101604052809291908181526020018280546133b290614c68565b80156133ff5780601f106133d4576101008083540402835291602001916133ff565b820191906000526020600020905b8154815290600101906020018083116133e257829003601f168201915b505050505081526020019060010190613367565b50505050815250509050919050565b61342a6139a1565b60058281548110613464577f4e487b7100000000000000000000000000000000000000000000000000000000600052603260045260246000fd5b90600052602060002090600702016040518060e00160405290816000820154815260200160018201805461349790614c68565b80601f01602080910402602001604051908101604052809291908181526020018280546134c390614c68565b80156135105780601f106134e557610100808354040283529160200191613510565b820191906000526020600020905b8154815290600101906020018083116134f357829003601f168201915b5050505050815260200160028201805461352990614c68565b80601f016020809104026020016040519081016040528092919081815260200182805461355590614c68565b80156135a25780601f10613577576101008083540402835291602001916135a2565b820191906000526020600020905b81548152906001019060200180831161358557829003601f168201915b505050505081526020016003820180546135bb90614c68565b80601f01602080910402602001604051908101604052809291908181526020018280546135e790614c68565b80156136345780601f1061360957610100808354040283529160200191613634565b820191906000526020600020905b81548152906001019060200180831161361757829003601f168201915b5050505050815260200160048201805461364d90614c68565b80601f016020809104026020016040519081016040528092919081815260200182805461367990614c68565b80156136c65780601f1061369b576101008083540402835291602001916136c6565b820191906000526020600020905b8154815290600101906020018083116136a957829003601f168201915b5050505050815260200160058201805480602002602001604051908101604052809291908181526020016000905b828210156137a057838290600052602060002001805461371390614c68565b80601f016020809104026020016040519081016040528092919081815260200182805461373f90614c68565b801561378c5780601f106137615761010080835404028352916020019161378c565b820191906000526020600020905b81548152906001019060200180831161376f57829003601f168201915b5050505050815260200190600101906136f4565b5050505081526020016006820180546137b890614c68565b80601f01602080910402602001604051908101604052809291908181526020018280546137e490614c68565b80156138315780601f1061380657610100808354040283529160200191613831565b820191906000526020600020905b81548152906001019060200180831161381457829003601f168201915b5050505050815250509050919050565b82805461384d90614c68565b90600052602060002090601f01602090048101928261386f57600085556138b6565b82601f1061388857805160ff19168380011785556138b6565b828001600101855582156138b6579182015b828111156138b557825182559160200191906001019061389a565b5b5090506138c391906139de565b5090565b828054828255906000526020600020908101928215613916579160200282015b82811115613915578251829080519060200190613905929190613841565b50916020019190600101906138e7565b5b50905061392391906139fb565b5090565b6040518060e00160405280600081526020016060815260200160608152602001606081526020016060815260200160608152602001606081525090565b6040518060e00160405280600081526020016060815260200160608152602001606081526020016060815260200160608152602001606081525090565b6040518060e00160405280600081526020016060815260200160608152602001606081526020016060815260200160608152602001606081525090565b5b808211156139f75760008160009055506001016139df565b5090565b5b80821115613a1b5760008181613a129190613a1f565b506001016139fc565b5090565b508054613a2b90614c68565b6000825580601f10613a3d5750613a5c565b601f016020900490600052602060002090810190613a5b91906139de565b5b50565b6000613a72613a6d84614a7d565b614a4c565b9050808382526020820190508260005b85811015613ab25781358501613a988882613b24565b845260208401935060208301925050600181019050613a82565b5050509392505050565b6000613acf613aca84614aa9565b614a4c565b905082815260208101848484011115613ae757600080fd5b613af2848285614c26565b509392505050565b600082601f830112613b0b57600080fd5b8135613b1b848260208601613a5f565b91505092915050565b600082601f830112613b3557600080fd5b8135613b45848260208601613abc565b91505092915050565b600081359050613b5d81614d81565b92915050565b600060208284031215613b7557600080fd5b600082013567ffffffffffffffff811115613b8f57600080fd5b613b9b84828501613b24565b91505092915050565b60008060008060008060c08789031215613bbd57600080fd5b600087013567ffffffffffffffff811115613bd757600080fd5b613be389828a01613b24565b965050602087013567ffffffffffffffff811115613c0057600080fd5b613c0c89828a01613b24565b955050604087013567ffffffffffffffff811115613c2957600080fd5b613c3589828a01613b24565b945050606087013567ffffffffffffffff811115613c5257600080fd5b613c5e89828a01613b24565b935050608087013567ffffffffffffffff811115613c7b57600080fd5b613c8789828a01613afa565b92505060a087013567ffffffffffffffff811115613ca457600080fd5b613cb089828a01613b24565b9150509295509295509295565b60008060008060008060c08789031215613cd657600080fd5b600087013567ffffffffffffffff811115613cf057600080fd5b613cfc89828a01613b24565b965050602087013567ffffffffffffffff811115613d1957600080fd5b613d2589828a01613b24565b955050604087013567ffffffffffffffff811115613d4257600080fd5b613d4e89828a01613b24565b945050606087013567ffffffffffffffff811115613d6b57600080fd5b613d7789828a01613b24565b935050608087013567ffffffffffffffff811115613d9457600080fd5b613da089828a01613b24565b92505060a087013567ffffffffffffffff811115613dbd57600080fd5b613dc989828a01613afa565b9150509295509295509295565b600060208284031215613de857600080fd5b6000613df684828501613b4e565b91505092915050565b600080600080600080600060e0888a031215613e1a57600080fd5b6000613e288a828b01613b4e565b975050602088013567ffffffffffffffff811115613e4557600080fd5b613e518a828b01613b24565b965050604088013567ffffffffffffffff811115613e6e57600080fd5b613e7a8a828b01613b24565b955050606088013567ffffffffffffffff811115613e9757600080fd5b613ea38a828b01613b24565b945050608088013567ffffffffffffffff811115613ec057600080fd5b613ecc8a828b01613b24565b93505060a088013567ffffffffffffffff811115613ee957600080fd5b613ef58a828b01613afa565b92505060c088013567ffffffffffffffff811115613f1257600080fd5b613f1e8a828b01613b24565b91505092959891949750929550565b600080600080600080600060e0888a031215613f4857600080fd5b6000613f568a828b01613b4e565b975050602088013567ffffffffffffffff811115613f7357600080fd5b613f7f8a828b01613b24565b965050604088013567ffffffffffffffff811115613f9c57600080fd5b613fa88a828b01613b24565b955050606088013567ffffffffffffffff811115613fc557600080fd5b613fd18a828b01613b24565b945050608088013567ffffffffffffffff811115613fee57600080fd5b613ffa8a828b01613b24565b93505060a088013567ffffffffffffffff81111561401757600080fd5b6140238a828b01613b24565b92505060c088013567ffffffffffffffff81111561404057600080fd5b61404c8a828b01613afa565b91505092959891949750929550565b6000614067838361428e565b905092915050565b600061407b83836143cc565b905092915050565b600061408f838361454a565b905092915050565b60006140a383836146c8565b905092915050565b6140b481614bea565b82525050565b60006140c582614b19565b6140cf8185614b84565b9350836020820285016140e185614ad9565b8060005b8581101561411d57848403895281516140fe858261405b565b945061410983614b50565b925060208a019950506001810190506140e5565b50829750879550505050505092915050565b600061413a82614b24565b6141448185614b95565b93508360208202850161415685614ae9565b8060005b858110156141925784840389528151614173858261406f565b945061417e83614b5d565b925060208a0199505060018101905061415a565b50829750879550505050505092915050565b60006141af82614b2f565b6141b98185614ba6565b9350836020820285016141cb85614af9565b8060005b8581101561420757848403895281516141e88582614083565b94506141f383614b6a565b925060208a019950506001810190506141cf565b50829750879550505050505092915050565b600061422482614b3a565b61422e8185614bb7565b93508360208202850161424085614b09565b8060005b8581101561427c578484038952815161425d8582614097565b945061426883614b77565b925060208a01995050600181019050614244565b50829750879550505050505092915050565b600061429982614b45565b6142a38185614bc8565b93506142b3818560208601614c35565b6142bc81614d70565b840191505092915050565b60006142d282614b45565b6142dc8185614bd9565b93506142ec818560208601614c35565b6142f581614d70565b840191505092915050565b600061430d602383614bd9565b91507f4f6e6c79206d616e616765722063616e2063616c6c20746869732066756e637460008301527f696f6e00000000000000000000000000000000000000000000000000000000006020830152604082019050919050565b6000614373602283614bd9565b91507f4e6f7420656e6f7567682062616c616e636520696e2074686520636f6e74726160008301527f63740000000000000000000000000000000000000000000000000000000000006020830152604082019050919050565b600060e0830160008301516143e46000860182614846565b50602083015184820360208601526143fc828261428e565b91505060408301518482036040860152614416828261428e565b91505060608301518482036060860152614430828261428e565b9150506080830151848203608086015261444a828261428e565b91505060a083015184820360a086015261446482826140ba565b91505060c083015184820360c086015261447e828261428e565b9150508091505092915050565b600060e0830160008301516144a36000860182614846565b50602083015184820360208601526144bb828261428e565b915050604083015184820360408601526144d5828261428e565b915050606083015184820360608601526144ef828261428e565b91505060808301518482036080860152614509828261428e565b91505060a083015184820360a086015261452382826140ba565b91505060c083015184820360c086015261453d828261428e565b9150508091505092915050565b600060e0830160008301516145626000860182614846565b506020830151848203602086015261457a828261428e565b91505060408301518482036040860152614594828261428e565b915050606083015184820360608601526145ae828261428e565b915050608083015184820360808601526145c8828261428e565b91505060a083015184820360a08601526145e282826140ba565b91505060c083015184820360c08601526145fc828261428e565b9150508091505092915050565b600060e0830160008301516146216000860182614846565b5060208301518482036020860152614639828261428e565b91505060408301518482036040860152614653828261428e565b9150506060830151848203606086015261466d828261428e565b91505060808301518482036080860152614687828261428e565b91505060a083015184820360a08601526146a182826140ba565b91505060c083015184820360c08601526146bb828261428e565b9150508091505092915050565b600060e0830160008301516146e06000860182614846565b50602083015184820360208601526146f8828261428e565b91505060408301518482036040860152614712828261428e565b9150506060830151848203606086015261472c828261428e565b91505060808301518482036080860152614746828261428e565b91505060a083015184820360a0860152614760828261428e565b91505060c083015184820360c086015261477a82826140ba565b9150508091505092915050565b600060e08301600083015161479f6000860182614846565b50602083015184820360208601526147b7828261428e565b915050604083015184820360408601526147d1828261428e565b915050606083015184820360608601526147eb828261428e565b91505060808301518482036080860152614805828261428e565b91505060a083015184820360a086015261481f828261428e565b91505060c083015184820360c086015261483982826140ba565b9150508091505092915050565b61484f81614c1c565b82525050565b61485e81614c1c565b82525050565b600060208201905061487960008301846140ab565b92915050565b60006020820190508181036000830152614899818461412f565b905092915050565b600060208201905081810360008301526148bb81846141a4565b905092915050565b600060208201905081810360008301526148dd8184614219565b905092915050565b600060208201905081810360008301526148ff81846142c7565b905092915050565b6000602082019050818103600083015261492081614300565b9050919050565b6000602082019050818103600083015261494081614366565b9050919050565b60006020820190508181036000830152614961818461448b565b905092915050565b600060208201905081810360008301526149838184614609565b905092915050565b600060208201905081810360008301526149a58184614787565b905092915050565b60006020820190506149c26000830184614855565b92915050565b600060c0820190506149dd6000830189614855565b81810360208301526149ef81886142c7565b90508181036040830152614a0381876142c7565b90508181036060830152614a1781866142c7565b90508181036080830152614a2b81856142c7565b905081810360a0830152614a3f81846142c7565b9050979650505050505050565b6000604051905081810181811067ffffffffffffffff82111715614a7357614a72614d41565b5b8060405250919050565b600067ffffffffffffffff821115614a9857614a97614d41565b5b602082029050602081019050919050565b600067ffffffffffffffff821115614ac457614ac3614d41565b5b601f19601f8301169050602081019050919050565b6000819050602082019050919050565b6000819050602082019050919050565b6000819050602082019050919050565b6000819050602082019050919050565b600081519050919050565b600081519050919050565b600081519050919050565b600081519050919050565b600081519050919050565b6000602082019050919050565b6000602082019050919050565b6000602082019050919050565b6000602082019050919050565b600082825260208201905092915050565b600082825260208201905092915050565b600082825260208201905092915050565b600082825260208201905092915050565b600082825260208201905092915050565b600082825260208201905092915050565b6000614bf582614bfc565b9050919050565b600073ffffffffffffffffffffffffffffffffffffffff82169050919050565b6000819050919050565b82818337600083830152505050565b60005b83811015614c53578082015181840152602081019050614c38565b83811115614c62576000848401525b50505050565b60006002820490506001821680614c8057607f821691505b60208210811415614c9457614c93614d12565b5b50919050565b6000614ca582614c1c565b91507fffffffffffffffffffffffffffffffffffffffffffffffffffffffffffffffff821415614cd857614cd7614ce3565b5b600182019050919050565b7f4e487b7100000000000000000000000000000000000000000000000000000000600052601160045260246000fd5b7f4e487b7100000000000000000000000000000000000000000000000000000000600052602260045260246000fd5b7f4e487b7100000000000000000000000000000000000000000000000000000000600052604160045260246000fd5b6000601f19601f8301169050919050565b614d8a81614c1c565b8114614d9557600080fd5b5056fea2646970667358221220c912e46d629cd7f049e770e1fccd03798ab1fddff098a2ed110d0c837b80c34e64736f6c63430008000033516d5033665831483858535637786e5575586d7741614c61697a706277384e5237754a316248766131755a6e4268516d6635426f4d45687036575965554844314c714d74453539475879387445326562344e62514e3362356658394a6f7665722036206d6f6e746873206f662070726163746963616c20657870657269656e63652077697468206120676f6f64206b6e6f776c6564676520696e20626c6f636b636861696e20646576656c6f706d656e742e692068656c70207765623320636f6d6d756e69747920627920636f6e747269627574696e6720696e2074686520776562332073706163652e",
  "linkReferences": {},
  "deployedLinkReferences": {}
}